{
  "contractName": "WolfCapital6",
  "abi": [
    {
      "anonymous": false,
      "inputs": [
        {
          "indexed": false,
          "internalType": "address",
          "name": "Staker",
          "type": "address"
        },
        {
          "indexed": false,
          "internalType": "uint256",
          "name": "amount",
          "type": "uint256"
        }
      ],
      "name": "CLAIM",
      "type": "event"
    },
    {
      "anonymous": false,
      "inputs": [
        {
          "indexed": false,
          "internalType": "uint8",
          "name": "version",
          "type": "uint8"
        }
      ],
      "name": "Initialized",
      "type": "event"
    },
    {
      "anonymous": false,
      "inputs": [
        {
          "indexed": false,
          "internalType": "uint256",
          "name": "topTeamThisWeek",
          "type": "uint256"
        },
        {
          "indexed": false,
          "internalType": "uint256",
          "name": "lotteryAmount",
          "type": "uint256"
        },
        {
          "indexed": false,
          "internalType": "uint256",
          "name": "lastWeekTopDeposit",
          "type": "uint256"
        }
      ],
      "name": "LOTTERY",
      "type": "event"
    },
    {
      "anonymous": false,
      "inputs": [
        {
          "indexed": true,
          "internalType": "address",
          "name": "previousOwner",
          "type": "address"
        },
        {
          "indexed": true,
          "internalType": "address",
          "name": "newOwner",
          "type": "address"
        }
      ],
      "name": "OwnershipTransferred",
      "type": "event"
    },
    {
      "anonymous": false,
      "inputs": [
        {
          "indexed": false,
          "internalType": "address",
          "name": "Staker",
          "type": "address"
        },
        {
          "indexed": false,
          "internalType": "uint256",
          "name": "amount",
          "type": "uint256"
        }
      ],
      "name": "STAKE",
      "type": "event"
    },
    {
      "anonymous": false,
      "inputs": [
        {
          "indexed": false,
          "internalType": "address",
          "name": "Staker",
          "type": "address"
        },
        {
          "indexed": false,
          "internalType": "uint256",
          "name": "amount",
          "type": "uint256"
        }
      ],
      "name": "WITHDRAW",
      "type": "event"
    },
    {
      "inputs": [],
      "name": "accumulationDuration",
      "outputs": [
        {
          "internalType": "uint256",
          "name": "",
          "type": "uint256"
        }
      ],
      "stateMutability": "view",
      "type": "function"
    },
    {
      "inputs": [],
      "name": "basePercent",
      "outputs": [
        {
          "internalType": "uint256",
          "name": "",
          "type": "uint256"
        }
      ],
      "stateMutability": "view",
      "type": "function"
    },
    {
      "inputs": [],
      "name": "claimDuration",
      "outputs": [
        {
          "internalType": "uint256",
          "name": "",
          "type": "uint256"
        }
      ],
      "stateMutability": "view",
      "type": "function"
    },
    {
      "inputs": [],
      "name": "currentStaked",
      "outputs": [
        {
          "internalType": "uint256",
          "name": "",
          "type": "uint256"
        }
      ],
      "stateMutability": "view",
      "type": "function"
    },
    {
      "inputs": [],
      "name": "currentWeek",
      "outputs": [
        {
          "internalType": "uint256",
          "name": "",
          "type": "uint256"
        }
      ],
      "stateMutability": "view",
      "type": "function"
    },
    {
      "inputs": [],
      "name": "dev",
      "outputs": [
        {
          "internalType": "address",
          "name": "",
          "type": "address"
        }
      ],
      "stateMutability": "view",
      "type": "function"
    },
    {
      "inputs": [],
      "name": "dev1FeePercent",
      "outputs": [
        {
          "internalType": "uint256",
          "name": "",
          "type": "uint256"
        }
      ],
      "stateMutability": "view",
      "type": "function"
    },
    {
      "inputs": [],
      "name": "dev2",
      "outputs": [
        {
          "internalType": "address",
          "name": "",
          "type": "address"
        }
      ],
      "stateMutability": "view",
      "type": "function"
    },
    {
      "inputs": [],
      "name": "dev2FeePercent",
      "outputs": [
        {
          "internalType": "uint256",
          "name": "",
          "type": "uint256"
        }
      ],
      "stateMutability": "view",
      "type": "function"
    },
    {
      "inputs": [],
      "name": "dev3FeePercent",
      "outputs": [
        {
          "internalType": "uint256",
          "name": "",
          "type": "uint256"
        }
      ],
      "stateMutability": "view",
      "type": "function"
    },
    {
      "inputs": [],
      "name": "developmentWallet1",
      "outputs": [
        {
          "internalType": "address",
          "name": "",
          "type": "address"
        }
      ],
      "stateMutability": "view",
      "type": "function"
    },
    {
      "inputs": [],
      "name": "developmentWallet2",
      "outputs": [
        {
          "internalType": "address",
          "name": "",
          "type": "address"
        }
      ],
      "stateMutability": "view",
      "type": "function"
    },
    {
      "inputs": [],
      "name": "developmentWallet3",
      "outputs": [
        {
          "internalType": "address",
          "name": "",
          "type": "address"
        }
      ],
      "stateMutability": "view",
      "type": "function"
    },
    {
      "inputs": [],
      "name": "haltAccEndTime",
      "outputs": [
        {
          "internalType": "uint256",
          "name": "",
          "type": "uint256"
        }
      ],
      "stateMutability": "view",
      "type": "function"
    },
    {
      "inputs": [],
      "name": "haltAccStartTime",
      "outputs": [
        {
          "internalType": "uint256",
          "name": "",
          "type": "uint256"
        }
      ],
      "stateMutability": "view",
      "type": "function"
    },
    {
      "inputs": [],
      "name": "haltAccumulation",
      "outputs": [
        {
          "internalType": "bool",
          "name": "",
          "type": "bool"
        }
      ],
      "stateMutability": "view",
      "type": "function"
    },
    {
      "inputs": [],
      "name": "haltDeposits",
      "outputs": [
        {
          "internalType": "bool",
          "name": "",
          "type": "bool"
        }
      ],
      "stateMutability": "view",
      "type": "function"
    },
    {
      "inputs": [],
      "name": "haltWithdraws",
      "outputs": [
        {
          "internalType": "bool",
          "name": "",
          "type": "bool"
        }
      ],
      "stateMutability": "view",
      "type": "function"
    },
    {
      "inputs": [],
      "name": "launchTime",
      "outputs": [
        {
          "internalType": "uint256",
          "name": "",
          "type": "uint256"
        }
      ],
      "stateMutability": "view",
      "type": "function"
    },
    {
      "inputs": [],
      "name": "launched",
      "outputs": [
        {
          "internalType": "bool",
          "name": "",
          "type": "bool"
        }
      ],
      "stateMutability": "view",
      "type": "function"
    },
    {
      "inputs": [],
      "name": "lockDuration",
      "outputs": [
        {
          "internalType": "uint256",
          "name": "",
          "type": "uint256"
        }
      ],
      "stateMutability": "view",
      "type": "function"
    },
    {
      "inputs": [],
      "name": "lotteryFeePercent",
      "outputs": [
        {
          "internalType": "uint256",
          "name": "",
          "type": "uint256"
        }
      ],
      "stateMutability": "view",
      "type": "function"
    },
    {
      "inputs": [],
      "name": "lotteryPercent",
      "outputs": [
        {
          "internalType": "uint256",
          "name": "",
          "type": "uint256"
        }
      ],
      "stateMutability": "view",
      "type": "function"
    },
    {
      "inputs": [],
      "name": "lotteryPool",
      "outputs": [
        {
          "internalType": "uint256",
          "name": "",
          "type": "uint256"
        }
      ],
      "stateMutability": "view",
      "type": "function"
    },
    {
      "inputs": [],
      "name": "marketingFeePercent",
      "outputs": [
        {
          "internalType": "uint256",
          "name": "",
          "type": "uint256"
        }
      ],
      "stateMutability": "view",
      "type": "function"
    },
    {
      "inputs": [],
      "name": "marketingWallet",
      "outputs": [
        {
          "internalType": "address",
          "name": "",
          "type": "address"
        }
      ],
      "stateMutability": "view",
      "type": "function"
    },
    {
      "inputs": [],
      "name": "maxDeposit",
      "outputs": [
        {
          "internalType": "uint256",
          "name": "",
          "type": "uint256"
        }
      ],
      "stateMutability": "view",
      "type": "function"
    },
    {
      "inputs": [],
      "name": "minDeposit",
      "outputs": [
        {
          "internalType": "uint256",
          "name": "",
          "type": "uint256"
        }
      ],
      "stateMutability": "view",
      "type": "function"
    },
    {
      "inputs": [],
      "name": "multiSigWallet",
      "outputs": [
        {
          "internalType": "address",
          "name": "",
          "type": "address"
        }
      ],
      "stateMutability": "view",
      "type": "function"
    },
    {
      "inputs": [],
      "name": "owner",
      "outputs": [
        {
          "internalType": "address",
          "name": "",
          "type": "address"
        }
      ],
      "stateMutability": "view",
      "type": "function"
    },
    {
      "inputs": [],
      "name": "ownerFeePercent",
      "outputs": [
        {
          "internalType": "uint256",
          "name": "",
          "type": "uint256"
        }
      ],
      "stateMutability": "view",
      "type": "function"
    },
    {
      "inputs": [],
      "name": "ownerWallet",
      "outputs": [
        {
          "internalType": "address",
          "name": "",
          "type": "address"
        }
      ],
      "stateMutability": "view",
      "type": "function"
    },
    {
      "inputs": [],
      "name": "percentDivider",
      "outputs": [
        {
          "internalType": "uint256",
          "name": "",
          "type": "uint256"
        }
      ],
      "stateMutability": "view",
      "type": "function"
    },
    {
      "inputs": [],
      "name": "referralPercent",
      "outputs": [
        {
          "internalType": "uint256",
          "name": "",
          "type": "uint256"
        }
      ],
      "stateMutability": "view",
      "type": "function"
    },
    {
      "inputs": [],
      "name": "referrerPercent",
      "outputs": [
        {
          "internalType": "uint256",
          "name": "",
          "type": "uint256"
        }
      ],
      "stateMutability": "view",
      "type": "function"
    },
    {
      "inputs": [],
      "name": "renounceOwnership",
      "outputs": [],
      "stateMutability": "nonpayable",
      "type": "function"
    },
    {
      "inputs": [
        {
          "internalType": "uint256",
          "name": "",
          "type": "uint256"
        }
      ],
      "name": "requiredTeamAmount",
      "outputs": [
        {
          "internalType": "uint256",
          "name": "",
          "type": "uint256"
        }
      ],
      "stateMutability": "view",
      "type": "function"
    },
    {
      "inputs": [
        {
          "internalType": "uint256",
          "name": "",
          "type": "uint256"
        }
      ],
      "name": "requiredTeamUsers",
      "outputs": [
        {
          "internalType": "uint256",
          "name": "",
          "type": "uint256"
        }
      ],
      "stateMutability": "view",
      "type": "function"
    },
    {
      "inputs": [],
      "name": "teamPercentMultiplier",
      "outputs": [
        {
          "internalType": "uint256",
          "name": "",
          "type": "uint256"
        }
      ],
      "stateMutability": "view",
      "type": "function"
    },
    {
      "inputs": [],
      "name": "timeStep",
      "outputs": [
        {
          "internalType": "uint256",
          "name": "",
          "type": "uint256"
        }
      ],
      "stateMutability": "view",
      "type": "function"
    },
    {
      "inputs": [],
      "name": "topDepositThisWeek",
      "outputs": [
        {
          "internalType": "uint256",
          "name": "",
          "type": "uint256"
        }
      ],
      "stateMutability": "view",
      "type": "function"
    },
    {
      "inputs": [],
      "name": "topTeamThisWeek",
      "outputs": [
        {
          "internalType": "uint256",
          "name": "",
          "type": "uint256"
        }
      ],
      "stateMutability": "view",
      "type": "function"
    },
    {
      "inputs": [],
      "name": "totalRefRewards",
      "outputs": [
        {
          "internalType": "uint256",
          "name": "",
          "type": "uint256"
        }
      ],
      "stateMutability": "view",
      "type": "function"
    },
    {
      "inputs": [],
      "name": "totalStaked",
      "outputs": [
        {
          "internalType": "uint256",
          "name": "",
          "type": "uint256"
        }
      ],
      "stateMutability": "view",
      "type": "function"
    },
    {
      "inputs": [],
      "name": "totalWithdrawan",
      "outputs": [
        {
          "internalType": "uint256",
          "name": "",
          "type": "uint256"
        }
      ],
      "stateMutability": "view",
      "type": "function"
    },
    {
      "inputs": [
        {
          "internalType": "address",
          "name": "newOwner",
          "type": "address"
        },
        {
          "internalType": "address",
          "name": "newDev",
          "type": "address"
        },
        {
          "internalType": "address",
          "name": "newDev2",
          "type": "address"
        }
      ],
      "name": "transferOwnership",
      "outputs": [],
      "stateMutability": "nonpayable",
      "type": "function"
    },
    {
      "inputs": [],
      "name": "uniqueStakers",
      "outputs": [
        {
          "internalType": "uint256",
          "name": "",
          "type": "uint256"
        }
      ],
      "stateMutability": "view",
      "type": "function"
    },
    {
      "inputs": [],
      "name": "uniqueTeamId",
      "outputs": [
        {
          "internalType": "uint256",
          "name": "",
          "type": "uint256"
        }
      ],
      "stateMutability": "view",
      "type": "function"
    },
    {
      "inputs": [],
      "name": "usdc",
      "outputs": [
        {
          "internalType": "contract IERC20MetadataUpgradeable",
          "name": "",
          "type": "address"
        }
      ],
      "stateMutability": "view",
      "type": "function"
    },
    {
      "inputs": [],
      "name": "wolfV1",
      "outputs": [
        {
          "internalType": "contract IWolf",
          "name": "",
          "type": "address"
        }
      ],
      "stateMutability": "view",
      "type": "function"
    },
    {
      "inputs": [
        {
          "internalType": "uint256",
          "name": "_feePercent",
          "type": "uint256"
        }
      ],
      "name": "initialize",
      "outputs": [],
      "stateMutability": "nonpayable",
      "type": "function"
    },
    {
      "inputs": [],
      "name": "updateWeekly",
      "outputs": [],
      "stateMutability": "nonpayable",
      "type": "function"
    },
    {
      "inputs": [
        {
          "internalType": "address",
          "name": "_referrer",
          "type": "address"
        },
        {
          "internalType": "uint256",
          "name": "_amount",
          "type": "uint256"
        }
      ],
      "name": "stake",
      "outputs": [],
      "stateMutability": "nonpayable",
      "type": "function"
    },
    {
      "inputs": [
        {
          "internalType": "uint256",
          "name": "_index",
          "type": "uint256"
        }
      ],
      "name": "claim",
      "outputs": [],
      "stateMutability": "nonpayable",
      "type": "function"
    },
    {
      "inputs": [],
      "name": "claimAll",
      "outputs": [],
      "stateMutability": "nonpayable",
      "type": "function"
    },
    {
      "inputs": [
        {
          "internalType": "uint256",
          "name": "_index",
          "type": "uint256"
        }
      ],
      "name": "withdraw",
      "outputs": [],
      "stateMutability": "nonpayable",
      "type": "function"
    },
    {
      "inputs": [],
      "name": "claimLottery",
      "outputs": [],
      "stateMutability": "nonpayable",
      "type": "function"
    },
    {
      "inputs": [],
      "name": "calculateWeek",
      "outputs": [
        {
          "internalType": "uint256",
          "name": "",
          "type": "uint256"
        }
      ],
      "stateMutability": "view",
      "type": "function"
    },
    {
      "inputs": [
        {
          "internalType": "address",
          "name": "_user",
          "type": "address"
        },
        {
          "internalType": "uint256",
          "name": "_index",
          "type": "uint256"
        }
      ],
      "name": "calculateReward",
      "outputs": [
        {
          "internalType": "uint256",
          "name": "_reward",
          "type": "uint256"
        }
      ],
      "stateMutability": "view",
      "type": "function"
    },
    {
      "inputs": [
        {
          "internalType": "address",
          "name": "_user",
          "type": "address"
        }
      ],
      "name": "getUserInfo",
      "outputs": [
        {
          "internalType": "bool",
          "name": "_isExists",
          "type": "bool"
        },
        {
          "internalType": "uint256",
          "name": "_stakeCount",
          "type": "uint256"
        },
        {
          "internalType": "address",
          "name": "_referrer",
          "type": "address"
        },
        {
          "internalType": "uint256",
          "name": "_referrals",
          "type": "uint256"
        },
        {
          "internalType": "uint256",
          "name": "_referralRewards",
          "type": "uint256"
        },
        {
          "internalType": "uint256",
          "name": "_teamId",
          "type": "uint256"
        },
        {
          "internalType": "uint256",
          "name": "_currentStaked",
          "type": "uint256"
        },
        {
          "internalType": "uint256",
          "name": "_totalStaked",
          "type": "uint256"
        },
        {
          "internalType": "uint256",
          "name": "_totalWithdrawan",
          "type": "uint256"
        }
      ],
      "stateMutability": "view",
      "type": "function"
    },
    {
      "inputs": [
        {
          "internalType": "address",
          "name": "_user",
          "type": "address"
        },
        {
          "internalType": "uint256",
          "name": "_index",
          "type": "uint256"
        }
      ],
      "name": "getUserTokenStakeInfo",
      "outputs": [
        {
          "internalType": "uint256",
          "name": "_amount",
          "type": "uint256"
        },
        {
          "internalType": "uint256",
          "name": "_checkpoint",
          "type": "uint256"
        },
        {
          "internalType": "uint256",
          "name": "_claimedReward",
          "type": "uint256"
        },
        {
          "internalType": "uint256",
          "name": "_startTime",
          "type": "uint256"
        },
        {
          "internalType": "bool",
          "name": "_isActive",
          "type": "bool"
        }
      ],
      "stateMutability": "view",
      "type": "function"
    },
    {
      "inputs": [
        {
          "internalType": "address",
          "name": "_user",
          "type": "address"
        },
        {
          "internalType": "uint256",
          "name": "_week",
          "type": "uint256"
        }
      ],
      "name": "getUserWeeklyDepositAmount",
      "outputs": [
        {
          "internalType": "uint256",
          "name": "_amount",
          "type": "uint256"
        }
      ],
      "stateMutability": "view",
      "type": "function"
    },
    {
      "inputs": [
        {
          "internalType": "address",
          "name": "_user",
          "type": "address"
        },
        {
          "internalType": "uint256",
          "name": "_week",
          "type": "uint256"
        }
      ],
      "name": "getUserLotteryClaimedStatus",
      "outputs": [
        {
          "internalType": "bool",
          "name": "_status",
          "type": "bool"
        }
      ],
      "stateMutability": "view",
      "type": "function"
    },
    {
      "inputs": [
        {
          "internalType": "uint256",
          "name": "_teamId",
          "type": "uint256"
        }
      ],
      "name": "getTeamInfo",
      "outputs": [
        {
          "internalType": "address",
          "name": "_Lead",
          "type": "address"
        },
        {
          "internalType": "string",
          "name": "_teamName",
          "type": "string"
        },
        {
          "internalType": "uint256",
          "name": "_teamCount",
          "type": "uint256"
        },
        {
          "internalType": "uint256",
          "name": "_teamAmount",
          "type": "uint256"
        },
        {
          "internalType": "uint256",
          "name": "_currentPercent",
          "type": "uint256"
        }
      ],
      "stateMutability": "view",
      "type": "function"
    },
    {
      "inputs": [
        {
          "internalType": "uint256",
          "name": "_teamId",
          "type": "uint256"
        },
        {
          "internalType": "uint256",
          "name": "_index",
          "type": "uint256"
        }
      ],
      "name": "getAllTeamMembers",
      "outputs": [
        {
          "internalType": "address",
          "name": "_teamMember",
          "type": "address"
        }
      ],
      "stateMutability": "view",
      "type": "function"
    },
    {
      "inputs": [
        {
          "internalType": "uint256",
          "name": "_teamId",
          "type": "uint256"
        },
        {
          "internalType": "uint256",
          "name": "_week",
          "type": "uint256"
        }
      ],
      "name": "getTeamLotteryAmount",
      "outputs": [
        {
          "internalType": "uint256",
          "name": "_amount",
          "type": "uint256"
        }
      ],
      "stateMutability": "view",
      "type": "function"
    },
    {
      "inputs": [
        {
          "internalType": "uint256",
          "name": "_teamId",
          "type": "uint256"
        },
        {
          "internalType": "uint256",
          "name": "_week",
          "type": "uint256"
        }
      ],
      "name": "getTeamWeeklyDepositAmount",
      "outputs": [
        {
          "internalType": "uint256",
          "name": "_amount",
          "type": "uint256"
        }
      ],
      "stateMutability": "view",
      "type": "function"
    },
    {
      "inputs": [
        {
          "internalType": "uint256",
          "name": "_week",
          "type": "uint256"
        }
      ],
      "name": "getWinnersHistory",
      "outputs": [
        {
          "internalType": "uint256",
          "name": "_team",
          "type": "uint256"
        }
      ],
      "stateMutability": "view",
      "type": "function"
    },
    {
      "inputs": [
        {
          "internalType": "address",
          "name": "_user",
          "type": "address"
        }
      ],
      "name": "getUserMigrationStatus",
      "outputs": [
        {
          "internalType": "bool",
          "name": "",
          "type": "bool"
        }
      ],
      "stateMutability": "view",
      "type": "function"
    },
    {
      "inputs": [
        {
          "internalType": "uint256",
          "name": "_teamId",
          "type": "uint256"
        }
      ],
      "name": "getTeamMigrationStatus",
      "outputs": [
        {
          "internalType": "bool",
          "name": "",
          "type": "bool"
        }
      ],
      "stateMutability": "view",
      "type": "function"
    },
    {
      "inputs": [],
      "name": "getContractBalance",
      "outputs": [
        {
          "internalType": "uint256",
          "name": "",
          "type": "uint256"
        }
      ],
      "stateMutability": "view",
      "type": "function"
    },
    {
      "inputs": [
        {
          "internalType": "uint256",
          "name": "_value",
          "type": "uint256"
        }
      ],
      "name": "migrateAllStateValues",
      "outputs": [],
      "stateMutability": "nonpayable",
      "type": "function"
    },
    {
      "inputs": [],
      "name": "launch",
      "outputs": [],
      "stateMutability": "nonpayable",
      "type": "function"
    },
    {
      "inputs": [
        {
          "internalType": "bool",
          "name": "_state",
          "type": "bool"
        }
      ],
      "name": "setHaltDeposits",
      "outputs": [],
      "stateMutability": "nonpayable",
      "type": "function"
    },
    {
      "inputs": [
        {
          "internalType": "bool",
          "name": "_state",
          "type": "bool"
        }
      ],
      "name": "setHaltWithdraws",
      "outputs": [],
      "stateMutability": "nonpayable",
      "type": "function"
    },
    {
      "inputs": [
        {
          "internalType": "bool",
          "name": "_state",
          "type": "bool"
        }
      ],
      "name": "setHaltAccumulation",
      "outputs": [],
      "stateMutability": "nonpayable",
      "type": "function"
    },
    {
      "inputs": [
        {
          "internalType": "address",
          "name": "_token",
          "type": "address"
        },
        {
          "internalType": "uint256",
          "name": "_amount",
          "type": "uint256"
        }
      ],
      "name": "migrateFunds",
      "outputs": [],
      "stateMutability": "nonpayable",
      "type": "function"
    },
    {
      "inputs": [
        {
          "internalType": "string",
          "name": "_name",
          "type": "string"
        }
      ],
      "name": "SetTeamName",
      "outputs": [],
      "stateMutability": "nonpayable",
      "type": "function"
    },
    {
      "inputs": [
        {
          "internalType": "uint256",
          "name": "_min",
          "type": "uint256"
        },
        {
          "internalType": "uint256",
          "name": "_max",
          "type": "uint256"
        }
      ],
      "name": "SetDepositLimits",
      "outputs": [],
      "stateMutability": "nonpayable",
      "type": "function"
    },
    {
      "inputs": [
        {
          "internalType": "address",
          "name": "_ownerWallet",
          "type": "address"
        },
        {
          "internalType": "address",
          "name": "_marketingWallet",
          "type": "address"
        },
        {
          "internalType": "address",
          "name": "_developmentWallet1",
          "type": "address"
        },
        {
          "internalType": "address",
          "name": "_developmentWallet2",
          "type": "address"
        },
        {
          "internalType": "address",
          "name": "_developmentWallet3",
          "type": "address"
        }
      ],
      "name": "setFeeWallets",
      "outputs": [],
      "stateMutability": "nonpayable",
      "type": "function"
    },
    {
      "inputs": [
        {
          "internalType": "address",
          "name": "_newWallet",
          "type": "address"
        }
      ],
      "name": "setMultiSigWallet",
      "outputs": [],
      "stateMutability": "nonpayable",
      "type": "function"
    },
    {
      "inputs": [
        {
          "internalType": "address",
          "name": "_newToken",
          "type": "address"
        },
        {
          "internalType": "address",
          "name": "_oldWolf",
          "type": "address"
        }
      ],
      "name": "setContracts",
      "outputs": [],
      "stateMutability": "nonpayable",
      "type": "function"
    },
    {
      "inputs": [
        {
          "internalType": "uint256",
          "name": "_basePercent",
          "type": "uint256"
        },
        {
          "internalType": "uint256",
          "name": "_teamPercent",
          "type": "uint256"
        }
      ],
      "name": "setBasePercent",
      "outputs": [],
      "stateMutability": "nonpayable",
      "type": "function"
    },
    {
      "inputs": [
        {
          "internalType": "uint256",
          "name": "_1",
          "type": "uint256"
        },
        {
          "internalType": "uint256",
          "name": "_2",
          "type": "uint256"
        },
        {
          "internalType": "uint256",
          "name": "_3",
          "type": "uint256"
        },
        {
          "internalType": "uint256",
          "name": "_4",
          "type": "uint256"
        }
      ],
      "name": "setDurations",
      "outputs": [],
      "stateMutability": "nonpayable",
      "type": "function"
    },
    {
      "inputs": [
        {
          "internalType": "uint256[10]",
          "name": "_values",
          "type": "uint256[10]"
        }
      ],
      "name": "setRequiredTeamAmount",
      "outputs": [],
      "stateMutability": "nonpayable",
      "type": "function"
    },
    {
      "inputs": [
        {
          "internalType": "uint256[10]",
          "name": "_values",
          "type": "uint256[10]"
        }
      ],
      "name": "setRequiredTeamUsers",
      "outputs": [],
      "stateMutability": "nonpayable",
      "type": "function"
    },
    {
      "inputs": [
        {
          "internalType": "uint256",
          "name": "_1",
          "type": "uint256"
        },
        {
          "internalType": "uint256",
          "name": "_2",
          "type": "uint256"
        },
        {
          "internalType": "uint256",
          "name": "_3",
          "type": "uint256"
        },
        {
          "internalType": "uint256",
          "name": "_4",
          "type": "uint256"
        },
        {
          "internalType": "uint256",
          "name": "_5",
          "type": "uint256"
        },
        {
          "internalType": "uint256",
          "name": "_6",
          "type": "uint256"
        }
      ],
      "name": "changeFees",
      "outputs": [],
      "stateMutability": "nonpayable",
      "type": "function"
    }
  ],
  "bytecode": "0x608060405234801561001057600080fd5b506138fc806100206000396000f3fe608060405234801561001057600080fd5b50600436106104cd5760003560e01c80636f9fb98a11610283578063bc17d55d1161015c578063da6fa55c116100ce578063ec99720d11610092578063ec99720d14610b87578063ef646daf14610b9a578063f03b0c0b14610ba3578063fdc8b64714610bb6578063fe4b84df14610bbf578063fe6f1b0514610bd257600080fd5b8063da6fa55c14610b50578063daceb20514610b59578063e41cb93f14610b62578063e937b47814610b6b578063eb33733b14610b7e57600080fd5b8063cdd5f2d811610120578063cdd5f2d814610af3578063d008043114610b06578063d1058e5914610b0f578063d4f03b9014610b17578063d6dbf05714610b2a578063d8952a4914610b3d57600080fd5b8063bc17d55d14610ab2578063bfe0e02014610ac5578063c5ac0ded14610ace578063c981500514610ad7578063cb29813c14610ae057600080fd5b806391cca3db116101f5578063a301ba6f116101b9578063a301ba6f14610a5b578063a443c6e414610a68578063a607232814610a7b578063a9c117f714610a83578063ab1a4d9414610a96578063adc9772e14610a9f57600080fd5b806391cca3db146109d25780639335dcb7146109e5578063969215ba146109f857806399707a7b14610a1c5780639b6057b114610a2f57600080fd5b80638013f3a7116102475780638013f3a71461094d5780638091f3bf14610960578063817b1cd214610974578063888321371461097d5780638c74945e146109905780638da5cb5b146109bf57600080fd5b80636f9fb98a14610918578063715018a61461092057806375f0a87414610928578063790ca4131461093b5780637c356df81461094457600080fd5b8063429b2be7116103b557806358e1eaaf1161032757806363b996c5116102eb57806363b996c5146108c55780636615d437146108d8578063695464e9146108e05780636998de35146108e95780636b760a94146108f25780636c9af74a1461090557600080fd5b806358e1eaaf146107d95780635b8f1e4a146107e25780636083e59a146107f5578063636d98b1146107fe5780636386c1c71461080757600080fd5b80634e486b1c116103795780634e486b1c146107705780634ed6575f1461078357806350d67b3c1461078b578063562943d11461079457806357e09eeb146107a757806357eb981a146107c757600080fd5b8063429b2be71461069c57806346eeaa3f146106a55780634b8feb4f146106c85780634d77b701146106db5780634dfcae3e1461075d57600080fd5b80632c8316331161044e57806334deb8fd1161041257806334deb8fd1461061c578063379607f5146106515780633ab9c84b146106645780633e413bee1461067757806341680f7d1461068a57806341b3d1851461069357600080fd5b80632c8316331461059c5780632e1a7d4d146105a557806331d04a81146105b857806331fe3448146105cb578063343dfb7e1461061357600080fd5b80631502906d116104955780631502906d146105355780631852e8d91461053e578063196f9cdd146105515780631b94eaaf146105805780632ab463fb1461059357600080fd5b806301339c21146104d257806304554443146104dc57806306575c89146104f85780630b0bb5941461050157806310db930d1461052c575b600080fd5b6104da610bdb565b005b6104e5608b5481565b6040519081526020015b60405180910390f35b6104e560765481565b61051461050f366004613219565b610c4e565b6040516001600160a01b0390911681526020016104ef565b6104e5607f5481565b6104e560885481565b6104e561054c366004613257565b610c8d565b6104e561055f366004613219565b600091825260a1602090815260408084209284526006909201905290205490565b606c54610514906001600160a01b031681565b6104e560815481565b6104e560745481565b6104da6105b3366004613281565b610d85565b6104da6105c6366004613281565b611011565b6106036105d9366004613257565b6001600160a01b03909116600090815260a360209081526040808320938352929052205460ff1690565b60405190151581526020016104ef565b6104e560845481565b6104e561062a366004613257565b6001600160a01b03909116600090815260aa60209081526040808320938352929052205490565b6104da61065f366004613281565b61101e565b6104da6106723660046132b0565b6112d5565b606754610514906001600160a01b031681565b6104e560755481565b6104e560865481565b6104e560785481565b6106036106b3366004613281565b600090815260a6602052604090205460ff1690565b606d54610514906001600160a01b031681565b6107336106e9366004613257565b6001600160a01b03909116600090815260a260209081526040808320938352929052208054600182015460028301546003840154600490940154929491939092909160ff90911690565b6040805195865260208601949094529284019190915260608301521515608082015260a0016104ef565b6104da61076b3660046132b0565b61132d565b6104da61077e366004613219565b611385565b6104da611398565b6104e560725481565b607a546106039062010000900460ff1681565b6104e56107b5366004613281565b600090815260a4602052604090205490565b607a5461060390610100900460ff1681565b6104e560805481565b606b54610514906001600160a01b031681565b6104e560875481565b6104e560835481565b61087161081536600461332f565b6001600160a01b03908116600090815260a060205260409020805460048201546001830154600284015460038501546005860154600687015460079097015460ff87169995986101009097049096169693959294919390929091565b604080519915158a5260208a01989098526001600160a01b03909616968801969096526060870193909352608086019190915260a085015260c084015260e0830191909152610100820152610120016104ef565b6104e56108d3366004613281565b6113c3565b6104e56113da565b6104e560a75481565b6104e5607d5481565b6104da61090036600461334a565b611407565b6104da61091336600461338d565b611484565b6104e56114eb565b6104da611558565b606a54610514906001600160a01b031681565b6104e560775481565b6104e560715481565b603554610514906001600160a01b031681565b607a54610603906301000000900460ff1681565b6104e5606e5481565b6104e561098b366004613281565b61156d565b6104e561099e366004613219565b600091825260a1602090815260408084209284526007909201905290205490565b603354610514906001600160a01b031681565b603454610514906001600160a01b031681565b606954610514906001600160a01b031681565b610a0b610a06366004613281565b61157d565b6040516104ef95949392919061343f565b6104da610a2a366004613480565b611651565b610603610a3d36600461332f565b6001600160a01b0316600090815260a5602052604090205460ff1690565b607a546106039060ff1681565b6104da610a763660046134b2565b61166d565b6104da6116ec565b6104da610a91366004613257565b6119e1565b6104e560895481565b6104da610aad366004613257565b611aa3565b6104da610ac0366004613219565b611e2c565b6104e560705481565b6104e5607b5481565b6104e560795481565b6104da610aee366004613563565b611e3f565b606854610514906001600160a01b031681565b6104e5606f5481565b6104da611e64565b60a854610514906001600160a01b031681565b6104da610b383660046135b4565b612098565b6104da610b4b3660046135d1565b6120ba565b6104e5607e5481565b6104e560735481565b6104e560a95481565b6104da610b793660046135b4565b6120f0565b6104e5607c5481565b6104da610b953660046135b4565b612127565b6104e5608a5481565b6104da610bb136600461332f565b612142565b6104e560825481565b6104da610bcd366004613281565b6121af565b6104e560855481565b610be3612422565b607a546301000000900460ff1615610c355760405162461bcd60e51b815260206004820152601060248201526f105b1c9958591e481b185d5b98da195960821b60448201526064015b60405180910390fd5b607a805463ff0000001916630100000017905542607755565b600082815260a160205260408120600501805483908110610c7157610c71613604565b6000918252602090912001546001600160a01b03169392505050565b607a5460009062010000900460ff1615610ca957506000610d7f565b6001600160a01b038316600081815260a260209081526040808320868452825280832093835260a0825280832060030154835260a190915281206001830154909190610cf69042906124a6565b905060785483600101541015610d2357607854607954610d169190613630565b610d209082613630565b90505b608a54811115610d325750608a545b610d79610d4c6088546085546124ef90919063ffffffff16565b610d738460040154607b54610d619190613647565b8654610d6d90866124ef565b906124ef565b9061256e565b93505050505b92915050565b607a546301000000900460ff16610dae5760405162461bcd60e51b8152600401610c2c9061365f565b607a54610100900460ff1615610dd65760405162461bcd60e51b8152600401610c2c90613688565b610dde611398565b33600090815260a06020908152604080832060a2835281842085855290925290912060048201548310610e435760405162461bcd60e51b815260206004820152600d60248201526c092dcecc2d8d2c840d2dcc8caf609b1b6044820152606401610c2c565b600481015460ff16610e8b5760405162461bcd60e51b815260206004820152601160248201527020b63932b0b23c903bb4ba34323930bbb760791b6044820152606401610c2c565b608b548160030154610e9d9190613647565b421015610ee05760405162461bcd60e51b81526020600482015260116024820152705761697420666f7220656e642074696d6560781b6044820152606401610c2c565b606754815460405163a9059cbb60e01b81526001600160a01b039092169163a9059cbb91610f13913391906004016136b7565b6020604051808303816000875af1158015610f32573d6000803e3d6000fd5b505050506040513d601f19601f82011682018060405250810190610f5691906136d0565b5060048101805460ff191690554260018201558054600583018054600090610f7f908490613630565b9091555050805460a78054600090610f98908490613630565b90915550508054600783018054600090610fb3908490613647565b90915550508054606f8054600090610fcc908490613647565b909155505080546040517f4f14ea4e43cc569e4fb4d8fa171366f2f6925bfade37c5cc93334e373a4c984791611004913391906136b7565b60405180910390a1505050565b611019612422565b60a755565b607a546301000000900460ff166110475760405162461bcd60e51b8152600401610c2c9061365f565b607a54610100900460ff161561106f5760405162461bcd60e51b8152600401610c2c90613688565b611077611398565b33600090815260a06020908152604080832060a28352818420858552909252909120600482015483106110dc5760405162461bcd60e51b815260206004820152600d60248201526c092dcecc2d8d2c840d2dcc8caf609b1b6044820152606401610c2c565b600481015460ff166111245760405162461bcd60e51b815260206004820152601160248201527020b63932b0b23c903bb4ba34323930bbb760791b6044820152606401610c2c565b60895481600101546111369190613647565b42101561117b5760405162461bcd60e51b81526020600482015260136024820152725761697420666f7220636c61696d2074696d6560681b6044820152606401610c2c565b60006111873385610c8d565b9050600081116111c95760405162461bcd60e51b815260206004820152600d60248201526c043616e277420636c61696d203609c1b6044820152606401610c2c565b60675460405163a9059cbb60e01b81526001600160a01b039091169063a9059cbb906111fb90339085906004016136b7565b6020604051808303816000875af115801561121a573d6000803e3d6000fd5b505050506040513d601f19601f8201168201806040525081019061123e91906136d0565b504282600101819055508082600201600082825461125c9190613647565b92505081905550808360070160008282546112779190613647565b9250508190555080606f60008282546112909190613647565b90915550506040517fcea16a2d83554574def1edf3ec1fb53f1373f7ebb1fa98fecdaa4268588793cc906112c790339084906136b7565b60405180910390a150505050565b6112dd612422565b8051608c556020810151608d556040810151608e556060810151608f55608081015160905560a081015160915560c081015160925560e08101516093556101008101516094556101200151609555565b611335612422565b80516096556020810151609755604081015160985560608101516099556080810151609a5560a0810151609b5560c0810151609c5560e0810151609d55610100810151609e556101200151609f55565b61138d612422565b607b91909155607c55565b6113a06113da565b607654146113c1576113b06125b0565b6113b86113da565b60765560006072555b565b608c81600a81106113d357600080fd5b0154905081565b600060885460076113eb91906136ed565b6077546113f89042613630565b611402919061370c565b905090565b61140f612422565b6001600160a01b0383166114745760405162461bcd60e51b815260206004820152602660248201527f4f776e61626c653a206e6577206f776e657220697320746865207a65726f206160448201526564647265737360d01b6064820152608401610c2c565b61147f83838361266b565b505050565b61148c612422565b606980546001600160a01b03199081166001600160a01b0397881617909155606a8054821695871695909517909455606b8054851693861693909317909255606c8054841691851691909117905560a880549092169216919091179055565b6067546040516370a0823160e01b81523060048201526000916001600160a01b0316906370a0823190602401602060405180830381865afa158015611534573d6000803e3d6000fd5b505050506040513d601f19601f82011682018060405250810190611402919061372e565b611560612422565b6113c1600080600061266b565b609681600a81106113d357600080fd5b600081815260a16020526040812080546001820180546001600160a01b0390921693606093909283928392916115b290613747565b80601f01602080910402602001604051908101604052809291908181526020018280546115de90613747565b801561162b5780601f106116005761010080835404028352916020019161162b565b820191906000526020600020905b81548152906001019060200180831161160e57829003601f168201915b505050505094508060020154935080600301549250806004015491505091939590929450565b611659612422565b608893909355608991909155608a55608b55565b33600081815260a06020908152604080832060030154835260a19091529020805490916001600160a01b03909116146116d75760405162461bcd60e51b815260206004820152600c60248201526b2737ba1030903632b0b232b960a11b6044820152606401610c2c565b815161147f9060018301906020850190613180565b33600081815260a0602090815260408083206003810154845260a1835281842094845260a39092528220607654919392909161172a90600190613630565b815260208101919091526040016000205460ff161561177d5760405162461bcd60e51b815260206004820152600f60248201526e105b1c9958591e4810db185a5b5959608a1b6044820152606401610c2c565b600081600601600060016076546117949190613630565b815260200190815260200160002054116117e55760405162461bcd60e51b81526020600482015260126024820152714e6f2072657761726420746f20436c61696d60701b6044820152606401610c2c565b33600090815260aa60205260408120607654829061180590600190613630565b815260200190815260200160002054116118565760405162461bcd60e51b81526020600482015260126024820152714e6f2072657761726420746f20436c61696d60701b6044820152606401610c2c565b6000816007016000600160765461186d9190613630565b81526020019081526020016000205460855460aa6000336001600160a01b03166001600160a01b03168152602001908152602001600020600060016076546118b59190613630565b8152602001908152602001600020546118ce91906136ed565b6118d8919061370c565b9050606760009054906101000a90046001600160a01b03166001600160a01b031663a9059cbb336085548486600601600060016076546119189190613630565b81526020019081526020016000205461193191906136ed565b61193b919061370c565b6040518363ffffffff1660e01b81526004016119589291906136b7565b6020604051808303816000875af1158015611977573d6000803e3d6000fd5b505050506040513d601f19601f8201168201806040525081019061199b91906136d0565b5033600090815260a360205260408120607654600192906119bd908490613630565b81526020810191909152604001600020805460ff1916911515919091179055505050565b606d546001600160a01b03163314611a2c5760405162461bcd60e51b815260206004820152600e60248201526d4e6f742061206d756c746973696760901b6044820152606401610c2c565b60335460405163a9059cbb60e01b81526001600160a01b038481169263a9059cbb92611a60929091169085906004016136b7565b6020604051808303816000875af1158015611a7f573d6000803e3d6000fd5b505050506040513d601f19601f8201168201806040525081019061147f91906136d0565b607a546301000000900460ff16611acc5760405162461bcd60e51b8152600401610c2c9061365f565b607a5460ff1615611b155760405162461bcd60e51b815260206004820152601360248201527241646d696e2068616c74206465706f7369747360681b6044820152606401610c2c565b611b1d611398565b33600090815260a060205260409020608654821015611b7e5760405162461bcd60e51b815260206004820152601b60248201527f416d6f756e74206c657373207468616e206d696e20616d6f756e7400000000006044820152606401610c2c565b608754828260050154611b919190613647565b1115611bdf5760405162461bcd60e51b815260206004820152601b60248201527f416d6f756e74206d6f7265207468616e206d617820616d6f756e7400000000006044820152606401610c2c565b805460ff16611c0957805460ff1916600117815560718054906000611c0383613782565b91905055505b81606e6000828254611c1b9190613647565b90915550506067546040516323b872dd60e01b8152336004820152306024820152604481018490526001600160a01b03909116906323b872dd906064016020604051808303816000875af1158015611c77573d6000803e3d6000fd5b505050506040513d601f19601f82011682018060405250810190611c9b91906136d0565b50611ca5826126dc565b6064611cb283605a6136ed565b611cbc919061370c565b33600090815260a260209081526040808320600480870180548652919093529083208481554260038201819055600180830191909155928101805460ff19169093179092558054939550909291611d1283613782565b919050555082826006016000828254611d2b9190613647565b9250508190555082826005016000828254611d469190613647565b925050819055508260a76000828254611d5f9190613647565b909155505033600090815260aa60209081526040808320607654845290915281208054859290611d90908490613647565b90915550506001600160a01b038416331415611dab57600093505b815461010090046001600160a01b0316611dd2576003820154611dd257611dd233856129fd565b815461010090046001600160a01b031615611df157611df13384612aaf565b611dfb3384612c7e565b7fa4e109bb7f03a3cbe671105ffecfc362319eaa88ecaf35997a4d3a2328d66d6c33846040516112c79291906136b7565b611e34612422565b608691909155608755565b611e47612422565b607e95909555607d93909355608191909155607f5560805560a955565b607a546301000000900460ff16611e8d5760405162461bcd60e51b8152600401610c2c9061365f565b607a54610100900460ff1615611eb55760405162461bcd60e51b8152600401610c2c90613688565b611ebd611398565b33600090815260a06020526040812090805b8260040154811015611f715733600090815260a2602090815260408083208484529091529020600481015460ff168015611f1a57506089548160010154611f169190613647565b4210155b15611f5e576000611f2b3384610c8d565b905042826001018190555080826002016000828254611f4a9190613647565b90915550611f5a90508185613647565b9350505b5080611f6981613782565b915050611ecf565b5060008111611fb25760405162461bcd60e51b815260206004820152600d60248201526c043616e277420636c61696d203609c1b6044820152606401610c2c565b60675460405163a9059cbb60e01b81526001600160a01b039091169063a9059cbb90611fe490339085906004016136b7565b6020604051808303816000875af1158015612003573d6000803e3d6000fd5b505050506040513d601f19601f8201168201806040525081019061202791906136d0565b508082600701600082825461203c9190613647565b9250508190555080606f60008282546120559190613647565b90915550506040517fcea16a2d83554574def1edf3ec1fb53f1373f7ebb1fa98fecdaa4268588793cc9061208c90339084906136b7565b60405180910390a15050565b6120a0612422565b607a80549115156101000261ff0019909216919091179055565b6120c2612422565b606780546001600160a01b039384166001600160a01b03199182161790915560688054929093169116179055565b6120f8612422565b607a805482158015620100000262ff0000199092169190911790915561211f574260785550565b426079555b50565b61212f612422565b607a805460ff1916911515919091179055565b606d546001600160a01b0316331461218d5760405162461bcd60e51b815260206004820152600e60248201526d4e6f742061206d756c746973696760901b6044820152606401610c2c565b606d80546001600160a01b0319166001600160a01b0392909216919091179055565b600054610100900460ff16158080156121cf5750600054600160ff909116105b806121e95750303b1580156121e9575060005460ff166001145b61224c5760405162461bcd60e51b815260206004820152602e60248201527f496e697469616c697a61626c653a20636f6e747261637420697320616c72656160448201526d191e481a5b9a5d1a585b1a5e995960921b6064820152608401610c2c565b6000805460ff19166001179055801561226f576000805461ff0019166101001790555b606880546001600160a01b0319908116734bba559128f2630459655ad548a5b6e5f31d97f417909155606780548216738ac76a51cc950d9822d68b83fe1ad97b32cd580d179055603380548216735886b6b942f8dab2488961f603a4be8c3015a1a9908117909155603480548316737f35be372873e06c15dd7f9494a426acab99c6de908117909155606980548416909217909155606a805483167357741a3f319d526f9ddba1d181207c8bd06c2914179055606b805483169091179055606c80548216737db1a2f972652020e8664005b6119f21a64c39b8179055606d80549091167305c09f12e03a56fbc03edb8acb2ef7933e1ff45c179055607b829055600a607c5561012c607d55610190607e556064607f8190556080819055608155610bb8608255609660838190556084556127106085556802b5e3af16b188000060865569152d02c7e14af68000006087556201518060885562093a80608955620d2f00608a55624f1a00608b55801561241e576000805461ff0019169055604051600181527f7f26b83ff96e1f2b6a682f133852f6798a09c465da95921460cefb38474024989060200161208c565b5050565b6033546001600160a01b031633148061244557506034546001600160a01b031633145b8061245a57506035546001600160a01b031633145b6113c15760405162461bcd60e51b815260206004820181905260248201527f4f776e61626c653a2063616c6c6572206973206e6f7420746865206f776e65726044820152606401610c2c565b60006124e883836040518060400160405280601e81526020017f536166654d6174683a207375627472616374696f6e206f766572666c6f770000815250612ee5565b9392505050565b6000826124fe57506000610d7f565b600061250a83856136ed565b905082612517858361370c565b146124e85760405162461bcd60e51b815260206004820152602160248201527f536166654d6174683a206d756c7469706c69636174696f6e206f766572666c6f6044820152607760f81b6064820152608401610c2c565b60006124e883836040518060400160405280601a81526020017f536166654d6174683a206469766973696f6e206279207a65726f000000000000815250612f1f565b60006085546082546074546125c591906136ed565b6125cf919061370c565b60738054600090815260a1602090815260408083206076805485526006909101835281842086905593549354835260a490915281209190915560748054929350839290919061261f908490613630565b909155505060735460725460408051928352602083018490528201527f83531245723b50749ff8a750ca38e2a14e5378b3c1083924cbd29a2ec3fd22e19060600160405180910390a150565b603380546001600160a01b03198082166001600160a01b038781169182179094556034805483168786161790556035805490921685851617909155604051929091169182907f8be0079c531659141344cd1fd0a4f28419497f9722a3daafe3b4186f6b6457e090600090a350505050565b606754606954608554607d546001600160a01b039384169363a9059cbb9316919061270790866136ed565b612711919061370c565b6040518363ffffffff1660e01b815260040161272e9291906136b7565b6020604051808303816000875af115801561274d573d6000803e3d6000fd5b505050506040513d601f19601f8201168201806040525081019061277191906136d0565b50606754606a54608554607e546001600160a01b039384169363a9059cbb9316919061279d90866136ed565b6127a7919061370c565b6040518363ffffffff1660e01b81526004016127c49291906136b7565b6020604051808303816000875af11580156127e3573d6000803e3d6000fd5b505050506040513d601f19601f8201168201806040525081019061280791906136d0565b50606754606b54608554607f546001600160a01b039384169363a9059cbb9316919061283390866136ed565b61283d919061370c565b6040518363ffffffff1660e01b815260040161285a9291906136b7565b6020604051808303816000875af1158015612879573d6000803e3d6000fd5b505050506040513d601f19601f8201168201806040525081019061289d91906136d0565b50606754606c546085546080546001600160a01b039384169363a9059cbb931691906128c990866136ed565b6128d3919061370c565b6040518363ffffffff1660e01b81526004016128f09291906136b7565b6020604051808303816000875af115801561290f573d6000803e3d6000fd5b505050506040513d601f19601f8201168201806040525081019061293391906136d0565b5060675460a85460855460a9546001600160a01b039384169363a9059cbb9316919061295f90866136ed565b612969919061370c565b6040518363ffffffff1660e01b81526004016129869291906136b7565b6020604051808303816000875af11580156129a5573d6000803e3d6000fd5b505050506040513d601f19601f820116820180604052508101906129c991906136d0565b506085546081546129da90836136ed565b6129e4919061370c565b607460008282546129f59190613647565b909155505050565b6001600160a01b03808316600090815260a060205260409020908216612a2b57612a2683612f4d565b612a63565b826001600160a01b0316826001600160a01b031614612a63578054610100600160a81b0319166101006001600160a01b038416021781555b805461010090046001600160a01b03161561147f57805461010090046001600160a01b0316600090815260a060205260408120600101805491612aa583613782565b9190505550505050565b6001600160a01b038216600090815260a060205260408120608554608454919291612ae09190610d739086906124ef565b90506000612aff608554610d73608354876124ef90919063ffffffff16565b60675460405163a9059cbb60e01b81529192506001600160a01b03169063a9059cbb90612b3290889086906004016136b7565b6020604051808303816000875af1158015612b51573d6000803e3d6000fd5b505050506040513d601f19601f82011682018060405250810190612b7591906136d0565b50606754835460405163a9059cbb60e01b81526001600160a01b039283169263a9059cbb92612bb2926101009091049091169085906004016136b7565b6020604051808303816000875af1158015612bd1573d6000803e3d6000fd5b505050506040513d601f19601f82011682018060405250810190612bf591906136d0565b5081836002016000828254612c0a9190613647565b9091555050825461010090046001600160a01b0316600090815260a0602052604081206002018054839290612c40908490613647565b925050819055508160706000828254612c599190613647565b925050819055508060706000828254612c729190613647565b90915550505050505050565b6001600160a01b038216600090815260a0602052604090206003810154612d2957805461010090046001600160a01b0316600090815260a060209081526040808320600390810154908501819055835260a19091528120600201805491612ce483613782565b90915550506003810154600090815260a1602090815260408220600501805460018101825590835291200180546001600160a01b0319166001600160a01b0385161790555b600380820154600090815260a1602052604081209182018054859290612d50908490613647565b9091555050607654600090815260078201602052604081208054859290612d78908490613647565b909155505060725460765460009081526007830160205260409020541115612dba57607654600090815260078201602052604090205460725560038201546073555b6067546040805163313ce56760e01b815290516000926001600160a01b03169163313ce5679160048083019260209291908290030181865afa158015612e04573d6000803e3d6000fd5b505050506040513d601f19601f82011682018060405250810190612e28919061379d565b612e3390600a6138a4565b609654612e4091906136ed565b8260030154612e4f919061370c565b9050600a811115612e5e5750600a5b608c546002830154600091612e729161370c565b9050600a811115612e815750600a5b80821415612ea057607c54612e9690836136ed565b6004840155612ec8565b80821015612eb557607c54612e9690836136ed565b607c54612ec290826136ed565b60048401555b603283600401541115612edd57603260048401555b505050505050565b60008184841115612f095760405162461bcd60e51b8152600401610c2c91906138b3565b506000612f168486613630565b95945050505050565b60008183612f405760405162461bcd60e51b8152600401610c2c91906138b3565b506000612f16848661370c565b6001600160a01b038116600090815260a0602052604081206075805491929091612f7690613782565b918290555060038201818155600091825260a1602052604090912080546001600160a01b0319166001600160a01b0385161781559054612fb59061300b565b8051612fcb916001840191602090910190613180565b506005810180546001810182556000918252602082200180546001600160a01b0319166001600160a01b03861617905560028201805491612aa583613782565b60606000613018836130a8565b600101905060008167ffffffffffffffff8111156130385761303861329a565b6040519080825280601f01601f191660200182016040528015613062576020820181803683370190505b5090508181016020015b600019016f181899199a1a9b1b9c1cb0b131b232b360811b600a86061a8153600a850494508461309b576130a0565b61306c565b509392505050565b60008072184f03e93ff9f4daa797ed6e38ed64bf6a1f0160401b83106130e75772184f03e93ff9f4daa797ed6e38ed64bf6a1f0160401b830492506040015b6d04ee2d6d415b85acef81000000008310613113576d04ee2d6d415b85acef8100000000830492506020015b662386f26fc10000831061313157662386f26fc10000830492506010015b6305f5e1008310613149576305f5e100830492506008015b612710831061315d57612710830492506004015b6064831061316f576064830492506002015b600a8310610d7f5760010192915050565b82805461318c90613747565b90600052602060002090601f0160209004810192826131ae57600085556131f4565b82601f106131c757805160ff19168380011785556131f4565b828001600101855582156131f4579182015b828111156131f45782518255916020019190600101906131d9565b50613200929150613204565b5090565b5b808211156132005760008155600101613205565b6000806040838503121561322c57600080fd5b50508035926020909101359150565b80356001600160a01b038116811461325257600080fd5b919050565b6000806040838503121561326a57600080fd5b6132738361323b565b946020939093013593505050565b60006020828403121561329357600080fd5b5035919050565b634e487b7160e01b600052604160045260246000fd5b60006101408083850312156132c457600080fd5b83601f8401126132d357600080fd5b60405181810181811067ffffffffffffffff821117156132f5576132f561329a565b60405290830190808583111561330a57600080fd5b845b8381101561332457803582526020918201910161330c565b509095945050505050565b60006020828403121561334157600080fd5b6124e88261323b565b60008060006060848603121561335f57600080fd5b6133688461323b565b92506133766020850161323b565b91506133846040850161323b565b90509250925092565b600080600080600060a086880312156133a557600080fd5b6133ae8661323b565b94506133bc6020870161323b565b93506133ca6040870161323b565b92506133d86060870161323b565b91506133e66080870161323b565b90509295509295909350565b6000815180845260005b81811015613418576020818501810151868301820152016133fc565b8181111561342a576000602083870101525b50601f01601f19169290920160200192915050565b6001600160a01b038616815260a060208201819052600090613463908301876133f2565b604083019590955250606081019290925260809091015292915050565b6000806000806080858703121561349657600080fd5b5050823594602084013594506040840135936060013592509050565b6000602082840312156134c457600080fd5b813567ffffffffffffffff808211156134dc57600080fd5b818401915084601f8301126134f057600080fd5b8135818111156135025761350261329a565b604051601f8201601f19908116603f0116810190838211818310171561352a5761352a61329a565b8160405282815287602084870101111561354357600080fd5b826020860160208301376000928101602001929092525095945050505050565b60008060008060008060c0878903121561357c57600080fd5b505084359660208601359650604086013595606081013595506080810135945060a0013592509050565b801515811461212457600080fd5b6000602082840312156135c657600080fd5b81356124e8816135a6565b600080604083850312156135e457600080fd5b6135ed8361323b565b91506135fb6020840161323b565b90509250929050565b634e487b7160e01b600052603260045260246000fd5b634e487b7160e01b600052601160045260246000fd5b6000828210156136425761364261361a565b500390565b6000821982111561365a5761365a61361a565b500190565b6020808252600f908201526e0aec2d2e840ccdee440d8c2eadcc6d608b1b604082015260600190565b60208082526015908201527441646d696e2068616c742077697468647261776c7360581b604082015260600190565b6001600160a01b03929092168252602082015260400190565b6000602082840312156136e257600080fd5b81516124e8816135a6565b60008160001904831182151516156137075761370761361a565b500290565b60008261372957634e487b7160e01b600052601260045260246000fd5b500490565b60006020828403121561374057600080fd5b5051919050565b600181811c9082168061375b57607f821691505b6020821081141561377c57634e487b7160e01b600052602260045260246000fd5b50919050565b60006000198214156137965761379661361a565b5060010190565b6000602082840312156137af57600080fd5b815160ff811681146124e857600080fd5b600181815b808511156137fb5781600019048211156137e1576137e161361a565b808516156137ee57918102915b93841c93908002906137c5565b509250929050565b60008261381257506001610d7f565b8161381f57506000610d7f565b8160018114613835576002811461383f5761385b565b6001915050610d7f565b60ff8411156138505761385061361a565b50506001821b610d7f565b5060208310610133831016604e8410600b841016171561387e575081810a610d7f565b61388883836137c0565b806000190482111561389c5761389c61361a565b029392505050565b60006124e860ff841683613803565b6020815260006124e860208301846133f256fea26469706673582212205d0df720e68f9dc0286f543ca1ba13a14577b43fe4caa51f580e6030479491fe64736f6c634300080a0033",
  "immutableReferences": {},
  "source": "/**\r\n               _  __          \r\n__      _____ | |/ _|         \r\n\\ \\ /\\ / / _ \\| | |_          \r\n \\ V  V / (_) | |  _|         \r\n  \\_/\\_/ \\___/|_|_|           \r\n                              \r\n                 _ _        _ \r\n  ___ __ _ _ __ (_) |_ __ _| |\r\n / __/ _` | '_ \\| | __/ _` | |\r\n| (_| (_| | |_) | | || (_| | |\r\n \\___\\__,_| .__/|_|\\__\\__,_|_|\r\n          |_|                 \r\n*/\r\n\r\n// SPDX-License-Identifier: MIT\r\npragma solidity 0.8.10;\r\n\r\n\r\nimport \"@openzeppelin/contracts-upgradeable/token/ERC20/extensions/IERC20MetadataUpgradeable.sol\";\r\nimport \"@openzeppelin/contracts-upgradeable/access/OwnableUpgradeable.sol\";\r\nimport \"@openzeppelin/contracts-upgradeable/utils/AddressUpgradeable.sol\";\r\nimport \"@openzeppelin/contracts-upgradeable/proxy/utils/Initializable.sol\";\r\n\r\ninterface IWolf {\r\n    function calculateReward(\r\n        address _user,\r\n        uint256 _index\r\n    ) external view returns (uint256 _reward);\r\n\r\n    function getUserInfo(\r\n        address _user\r\n    )\r\n        external\r\n        view\r\n        returns (\r\n            bool _isExists,\r\n            uint256 _stakeCount,\r\n            address _referrer,\r\n            uint256 _referrals,\r\n            uint256 _referralRewards,\r\n            uint256 _teamId,\r\n            uint256 _currentStaked,\r\n            uint256 _totalStaked,\r\n            uint256 _totalWithdrawan\r\n        );\r\n\r\n    function getUserTokenStakeInfo(\r\n        address _user,\r\n        uint256 _index\r\n    )\r\n        external\r\n        view\r\n        returns (\r\n            uint256 _amount,\r\n            uint256 _checkpoint,\r\n            uint256 _claimedReward,\r\n            uint256 _startTime,\r\n            bool _isActive\r\n        );\r\n\r\n    function getUserLotteryClaimedStatus(\r\n        address _user,\r\n        uint256 _week\r\n    ) external view returns (bool _status);\r\n\r\n    function getTeamInfo(\r\n        uint256 _teamId\r\n    )\r\n        external\r\n        view\r\n        returns (\r\n            address _Lead,\r\n            string memory _teamName,\r\n            uint256 _teamCount,\r\n            uint256 _teamAmount,\r\n            uint256 _currentPercent\r\n        );\r\n\r\n    function getAllTeamMembers(\r\n        uint256 _teamId,\r\n        uint256 _index\r\n    ) external view returns (address _teamMember);\r\n\r\n    function getTeamLotteryAmount(\r\n        uint256 _teamId,\r\n        uint256 _week\r\n    ) external view returns (uint256 _amount);\r\n\r\n    function getTeamWeeklyDepositAmount(\r\n        uint256 _teamId,\r\n        uint256 _week\r\n    ) external view returns (uint256 _amount);\r\n\r\n    function getWinnersHistory(\r\n        uint256 _week\r\n    ) external view returns (uint256 _team);\r\n}\r\n\r\ncontract WolfCapital6 is Initializable, OwnableUpgradeable {\r\n    using SafeMath for uint256;\r\n    IERC20MetadataUpgradeable public usdc;\r\n    IWolf public wolfV1;\r\n    address public ownerWallet;\r\n    address public marketingWallet;\r\n    address public developmentWallet1;\r\n    address public developmentWallet2;\r\n    address public multiSigWallet;\r\n\r\n    uint256 public totalStaked;\r\n    uint256 public totalWithdrawan;\r\n    uint256 public totalRefRewards;\r\n    uint256 public uniqueStakers;\r\n    uint256 public topDepositThisWeek;\r\n    uint256 public topTeamThisWeek;\r\n    uint256 public lotteryPool;\r\n    uint256 public uniqueTeamId;\r\n    uint256 public currentWeek;\r\n    uint256 public launchTime;\r\n    uint256 public haltAccStartTime;\r\n    uint256 public haltAccEndTime;\r\n    bool public haltDeposits;\r\n    bool public haltWithdraws;\r\n    bool public haltAccumulation;\r\n    bool public launched;\r\n\r\n    uint256 public basePercent;\r\n    uint256 public teamPercentMultiplier;\r\n    uint256 public ownerFeePercent;\r\n    uint256 public marketingFeePercent;\r\n    uint256 public dev1FeePercent;\r\n    uint256 public dev2FeePercent;\r\n    uint256 public lotteryFeePercent;\r\n    uint256 public lotteryPercent;\r\n    uint256 public referrerPercent;\r\n    uint256 public referralPercent;\r\n    uint256 public percentDivider;\r\n    uint256 public minDeposit;\r\n    uint256 public maxDeposit;\r\n    uint256 public timeStep;\r\n    uint256 public claimDuration;\r\n    uint256 public accumulationDuration;\r\n    uint256 public lockDuration;\r\n\r\nfunction initialize(uint256 _feePercent) public initializer {\r\n        wolfV1 = IWolf(0x4Bba559128f2630459655AD548A5b6e5F31d97f4);\r\n        usdc = IERC20MetadataUpgradeable(\r\n            0x8AC76a51cc950d9822D68b83fE1Ad97B32Cd580d\r\n        );\r\n        owner = 0x5886B6b942f8DaB2488961f603a4be8C3015A1A9;\r\n        dev = 0x7f35be372873e06c15DD7f9494A426ACab99C6De;\r\n        ownerWallet = owner;\r\n        marketingWallet = 0x57741A3F319D526F9DdBa1D181207C8bD06c2914;\r\n        developmentWallet1 = dev;\r\n        developmentWallet2 = 0x7DB1A2f972652020e8664005B6119F21A64C39B8;\r\n        multiSigWallet = 0x05c09F12e03a56FbC03EdB8acB2ef7933E1Ff45C;\r\n        basePercent = _feePercent;\r\n        teamPercentMultiplier = 10;\r\n        ownerFeePercent = 3_00;\r\n        marketingFeePercent = 4_00;\r\n        dev1FeePercent = 1_00;\r\n        dev2FeePercent = 1_00;\r\n        lotteryFeePercent = 1_00;\r\n        lotteryPercent = 30_00;\r\n        referrerPercent = 1_50;\r\n        referralPercent = 1_50;\r\n        percentDivider = 100_00;\r\n        minDeposit = 50e18;\r\n        maxDeposit = 100_000e18;\r\n        timeStep = 1 days;\r\n        claimDuration = 7 days;\r\n        accumulationDuration = 10 days;\r\n        lockDuration = 60 days;\r\n    }\r\n\r\n    \r\n    uint256[10] public requiredTeamUsers;\r\n    uint256[10] public requiredTeamAmount;\r\n\r\n    struct StakeData {\r\n        uint256 amount;\r\n        uint256 checkpoint;\r\n        uint256 claimedReward;\r\n        uint256 startTime;\r\n        bool isActive;\r\n    }\r\n\r\n    struct User {\r\n        bool isExists;\r\n        address referrer;\r\n        uint256 referrals;\r\n        uint256 referralRewards;\r\n        uint256 teamId;\r\n        uint256 stakeCount;\r\n        uint256 currentStaked;\r\n        uint256 totalStaked;\r\n        uint256 totalWithdrawan;\r\n    }\r\n\r\n    struct TeamData {\r\n        address Lead;\r\n        string teamName;\r\n        uint256 teamCount;\r\n        uint256 teamAmount;\r\n        uint256 currentPercent;\r\n        address[] teamMembers;\r\n        mapping(uint256 => uint256) lotteryAmount;\r\n        mapping(uint256 => uint256) weeklyDeposits;\r\n    }\r\n\r\n    mapping(address => User) internal users;\r\n    mapping(uint256 => TeamData) internal teams;\r\n    mapping(address => mapping(uint256 => StakeData)) internal userStakes;\r\n    mapping(address => mapping(uint256 => bool)) internal isLotteryClaimed;\r\n    mapping(uint256 => uint256) internal winnersHistory;\r\n    mapping(address => bool) internal isUserMigrated;\r\n    mapping(uint256 => bool) internal isTeamMigrated;\r\n\r\n    event STAKE(address Staker, uint256 amount);\r\n    event CLAIM(address Staker, uint256 amount);\r\n    event WITHDRAW(address Staker, uint256 amount);\r\n    event LOTTERY(\r\n        uint256 topTeamThisWeek,\r\n        uint256 lotteryAmount,\r\n        uint256 lastWeekTopDeposit\r\n    );\r\n\r\n    uint256 public currentStaked;\r\n    address public developmentWallet3;\r\n    uint256 public dev3FeePercent;\r\n    mapping(address => mapping(uint256 => uint256)) weeklyDeposits;\r\n\r\n    function updateWeekly() public {\r\n        if (currentWeek != calculateWeek()) {\r\n            checkForLotteryWinner();\r\n            currentWeek = calculateWeek();\r\n            topDepositThisWeek = 0;\r\n        }\r\n    }\r\n\r\n    function stake(address _referrer, uint256 _amount) public {\r\n        require(launched, \"Wait for launch\");\r\n        require(!haltDeposits, \"Admin halt deposits\");\r\n        updateWeekly();\r\n        User storage user = users[msg.sender];\r\n        require(_amount >= minDeposit, \"Amount less than min amount\");\r\n        require(\r\n            user.currentStaked + _amount <= maxDeposit,\r\n            \"Amount more than max amount\"\r\n        );\r\n        if (!user.isExists) {\r\n            user.isExists = true;\r\n            uniqueStakers++;\r\n        }\r\n\r\n        totalStaked += _amount;\r\n        usdc.transferFrom(msg.sender, address(this), _amount);\r\n        takeFee(_amount);\r\n        _amount = (_amount * 90) / 100;\r\n\r\n        StakeData storage userStake = userStakes[msg.sender][user.stakeCount];\r\n        userStake.amount = _amount;\r\n        userStake.startTime = block.timestamp;\r\n        userStake.checkpoint = block.timestamp;\r\n        userStake.isActive = true;\r\n        user.stakeCount++;\r\n        user.totalStaked += _amount;\r\n        user.currentStaked += _amount;\r\n        currentStaked += _amount;\r\n        weeklyDeposits[msg.sender][currentWeek] += _amount;\r\n\r\n        if (_referrer == msg.sender) {\r\n            _referrer = address(0);\r\n        }\r\n\r\n        if (user.referrer == address(0)) {\r\n            if (user.teamId == 0) {\r\n                setReferrer(msg.sender, _referrer);\r\n            }\r\n        }\r\n\r\n        if (user.referrer != address(0)) {\r\n            distributeRefReward(msg.sender, _amount);\r\n        }\r\n\r\n        updateTeam(msg.sender, _amount);\r\n\r\n        emit STAKE(msg.sender, _amount);\r\n    }\r\n\r\n    function setReferrer(address _user, address _referrer) private {\r\n        User storage user = users[_user];\r\n\r\n        if (_referrer == address(0)) {\r\n            createTeam(_user);\r\n        } else if (_referrer != _user) {\r\n            user.referrer = _referrer;\r\n        }\r\n\r\n        if (user.referrer != address(0)) {\r\n            users[user.referrer].referrals++;\r\n        }\r\n    }\r\n\r\n    function distributeRefReward(address _user, uint256 _amount) private {\r\n        User storage user = users[_user];\r\n\r\n        uint256 userRewards = _amount.mul(referralPercent).div(percentDivider);\r\n        uint256 refRewards = _amount.mul(referrerPercent).div(percentDivider);\r\n\r\n        usdc.transfer(_user, userRewards);\r\n        usdc.transfer(user.referrer, refRewards);\r\n\r\n        user.referralRewards += userRewards;\r\n        users[user.referrer].referralRewards += refRewards;\r\n        totalRefRewards += userRewards;\r\n        totalRefRewards += refRewards;\r\n    }\r\n\r\n    function createTeam(address _user) private {\r\n        User storage user = users[_user];\r\n        user.teamId = ++uniqueTeamId;\r\n        TeamData storage newTeam = teams[user.teamId];\r\n        newTeam.Lead = _user;\r\n        newTeam.teamName = Strings.toString(user.teamId);\r\n        newTeam.teamMembers.push(_user);\r\n        newTeam.teamCount++;\r\n    }\r\n\r\nfunction updateTeam(address _user, uint256 _amount) private {\r\n        User storage user = users[_user];\r\n\r\n        if (user.teamId == 0) {\r\n            user.teamId = users[user.referrer].teamId;\r\n            teams[user.teamId].teamCount++;\r\n            teams[user.teamId].teamMembers.push(_user);\r\n        }\r\n\r\n        TeamData storage team = teams[user.teamId];\r\n        team.teamAmount += _amount;\r\n        team.weeklyDeposits[currentWeek] += _amount;\r\n        if (team.weeklyDeposits[currentWeek] > topDepositThisWeek) {\r\n            topDepositThisWeek = team.weeklyDeposits[currentWeek];\r\n            topTeamThisWeek = user.teamId;\r\n        }\r\n\r\n        uint256 amountIndex = team.teamAmount /\r\n            (requiredTeamAmount[0] * 10 ** usdc.decimals());\r\n        if(amountIndex > requiredTeamAmount.length){\r\n            amountIndex = requiredTeamAmount.length;\r\n        }\r\n        uint256 countIndex = team.teamCount / requiredTeamUsers[0];\r\n        if(countIndex > requiredTeamUsers.length){\r\n            countIndex = requiredTeamUsers.length;\r\n        }\r\n        if (amountIndex == countIndex) {\r\n            team.currentPercent = amountIndex * teamPercentMultiplier;\r\n        } else if (amountIndex < countIndex) {\r\n            team.currentPercent = amountIndex * teamPercentMultiplier;\r\n        } else {\r\n            team.currentPercent = countIndex * teamPercentMultiplier;\r\n        }\r\n        if (team.currentPercent > 50) {\r\n            team.currentPercent = 50;\r\n        }\r\n    }\r\n\r\n    function takeFee(uint256 _amount) private {\r\n        usdc.transfer(\r\n            ownerWallet,\r\n            (_amount * ownerFeePercent) / percentDivider\r\n        );\r\n        usdc.transfer(\r\n            marketingWallet,\r\n            (_amount * marketingFeePercent) / percentDivider\r\n        );\r\n        usdc.transfer(\r\n            developmentWallet1,\r\n            (_amount * dev1FeePercent) / percentDivider\r\n        );\r\n        usdc.transfer(\r\n            developmentWallet2,\r\n            (_amount * dev2FeePercent) / percentDivider\r\n        );\r\n        usdc.transfer(\r\n            developmentWallet3,\r\n            (_amount * dev3FeePercent) / percentDivider\r\n        );\r\n        lotteryPool += (_amount * lotteryFeePercent) / percentDivider;\r\n    }\r\n\r\n    function claim(uint256 _index) public {\r\n        require(launched, \"Wait for launch\");\r\n        require(!haltWithdraws, \"Admin halt withdrawls\");\r\n        updateWeekly();\r\n        User storage user = users[msg.sender];\r\n        StakeData storage userStake = userStakes[msg.sender][_index];\r\n        require(_index < user.stakeCount, \"Invalid index\");\r\n        require(userStake.isActive, \"Already withdrawn\");\r\n        require(\r\n            block.timestamp >= userStake.checkpoint + claimDuration,\r\n            \"Wait for claim time\"\r\n        );\r\n        uint256 rewardAmount;\r\n        rewardAmount = calculateReward(msg.sender, _index);\r\n        require(rewardAmount > 0, \"Can't claim 0\");\r\n        usdc.transfer(msg.sender, rewardAmount);\r\n        userStake.checkpoint = block.timestamp;\r\n        userStake.claimedReward += rewardAmount;\r\n        user.totalWithdrawan += rewardAmount;\r\n        totalWithdrawan += rewardAmount;\r\n\r\n        emit CLAIM(msg.sender, rewardAmount);\r\n    }\r\n\r\n    function claimAll() public {\r\n        require(launched, \"Wait for launch\");\r\n        require(!haltWithdraws, \"Admin halt withdrawls\");\r\n        updateWeekly();\r\n\r\n        User storage user = users[msg.sender];\r\n        uint256 claimableReward;\r\n        for (uint i; i < user.stakeCount; i++) {\r\n            StakeData storage userStake = userStakes[msg.sender][i];\r\n            if (\r\n                userStake.isActive &&\r\n                block.timestamp >= userStake.checkpoint + claimDuration\r\n            ) {\r\n                uint256 rewardAmount;\r\n                rewardAmount = calculateReward(msg.sender, i);\r\n                userStake.checkpoint = block.timestamp;\r\n                userStake.claimedReward += rewardAmount;\r\n                claimableReward += rewardAmount;\r\n            }\r\n        }\r\n        require(claimableReward > 0, \"Can't claim 0\");\r\n        usdc.transfer(msg.sender, claimableReward);\r\n\r\n        user.totalWithdrawan += claimableReward;\r\n        totalWithdrawan += claimableReward;\r\n\r\n        emit CLAIM(msg.sender, claimableReward);\r\n    }\r\n\r\n    function withdraw(uint256 _index) public {\r\n        require(launched, \"Wait for launch\");\r\n        require(!haltWithdraws, \"Admin halt withdrawls\");\r\n        updateWeekly();\r\n\r\n        User storage user = users[msg.sender];\r\n        StakeData storage userStake = userStakes[msg.sender][_index];\r\n        require(_index < user.stakeCount, \"Invalid index\");\r\n        require(userStake.isActive, \"Already withdrawn\");\r\n        require(\r\n            block.timestamp >= userStake.startTime + lockDuration,\r\n            \"Wait for end time\"\r\n        );\r\n\r\n        usdc.transfer(msg.sender, userStake.amount);\r\n        userStake.isActive = false;\r\n        userStake.checkpoint = block.timestamp;\r\n        user.currentStaked -= userStake.amount;\r\n        currentStaked -= userStake.amount;\r\n        user.totalWithdrawan += userStake.amount;\r\n        totalWithdrawan += userStake.amount;\r\n\r\n        emit WITHDRAW(msg.sender, userStake.amount);\r\n    }\r\n\r\n    function checkForLotteryWinner() private {\r\n        uint256 lotteryAmount = (lotteryPool * lotteryPercent) / percentDivider;\r\n        teams[topTeamThisWeek].lotteryAmount[currentWeek] = lotteryAmount;\r\n        winnersHistory[currentWeek] = topTeamThisWeek;\r\n        lotteryPool -= lotteryAmount;\r\n\r\n        emit LOTTERY(topTeamThisWeek, lotteryAmount, topDepositThisWeek);\r\n    }\r\n\r\n    function claimLottery() public {\r\n        User storage user = users[msg.sender];\r\n        TeamData storage team = teams[user.teamId];\r\n\r\n        require(\r\n            !isLotteryClaimed[msg.sender][currentWeek - 1],\r\n            \"Already Claimed\"\r\n        );\r\n        require(team.lotteryAmount[currentWeek - 1] > 0, \"No reward to Claim\");\r\n        require(weeklyDeposits[msg.sender][currentWeek - 1] > 0,\"No reward to Claim\");\r\n\r\n        uint256 userShare = (weeklyDeposits[msg.sender][currentWeek - 1] * percentDivider) /\r\n            team.weeklyDeposits[currentWeek - 1];\r\n        usdc.transfer(\r\n            msg.sender,\r\n            (team.lotteryAmount[currentWeek - 1] * userShare) / percentDivider\r\n        );\r\n        isLotteryClaimed[msg.sender][currentWeek - 1] = true;\r\n    }\r\n\r\n    /**\r\n        Getter functions for Public\r\n     */\r\n\r\n    function calculateWeek() public view returns (uint256) {\r\n        return (block.timestamp - launchTime) / (7 * timeStep);\r\n    }\r\n\r\n    function calculateReward(\r\n        address _user,\r\n        uint256 _index\r\n    ) public view returns (uint256 _reward) {\r\n        if (haltAccumulation) return 0;\r\n        StakeData storage userStake = userStakes[_user][_index];\r\n        TeamData storage team = teams[users[_user].teamId];\r\n        uint256 rewardDuration = block.timestamp.sub(userStake.checkpoint);\r\n        if (userStake.checkpoint < haltAccStartTime) {\r\n            rewardDuration =\r\n                rewardDuration -\r\n                (haltAccEndTime - haltAccStartTime);\r\n        }\r\n        if (rewardDuration > accumulationDuration) {\r\n            rewardDuration = accumulationDuration;\r\n        }\r\n        _reward = userStake\r\n            .amount\r\n            .mul(rewardDuration)\r\n            .mul(basePercent + team.currentPercent)\r\n            .div(percentDivider.mul(timeStep));\r\n    }\r\n\r\n    function getUserInfo(\r\n        address _user\r\n    )\r\n        public\r\n        view\r\n        returns (\r\n            bool _isExists,\r\n            uint256 _stakeCount,\r\n            address _referrer,\r\n            uint256 _referrals,\r\n            uint256 _referralRewards,\r\n            uint256 _teamId,\r\n            uint256 _currentStaked,\r\n            uint256 _totalStaked,\r\n            uint256 _totalWithdrawan\r\n        )\r\n    {\r\n        User storage user = users[_user];\r\n        _isExists = user.isExists;\r\n        _stakeCount = user.stakeCount;\r\n        _referrer = user.referrer;\r\n        _referrals = user.referrals;\r\n        _referralRewards = user.referralRewards;\r\n        _teamId = user.teamId;\r\n        _currentStaked = user.currentStaked;\r\n        _totalStaked = user.totalStaked;\r\n        _totalWithdrawan = user.totalWithdrawan;\r\n    }\r\n\r\n    function getUserTokenStakeInfo(\r\n        address _user,\r\n        uint256 _index\r\n    )\r\n        public\r\n        view\r\n        returns (\r\n            uint256 _amount,\r\n            uint256 _checkpoint,\r\n            uint256 _claimedReward,\r\n            uint256 _startTime,\r\n            bool _isActive\r\n        )\r\n    {\r\n        StakeData storage userStake = userStakes[_user][_index];\r\n        _amount = userStake.amount;\r\n        _checkpoint = userStake.checkpoint;\r\n        _claimedReward = userStake.claimedReward;\r\n        _startTime = userStake.startTime;\r\n        _isActive = userStake.isActive;\r\n    }\r\n\r\n    function getUserWeeklyDepositAmount(\r\n        address _user,\r\n        uint256 _week\r\n    ) public view returns (uint256 _amount) {\r\n        _amount = weeklyDeposits[_user][_week];\r\n    }\r\n\r\n    function getUserLotteryClaimedStatus(\r\n        address _user,\r\n        uint256 _week\r\n    ) public view returns (bool _status) {\r\n        _status = isLotteryClaimed[_user][_week];\r\n    }\r\n\r\n    function getTeamInfo(\r\n        uint256 _teamId\r\n    )\r\n        public\r\n        view\r\n        returns (\r\n            address _Lead,\r\n            string memory _teamName,\r\n            uint256 _teamCount,\r\n            uint256 _teamAmount,\r\n            uint256 _currentPercent\r\n        )\r\n    {\r\n        TeamData storage team = teams[_teamId];\r\n        _Lead = team.Lead;\r\n        _teamName = team.teamName;\r\n        _teamCount = team.teamCount;\r\n        _teamAmount = team.teamAmount;\r\n        _currentPercent = team.currentPercent;\r\n    }\r\n\r\n    function getAllTeamMembers(\r\n        uint256 _teamId,\r\n        uint256 _index\r\n    ) public view returns (address _teamMember) {\r\n        _teamMember = teams[_teamId].teamMembers[_index];\r\n    }\r\n\r\n    function getTeamLotteryAmount(\r\n        uint256 _teamId,\r\n        uint256 _week\r\n    ) public view returns (uint256 _amount) {\r\n        _amount = teams[_teamId].lotteryAmount[_week];\r\n    }\r\n\r\n    function getTeamWeeklyDepositAmount(\r\n        uint256 _teamId,\r\n        uint256 _week\r\n    ) public view returns (uint256 _amount) {\r\n        _amount = teams[_teamId].weeklyDeposits[_week];\r\n    }\r\n\r\n    function getWinnersHistory(\r\n        uint256 _week\r\n    ) public view returns (uint256 _team) {\r\n        _team = winnersHistory[_week];\r\n    }\r\n\r\n    function getUserMigrationStatus(address _user) public view returns (bool) {\r\n        return isUserMigrated[_user];\r\n    }\r\n\r\n    function getTeamMigrationStatus(\r\n        uint256 _teamId\r\n    ) public view returns (bool) {\r\n        return isTeamMigrated[_teamId];\r\n    }\r\n\r\n    function getContractBalance() public view returns (uint256) {\r\n        return usdc.balanceOf(address(this));\r\n    }\r\n\r\n    /*\r\n        Setter functions For Owner\r\n    */\r\n\r\n    function migrateAllStateValues(\r\n        uint256 _value\r\n    ) external onlyOwner {\r\n        currentStaked = _value;\r\n    }\r\n\r\n    function launch() external onlyOwner {\r\n        require(!launched, \"Already launched\");\r\n        launched = true;\r\n        launchTime = block.timestamp;\r\n    }\r\n\r\n    function setHaltDeposits(bool _state) external onlyOwner {\r\n        haltDeposits = _state;\r\n    }\r\n\r\n    function setHaltWithdraws(bool _state) external onlyOwner {\r\n        haltWithdraws = _state;\r\n    }\r\n\r\n    function setHaltAccumulation(bool _state) external onlyOwner {\r\n        haltAccumulation = _state;\r\n        if (_state) {\r\n            haltAccStartTime = block.timestamp;\r\n        } else {\r\n            haltAccEndTime = block.timestamp;\r\n        }\r\n    }\r\n\r\n    function migrateFunds(address _token, uint256 _amount) external {\r\n        require(msg.sender == multiSigWallet, \"Not a multisig\");\r\n        IERC20MetadataUpgradeable(_token).transfer(owner, _amount);\r\n    }\r\n\r\n    function SetTeamName(string memory _name) external {\r\n        TeamData storage team = teams[users[msg.sender].teamId];\r\n        require(msg.sender == team.Lead, \"Not a leader\");\r\n        team.teamName = _name;\r\n    }\r\n\r\n    function SetDepositLimits(uint256 _min, uint256 _max) external onlyOwner {\r\n        minDeposit = _min;\r\n        maxDeposit = _max;\r\n    }\r\n\r\n    function setFeeWallets(\r\n        address _ownerWallet,\r\n        address _marketingWallet,\r\n        address _developmentWallet1,\r\n        address _developmentWallet2,\r\n        address _developmentWallet3\r\n    ) external onlyOwner {\r\n        ownerWallet = _ownerWallet;\r\n        marketingWallet = _marketingWallet;\r\n        developmentWallet1 = _developmentWallet1;\r\n        developmentWallet2 = _developmentWallet2;\r\n        developmentWallet3 = _developmentWallet3;\r\n    }\r\n\r\n    function setMultiSigWallet(address _newWallet) external {\r\n        require(msg.sender == multiSigWallet, \"Not a multisig\");\r\n        multiSigWallet = _newWallet;\r\n    }\r\n\r\n    function setContracts(\r\n        address _newToken,\r\n        address _oldWolf\r\n    ) external onlyOwner {\r\n        usdc = IERC20MetadataUpgradeable(_newToken);\r\n        wolfV1 = IWolf(_oldWolf);\r\n    }\r\n\r\n    function setBasePercent(\r\n        uint256 _basePercent,\r\n        uint256 _teamPercent\r\n    ) external onlyOwner {\r\n        basePercent = _basePercent;\r\n        teamPercentMultiplier = _teamPercent;\r\n    }\r\n\r\n    function setDurations(uint256 _1, uint256 _2, uint256 _3, uint256 _4) external onlyOwner {\r\n        timeStep = _1;\r\n        claimDuration = _2;\r\n        accumulationDuration = _3;\r\n        lockDuration = _4;\r\n    }\r\n\r\n    function setRequiredTeamAmount(uint256[10] memory _values) external onlyOwner {\r\n        requiredTeamAmount[0] = _values[0];\r\n        requiredTeamAmount[1] = _values[1];\r\n        requiredTeamAmount[2] = _values[2];\r\n        requiredTeamAmount[3] = _values[3];\r\n        requiredTeamAmount[4] = _values[4];\r\n        requiredTeamAmount[5] = _values[5];\r\n        requiredTeamAmount[6] = _values[6];\r\n        requiredTeamAmount[7] = _values[7];\r\n        requiredTeamAmount[8] = _values[8];\r\n        requiredTeamAmount[9] = _values[9];\r\n    }\r\n\r\n    function setRequiredTeamUsers(uint256[10] memory _values) external onlyOwner {\r\n        requiredTeamUsers[0] = _values[0];\r\n        requiredTeamUsers[1] = _values[1];\r\n        requiredTeamUsers[2] = _values[2];\r\n        requiredTeamUsers[3] = _values[3];\r\n        requiredTeamUsers[4] = _values[4];\r\n        requiredTeamUsers[5] = _values[5];\r\n        requiredTeamUsers[6] = _values[6];\r\n        requiredTeamUsers[7] = _values[7];\r\n        requiredTeamUsers[8] = _values[8];\r\n        requiredTeamUsers[9] = _values[9];\r\n    }\r\n\r\n    function changeFees(uint256 _1, uint256 _2, uint256 _3, uint256 _4, uint256 _5, uint256 _6) external onlyOwner{\r\n        marketingFeePercent = _1;\r\n        ownerFeePercent = _2;\r\n        lotteryFeePercent = _3;\r\n        dev1FeePercent = _4;\r\n        dev2FeePercent = _5;\r\n        dev3FeePercent = _6;\r\n    }\r\n    \r\n}\r\n\r\nlibrary Strings {\r\n    bytes16 private constant _SYMBOLS = \"0123456789abcdef\";\r\n\r\n    function toString(uint256 value) internal pure returns (string memory) {\r\n        unchecked {\r\n            uint256 length = log10(value) + 1;\r\n            string memory buffer = new string(length);\r\n            uint256 ptr;\r\n            /// @solidity memory-safe-assembly\r\n            assembly {\r\n                ptr := add(buffer, add(32, length))\r\n            }\r\n            while (true) {\r\n                ptr--;\r\n                /// @solidity memory-safe-assembly\r\n                assembly {\r\n                    mstore8(ptr, byte(mod(value, 10), _SYMBOLS))\r\n                }\r\n                value /= 10;\r\n                if (value == 0) break;\r\n            }\r\n            return buffer;\r\n        }\r\n    }\r\n\r\n    function log10(uint256 value) internal pure returns (uint256) {\r\n        uint256 result = 0;\r\n        unchecked {\r\n            if (value >= 10 ** 64) {\r\n                value /= 10 ** 64;\r\n                result += 64;\r\n            }\r\n            if (value >= 10 ** 32) {\r\n                value /= 10 ** 32;\r\n                result += 32;\r\n            }\r\n            if (value >= 10 ** 16) {\r\n                value /= 10 ** 16;\r\n                result += 16;\r\n            }\r\n            if (value >= 10 ** 8) {\r\n                value /= 10 ** 8;\r\n                result += 8;\r\n            }\r\n            if (value >= 10 ** 4) {\r\n                value /= 10 ** 4;\r\n                result += 4;\r\n            }\r\n            if (value >= 10 ** 2) {\r\n                value /= 10 ** 2;\r\n                result += 2;\r\n            }\r\n            if (value >= 10 ** 1) {\r\n                result += 1;\r\n            }\r\n        }\r\n        return result;\r\n    }\r\n}\r\n\r\nlibrary SafeMath {\r\n    function add(uint256 a, uint256 b) internal pure returns (uint256) {\r\n        uint256 c = a + b;\r\n        require(c >= a, \"SafeMath: addition overflow\");\r\n\r\n        return c;\r\n    }\r\n\r\n    function sub(uint256 a, uint256 b) internal pure returns (uint256) {\r\n        return sub(a, b, \"SafeMath: subtraction overflow\");\r\n    }\r\n\r\n    function sub(\r\n        uint256 a,\r\n        uint256 b,\r\n        string memory errorMessage\r\n    ) internal pure returns (uint256) {\r\n        require(b <= a, errorMessage);\r\n        uint256 c = a - b;\r\n\r\n        return c;\r\n    }\r\n\r\n    function mul(uint256 a, uint256 b) internal pure returns (uint256) {\r\n        // Gas optimization: this is cheaper than requiring 'a' not being zero, but the\r\n        // benefit is lost if 'b' is also tested.\r\n        // See: https://github.com/OpenZeppelin/openzeppelin-contracts/pull/522\r\n        if (a == 0) {\r\n            return 0;\r\n        }\r\n\r\n        uint256 c = a * b;\r\n        require(c / a == b, \"SafeMath: multiplication overflow\");\r\n\r\n        return c;\r\n    }\r\n\r\n    function div(uint256 a, uint256 b) internal pure returns (uint256) {\r\n        return div(a, b, \"SafeMath: division by zero\");\r\n    }\r\n\r\n    function div(\r\n        uint256 a,\r\n        uint256 b,\r\n        string memory errorMessage\r\n    ) internal pure returns (uint256) {\r\n        require(b > 0, errorMessage);\r\n        uint256 c = a / b;\r\n        // assert(a == b * c + a % b); // There is no case in which this doesn't hold\r\n\r\n        return c;\r\n    }\r\n\r\n    function mod(uint256 a, uint256 b) internal pure returns (uint256) {\r\n        return mod(a, b, \"SafeMath: modulo by zero\");\r\n    }\r\n\r\n    function mod(\r\n        uint256 a,\r\n        uint256 b,\r\n        string memory errorMessage\r\n    ) internal pure returns (uint256) {\r\n        require(b != 0, errorMessage);\r\n        return a % b;\r\n    }\r\n}",
  "sourcePath": "C:\\WolfCapital\\contracts\\WC7.sol",
  "compiler": {
    "name": "solc",
    "version": "0.8.10+commit.fc410830.Emscripten.clang"
  },
  "schemaVersion": "3.4.7",
  "updatedAt": "2023-05-23T11:00:08.586Z",
  "devdoc": {
    "kind": "dev",
    "methods": {
      "renounceOwnership()": {
        "details": "Leaves the contract without owner. It will not be possible to call `onlyOwner` functions anymore. Can only be called by the current owner. NOTE: Renouncing ownership will leave the contract without an owner, thereby removing any functionality that is only available to the owner."
      },
      "transferOwnership(address,address,address)": {
        "details": "Transfers ownership of the contract to a new account (`newOwner`). Can only be called by the current owner."
      }
    },
    "version": 1
  },
  "userdoc": {
    "kind": "user",
    "methods": {
      "calculateWeek()": {
        "notice": "Getter functions for Public"
      }
    },
    "version": 1
  }
}