{
  "contractName": "WolfCapital8",
  "abi": [
    {
      "anonymous": false,
      "inputs": [
        {
          "indexed": false,
          "internalType": "address",
          "name": "Staker",
          "type": "address"
        },
        {
          "indexed": false,
          "internalType": "uint256",
          "name": "amount",
          "type": "uint256"
        }
      ],
      "name": "CLAIM",
      "type": "event"
    },
    {
      "anonymous": false,
      "inputs": [
        {
          "indexed": false,
          "internalType": "uint8",
          "name": "version",
          "type": "uint8"
        }
      ],
      "name": "Initialized",
      "type": "event"
    },
    {
      "anonymous": false,
      "inputs": [
        {
          "indexed": false,
          "internalType": "uint256",
          "name": "topTeamThisWeek",
          "type": "uint256"
        },
        {
          "indexed": false,
          "internalType": "uint256",
          "name": "lotteryAmount",
          "type": "uint256"
        },
        {
          "indexed": false,
          "internalType": "uint256",
          "name": "lastWeekTopDeposit",
          "type": "uint256"
        }
      ],
      "name": "LOTTERY",
      "type": "event"
    },
    {
      "anonymous": false,
      "inputs": [
        {
          "indexed": true,
          "internalType": "address",
          "name": "previousOwner",
          "type": "address"
        },
        {
          "indexed": true,
          "internalType": "address",
          "name": "newOwner",
          "type": "address"
        }
      ],
      "name": "OwnershipTransferred",
      "type": "event"
    },
    {
      "anonymous": false,
      "inputs": [
        {
          "indexed": false,
          "internalType": "address",
          "name": "Staker",
          "type": "address"
        },
        {
          "indexed": false,
          "internalType": "uint256",
          "name": "amount",
          "type": "uint256"
        }
      ],
      "name": "STAKE",
      "type": "event"
    },
    {
      "anonymous": false,
      "inputs": [
        {
          "indexed": false,
          "internalType": "address",
          "name": "Staker",
          "type": "address"
        },
        {
          "indexed": false,
          "internalType": "uint256",
          "name": "amount",
          "type": "uint256"
        }
      ],
      "name": "WITHDRAW",
      "type": "event"
    },
    {
      "inputs": [],
      "name": "accumulationDuration",
      "outputs": [
        {
          "internalType": "uint256",
          "name": "",
          "type": "uint256"
        }
      ],
      "stateMutability": "view",
      "type": "function"
    },
    {
      "inputs": [],
      "name": "basePercent",
      "outputs": [
        {
          "internalType": "uint256",
          "name": "",
          "type": "uint256"
        }
      ],
      "stateMutability": "view",
      "type": "function"
    },
    {
      "inputs": [],
      "name": "claimDuration",
      "outputs": [
        {
          "internalType": "uint256",
          "name": "",
          "type": "uint256"
        }
      ],
      "stateMutability": "view",
      "type": "function"
    },
    {
      "inputs": [],
      "name": "currentStaked",
      "outputs": [
        {
          "internalType": "uint256",
          "name": "",
          "type": "uint256"
        }
      ],
      "stateMutability": "view",
      "type": "function"
    },
    {
      "inputs": [],
      "name": "currentWeek",
      "outputs": [
        {
          "internalType": "uint256",
          "name": "",
          "type": "uint256"
        }
      ],
      "stateMutability": "view",
      "type": "function"
    },
    {
      "inputs": [],
      "name": "dev",
      "outputs": [
        {
          "internalType": "address",
          "name": "",
          "type": "address"
        }
      ],
      "stateMutability": "view",
      "type": "function"
    },
    {
      "inputs": [],
      "name": "dev1FeePercent",
      "outputs": [
        {
          "internalType": "uint256",
          "name": "",
          "type": "uint256"
        }
      ],
      "stateMutability": "view",
      "type": "function"
    },
    {
      "inputs": [],
      "name": "dev2",
      "outputs": [
        {
          "internalType": "address",
          "name": "",
          "type": "address"
        }
      ],
      "stateMutability": "view",
      "type": "function"
    },
    {
      "inputs": [],
      "name": "dev2FeePercent",
      "outputs": [
        {
          "internalType": "uint256",
          "name": "",
          "type": "uint256"
        }
      ],
      "stateMutability": "view",
      "type": "function"
    },
    {
      "inputs": [],
      "name": "dev3FeePercent",
      "outputs": [
        {
          "internalType": "uint256",
          "name": "",
          "type": "uint256"
        }
      ],
      "stateMutability": "view",
      "type": "function"
    },
    {
      "inputs": [],
      "name": "developmentWallet1",
      "outputs": [
        {
          "internalType": "address",
          "name": "",
          "type": "address"
        }
      ],
      "stateMutability": "view",
      "type": "function"
    },
    {
      "inputs": [],
      "name": "developmentWallet2",
      "outputs": [
        {
          "internalType": "address",
          "name": "",
          "type": "address"
        }
      ],
      "stateMutability": "view",
      "type": "function"
    },
    {
      "inputs": [],
      "name": "developmentWallet3",
      "outputs": [
        {
          "internalType": "address",
          "name": "",
          "type": "address"
        }
      ],
      "stateMutability": "view",
      "type": "function"
    },
    {
      "inputs": [],
      "name": "haltAccEndTime",
      "outputs": [
        {
          "internalType": "uint256",
          "name": "",
          "type": "uint256"
        }
      ],
      "stateMutability": "view",
      "type": "function"
    },
    {
      "inputs": [],
      "name": "haltAccStartTime",
      "outputs": [
        {
          "internalType": "uint256",
          "name": "",
          "type": "uint256"
        }
      ],
      "stateMutability": "view",
      "type": "function"
    },
    {
      "inputs": [],
      "name": "haltAccumulation",
      "outputs": [
        {
          "internalType": "bool",
          "name": "",
          "type": "bool"
        }
      ],
      "stateMutability": "view",
      "type": "function"
    },
    {
      "inputs": [],
      "name": "haltDeposits",
      "outputs": [
        {
          "internalType": "bool",
          "name": "",
          "type": "bool"
        }
      ],
      "stateMutability": "view",
      "type": "function"
    },
    {
      "inputs": [],
      "name": "haltWithdraws",
      "outputs": [
        {
          "internalType": "bool",
          "name": "",
          "type": "bool"
        }
      ],
      "stateMutability": "view",
      "type": "function"
    },
    {
      "inputs": [],
      "name": "launchTime",
      "outputs": [
        {
          "internalType": "uint256",
          "name": "",
          "type": "uint256"
        }
      ],
      "stateMutability": "view",
      "type": "function"
    },
    {
      "inputs": [],
      "name": "launched",
      "outputs": [
        {
          "internalType": "bool",
          "name": "",
          "type": "bool"
        }
      ],
      "stateMutability": "view",
      "type": "function"
    },
    {
      "inputs": [],
      "name": "lockDuration",
      "outputs": [
        {
          "internalType": "uint256",
          "name": "",
          "type": "uint256"
        }
      ],
      "stateMutability": "view",
      "type": "function"
    },
    {
      "inputs": [],
      "name": "lotteryFeePercent",
      "outputs": [
        {
          "internalType": "uint256",
          "name": "",
          "type": "uint256"
        }
      ],
      "stateMutability": "view",
      "type": "function"
    },
    {
      "inputs": [],
      "name": "lotteryPercent",
      "outputs": [
        {
          "internalType": "uint256",
          "name": "",
          "type": "uint256"
        }
      ],
      "stateMutability": "view",
      "type": "function"
    },
    {
      "inputs": [],
      "name": "lotteryPool",
      "outputs": [
        {
          "internalType": "uint256",
          "name": "",
          "type": "uint256"
        }
      ],
      "stateMutability": "view",
      "type": "function"
    },
    {
      "inputs": [],
      "name": "marketingFeePercent",
      "outputs": [
        {
          "internalType": "uint256",
          "name": "",
          "type": "uint256"
        }
      ],
      "stateMutability": "view",
      "type": "function"
    },
    {
      "inputs": [],
      "name": "marketingWallet",
      "outputs": [
        {
          "internalType": "address",
          "name": "",
          "type": "address"
        }
      ],
      "stateMutability": "view",
      "type": "function"
    },
    {
      "inputs": [],
      "name": "maxDeposit",
      "outputs": [
        {
          "internalType": "uint256",
          "name": "",
          "type": "uint256"
        }
      ],
      "stateMutability": "view",
      "type": "function"
    },
    {
      "inputs": [],
      "name": "minDeposit",
      "outputs": [
        {
          "internalType": "uint256",
          "name": "",
          "type": "uint256"
        }
      ],
      "stateMutability": "view",
      "type": "function"
    },
    {
      "inputs": [],
      "name": "multiSigWallet",
      "outputs": [
        {
          "internalType": "address",
          "name": "",
          "type": "address"
        }
      ],
      "stateMutability": "view",
      "type": "function"
    },
    {
      "inputs": [],
      "name": "owner",
      "outputs": [
        {
          "internalType": "address",
          "name": "",
          "type": "address"
        }
      ],
      "stateMutability": "view",
      "type": "function"
    },
    {
      "inputs": [],
      "name": "ownerFeePercent",
      "outputs": [
        {
          "internalType": "uint256",
          "name": "",
          "type": "uint256"
        }
      ],
      "stateMutability": "view",
      "type": "function"
    },
    {
      "inputs": [],
      "name": "ownerWallet",
      "outputs": [
        {
          "internalType": "address",
          "name": "",
          "type": "address"
        }
      ],
      "stateMutability": "view",
      "type": "function"
    },
    {
      "inputs": [],
      "name": "percentDivider",
      "outputs": [
        {
          "internalType": "uint256",
          "name": "",
          "type": "uint256"
        }
      ],
      "stateMutability": "view",
      "type": "function"
    },
    {
      "inputs": [],
      "name": "referralPercent",
      "outputs": [
        {
          "internalType": "uint256",
          "name": "",
          "type": "uint256"
        }
      ],
      "stateMutability": "view",
      "type": "function"
    },
    {
      "inputs": [],
      "name": "referrerPercent",
      "outputs": [
        {
          "internalType": "uint256",
          "name": "",
          "type": "uint256"
        }
      ],
      "stateMutability": "view",
      "type": "function"
    },
    {
      "inputs": [],
      "name": "renounceOwnership",
      "outputs": [],
      "stateMutability": "nonpayable",
      "type": "function"
    },
    {
      "inputs": [
        {
          "internalType": "uint256",
          "name": "",
          "type": "uint256"
        }
      ],
      "name": "requiredTeamAmount",
      "outputs": [
        {
          "internalType": "uint256",
          "name": "",
          "type": "uint256"
        }
      ],
      "stateMutability": "view",
      "type": "function"
    },
    {
      "inputs": [
        {
          "internalType": "uint256",
          "name": "",
          "type": "uint256"
        }
      ],
      "name": "requiredTeamUsers",
      "outputs": [
        {
          "internalType": "uint256",
          "name": "",
          "type": "uint256"
        }
      ],
      "stateMutability": "view",
      "type": "function"
    },
    {
      "inputs": [],
      "name": "teamPercentMultiplier",
      "outputs": [
        {
          "internalType": "uint256",
          "name": "",
          "type": "uint256"
        }
      ],
      "stateMutability": "view",
      "type": "function"
    },
    {
      "inputs": [],
      "name": "timeStep",
      "outputs": [
        {
          "internalType": "uint256",
          "name": "",
          "type": "uint256"
        }
      ],
      "stateMutability": "view",
      "type": "function"
    },
    {
      "inputs": [],
      "name": "topDepositThisWeek",
      "outputs": [
        {
          "internalType": "uint256",
          "name": "",
          "type": "uint256"
        }
      ],
      "stateMutability": "view",
      "type": "function"
    },
    {
      "inputs": [],
      "name": "topTeamThisWeek",
      "outputs": [
        {
          "internalType": "uint256",
          "name": "",
          "type": "uint256"
        }
      ],
      "stateMutability": "view",
      "type": "function"
    },
    {
      "inputs": [],
      "name": "totalRefRewards",
      "outputs": [
        {
          "internalType": "uint256",
          "name": "",
          "type": "uint256"
        }
      ],
      "stateMutability": "view",
      "type": "function"
    },
    {
      "inputs": [],
      "name": "totalStaked",
      "outputs": [
        {
          "internalType": "uint256",
          "name": "",
          "type": "uint256"
        }
      ],
      "stateMutability": "view",
      "type": "function"
    },
    {
      "inputs": [],
      "name": "totalWithdrawan",
      "outputs": [
        {
          "internalType": "uint256",
          "name": "",
          "type": "uint256"
        }
      ],
      "stateMutability": "view",
      "type": "function"
    },
    {
      "inputs": [
        {
          "internalType": "address",
          "name": "newOwner",
          "type": "address"
        },
        {
          "internalType": "address",
          "name": "newDev",
          "type": "address"
        },
        {
          "internalType": "address",
          "name": "newDev2",
          "type": "address"
        }
      ],
      "name": "transferOwnership",
      "outputs": [],
      "stateMutability": "nonpayable",
      "type": "function"
    },
    {
      "inputs": [],
      "name": "uniqueStakers",
      "outputs": [
        {
          "internalType": "uint256",
          "name": "",
          "type": "uint256"
        }
      ],
      "stateMutability": "view",
      "type": "function"
    },
    {
      "inputs": [],
      "name": "uniqueTeamId",
      "outputs": [
        {
          "internalType": "uint256",
          "name": "",
          "type": "uint256"
        }
      ],
      "stateMutability": "view",
      "type": "function"
    },
    {
      "inputs": [],
      "name": "usdc",
      "outputs": [
        {
          "internalType": "contract IERC20MetadataUpgradeable",
          "name": "",
          "type": "address"
        }
      ],
      "stateMutability": "view",
      "type": "function"
    },
    {
      "inputs": [],
      "name": "wolfV1",
      "outputs": [
        {
          "internalType": "contract IWolf",
          "name": "",
          "type": "address"
        }
      ],
      "stateMutability": "view",
      "type": "function"
    },
    {
      "inputs": [
        {
          "internalType": "address",
          "name": "newDev",
          "type": "address"
        },
        {
          "internalType": "uint256",
          "name": "value",
          "type": "uint256"
        }
      ],
      "name": "initialize",
      "outputs": [],
      "stateMutability": "nonpayable",
      "type": "function"
    },
    {
      "inputs": [],
      "name": "updateWeekly",
      "outputs": [],
      "stateMutability": "nonpayable",
      "type": "function"
    },
    {
      "inputs": [
        {
          "internalType": "address",
          "name": "_referrer",
          "type": "address"
        },
        {
          "internalType": "uint256",
          "name": "_amount",
          "type": "uint256"
        }
      ],
      "name": "stake",
      "outputs": [],
      "stateMutability": "nonpayable",
      "type": "function"
    },
    {
      "inputs": [
        {
          "internalType": "uint256",
          "name": "_index",
          "type": "uint256"
        }
      ],
      "name": "claim",
      "outputs": [],
      "stateMutability": "nonpayable",
      "type": "function"
    },
    {
      "inputs": [],
      "name": "claimAll",
      "outputs": [],
      "stateMutability": "nonpayable",
      "type": "function"
    },
    {
      "inputs": [
        {
          "internalType": "uint256",
          "name": "_index",
          "type": "uint256"
        }
      ],
      "name": "withdraw",
      "outputs": [],
      "stateMutability": "nonpayable",
      "type": "function"
    },
    {
      "inputs": [],
      "name": "claimLottery",
      "outputs": [],
      "stateMutability": "nonpayable",
      "type": "function"
    },
    {
      "inputs": [],
      "name": "calculateWeek",
      "outputs": [
        {
          "internalType": "uint256",
          "name": "",
          "type": "uint256"
        }
      ],
      "stateMutability": "view",
      "type": "function"
    },
    {
      "inputs": [
        {
          "internalType": "address",
          "name": "_user",
          "type": "address"
        },
        {
          "internalType": "uint256",
          "name": "_index",
          "type": "uint256"
        }
      ],
      "name": "calculateReward",
      "outputs": [
        {
          "internalType": "uint256",
          "name": "_reward",
          "type": "uint256"
        }
      ],
      "stateMutability": "view",
      "type": "function"
    },
    {
      "inputs": [
        {
          "internalType": "address",
          "name": "_user",
          "type": "address"
        }
      ],
      "name": "getUserInfo",
      "outputs": [
        {
          "internalType": "bool",
          "name": "_isExists",
          "type": "bool"
        },
        {
          "internalType": "uint256",
          "name": "_stakeCount",
          "type": "uint256"
        },
        {
          "internalType": "address",
          "name": "_referrer",
          "type": "address"
        },
        {
          "internalType": "uint256",
          "name": "_referrals",
          "type": "uint256"
        },
        {
          "internalType": "uint256",
          "name": "_referralRewards",
          "type": "uint256"
        },
        {
          "internalType": "uint256",
          "name": "_teamId",
          "type": "uint256"
        },
        {
          "internalType": "uint256",
          "name": "_currentStaked",
          "type": "uint256"
        },
        {
          "internalType": "uint256",
          "name": "_totalStaked",
          "type": "uint256"
        },
        {
          "internalType": "uint256",
          "name": "_totalWithdrawan",
          "type": "uint256"
        }
      ],
      "stateMutability": "view",
      "type": "function"
    },
    {
      "inputs": [
        {
          "internalType": "address",
          "name": "_user",
          "type": "address"
        },
        {
          "internalType": "uint256",
          "name": "_index",
          "type": "uint256"
        }
      ],
      "name": "getUserTokenStakeInfo",
      "outputs": [
        {
          "internalType": "uint256",
          "name": "_amount",
          "type": "uint256"
        },
        {
          "internalType": "uint256",
          "name": "_checkpoint",
          "type": "uint256"
        },
        {
          "internalType": "uint256",
          "name": "_claimedReward",
          "type": "uint256"
        },
        {
          "internalType": "uint256",
          "name": "_startTime",
          "type": "uint256"
        },
        {
          "internalType": "bool",
          "name": "_isActive",
          "type": "bool"
        }
      ],
      "stateMutability": "view",
      "type": "function"
    },
    {
      "inputs": [
        {
          "internalType": "address",
          "name": "_user",
          "type": "address"
        },
        {
          "internalType": "uint256",
          "name": "_week",
          "type": "uint256"
        }
      ],
      "name": "getUserWeeklyDepositAmount",
      "outputs": [
        {
          "internalType": "uint256",
          "name": "_amount",
          "type": "uint256"
        }
      ],
      "stateMutability": "view",
      "type": "function"
    },
    {
      "inputs": [
        {
          "internalType": "address",
          "name": "_user",
          "type": "address"
        },
        {
          "internalType": "uint256",
          "name": "_week",
          "type": "uint256"
        }
      ],
      "name": "getUserLotteryClaimedStatus",
      "outputs": [
        {
          "internalType": "bool",
          "name": "_status",
          "type": "bool"
        }
      ],
      "stateMutability": "view",
      "type": "function"
    },
    {
      "inputs": [
        {
          "internalType": "uint256",
          "name": "_teamId",
          "type": "uint256"
        }
      ],
      "name": "getTeamInfo",
      "outputs": [
        {
          "internalType": "address",
          "name": "_Lead",
          "type": "address"
        },
        {
          "internalType": "string",
          "name": "_teamName",
          "type": "string"
        },
        {
          "internalType": "uint256",
          "name": "_teamCount",
          "type": "uint256"
        },
        {
          "internalType": "uint256",
          "name": "_teamAmount",
          "type": "uint256"
        },
        {
          "internalType": "uint256",
          "name": "_currentPercent",
          "type": "uint256"
        }
      ],
      "stateMutability": "view",
      "type": "function"
    },
    {
      "inputs": [
        {
          "internalType": "uint256",
          "name": "_teamId",
          "type": "uint256"
        },
        {
          "internalType": "uint256",
          "name": "_index",
          "type": "uint256"
        }
      ],
      "name": "getAllTeamMembers",
      "outputs": [
        {
          "internalType": "address",
          "name": "_teamMember",
          "type": "address"
        }
      ],
      "stateMutability": "view",
      "type": "function"
    },
    {
      "inputs": [
        {
          "internalType": "uint256",
          "name": "_teamId",
          "type": "uint256"
        },
        {
          "internalType": "uint256",
          "name": "_week",
          "type": "uint256"
        }
      ],
      "name": "getTeamLotteryAmount",
      "outputs": [
        {
          "internalType": "uint256",
          "name": "_amount",
          "type": "uint256"
        }
      ],
      "stateMutability": "view",
      "type": "function"
    },
    {
      "inputs": [
        {
          "internalType": "uint256",
          "name": "_teamId",
          "type": "uint256"
        },
        {
          "internalType": "uint256",
          "name": "_week",
          "type": "uint256"
        }
      ],
      "name": "getTeamWeeklyDepositAmount",
      "outputs": [
        {
          "internalType": "uint256",
          "name": "_amount",
          "type": "uint256"
        }
      ],
      "stateMutability": "view",
      "type": "function"
    },
    {
      "inputs": [
        {
          "internalType": "uint256",
          "name": "_week",
          "type": "uint256"
        }
      ],
      "name": "getWinnersHistory",
      "outputs": [
        {
          "internalType": "uint256",
          "name": "_team",
          "type": "uint256"
        }
      ],
      "stateMutability": "view",
      "type": "function"
    },
    {
      "inputs": [
        {
          "internalType": "address",
          "name": "_user",
          "type": "address"
        }
      ],
      "name": "getUserMigrationStatus",
      "outputs": [
        {
          "internalType": "bool",
          "name": "",
          "type": "bool"
        }
      ],
      "stateMutability": "view",
      "type": "function"
    },
    {
      "inputs": [
        {
          "internalType": "uint256",
          "name": "_teamId",
          "type": "uint256"
        }
      ],
      "name": "getTeamMigrationStatus",
      "outputs": [
        {
          "internalType": "bool",
          "name": "",
          "type": "bool"
        }
      ],
      "stateMutability": "view",
      "type": "function"
    },
    {
      "inputs": [],
      "name": "getContractBalance",
      "outputs": [
        {
          "internalType": "uint256",
          "name": "",
          "type": "uint256"
        }
      ],
      "stateMutability": "view",
      "type": "function"
    },
    {
      "inputs": [
        {
          "internalType": "uint256",
          "name": "_value",
          "type": "uint256"
        }
      ],
      "name": "setValue",
      "outputs": [],
      "stateMutability": "nonpayable",
      "type": "function"
    },
    {
      "inputs": [],
      "name": "launch",
      "outputs": [],
      "stateMutability": "nonpayable",
      "type": "function"
    },
    {
      "inputs": [
        {
          "internalType": "bool",
          "name": "_state",
          "type": "bool"
        }
      ],
      "name": "setHaltDeposits",
      "outputs": [],
      "stateMutability": "nonpayable",
      "type": "function"
    },
    {
      "inputs": [
        {
          "internalType": "bool",
          "name": "_state",
          "type": "bool"
        }
      ],
      "name": "setHaltWithdraws",
      "outputs": [],
      "stateMutability": "nonpayable",
      "type": "function"
    },
    {
      "inputs": [
        {
          "internalType": "bool",
          "name": "_state",
          "type": "bool"
        }
      ],
      "name": "setHaltAccumulation",
      "outputs": [],
      "stateMutability": "nonpayable",
      "type": "function"
    },
    {
      "inputs": [
        {
          "internalType": "address",
          "name": "_token",
          "type": "address"
        },
        {
          "internalType": "uint256",
          "name": "_amount",
          "type": "uint256"
        }
      ],
      "name": "migrateFunds",
      "outputs": [],
      "stateMutability": "nonpayable",
      "type": "function"
    },
    {
      "inputs": [
        {
          "internalType": "string",
          "name": "_name",
          "type": "string"
        }
      ],
      "name": "SetTeamName",
      "outputs": [],
      "stateMutability": "nonpayable",
      "type": "function"
    },
    {
      "inputs": [
        {
          "internalType": "uint256",
          "name": "_min",
          "type": "uint256"
        },
        {
          "internalType": "uint256",
          "name": "_max",
          "type": "uint256"
        }
      ],
      "name": "SetDepositLimits",
      "outputs": [],
      "stateMutability": "nonpayable",
      "type": "function"
    },
    {
      "inputs": [
        {
          "internalType": "address",
          "name": "_ownerWallet",
          "type": "address"
        },
        {
          "internalType": "address",
          "name": "_marketingWallet",
          "type": "address"
        },
        {
          "internalType": "address",
          "name": "_developmentWallet1",
          "type": "address"
        },
        {
          "internalType": "address",
          "name": "_developmentWallet2",
          "type": "address"
        },
        {
          "internalType": "address",
          "name": "_developmentWallet3",
          "type": "address"
        }
      ],
      "name": "setFeeWallets",
      "outputs": [],
      "stateMutability": "nonpayable",
      "type": "function"
    },
    {
      "inputs": [
        {
          "internalType": "address",
          "name": "_newWallet",
          "type": "address"
        }
      ],
      "name": "setMultiSigWallet",
      "outputs": [],
      "stateMutability": "nonpayable",
      "type": "function"
    },
    {
      "inputs": [
        {
          "internalType": "address",
          "name": "_newToken",
          "type": "address"
        },
        {
          "internalType": "address",
          "name": "_oldWolf",
          "type": "address"
        }
      ],
      "name": "setContracts",
      "outputs": [],
      "stateMutability": "nonpayable",
      "type": "function"
    },
    {
      "inputs": [
        {
          "internalType": "uint256",
          "name": "_basePercent",
          "type": "uint256"
        },
        {
          "internalType": "uint256",
          "name": "_teamPercent",
          "type": "uint256"
        }
      ],
      "name": "setBasePercent",
      "outputs": [],
      "stateMutability": "nonpayable",
      "type": "function"
    },
    {
      "inputs": [
        {
          "internalType": "uint256",
          "name": "_1",
          "type": "uint256"
        },
        {
          "internalType": "uint256",
          "name": "_2",
          "type": "uint256"
        },
        {
          "internalType": "uint256",
          "name": "_3",
          "type": "uint256"
        },
        {
          "internalType": "uint256",
          "name": "_4",
          "type": "uint256"
        }
      ],
      "name": "setDurations",
      "outputs": [],
      "stateMutability": "nonpayable",
      "type": "function"
    },
    {
      "inputs": [
        {
          "internalType": "uint256[10]",
          "name": "_values",
          "type": "uint256[10]"
        }
      ],
      "name": "setRequiredTeamAmount",
      "outputs": [],
      "stateMutability": "nonpayable",
      "type": "function"
    },
    {
      "inputs": [
        {
          "internalType": "uint256[10]",
          "name": "_values",
          "type": "uint256[10]"
        }
      ],
      "name": "setRequiredTeamUsers",
      "outputs": [],
      "stateMutability": "nonpayable",
      "type": "function"
    }
  ],
  "bytecode": "0x608060405234801561001057600080fd5b5061386f806100206000396000f3fe608060405234801561001057600080fd5b50600436106104c25760003560e01c80636f9fb98a11610278578063adc9772e1161015c578063d8952a49116100ce578063eb33733b11610092578063eb33733b14610b73578063ec99720d14610b7c578063ef646daf14610b8f578063f03b0c0b14610b98578063fdc8b64714610bab578063fe6f1b0514610bb457600080fd5b8063d8952a4914610b32578063da6fa55c14610b45578063daceb20514610b4e578063e41cb93f14610b57578063e937b47814610b6057600080fd5b8063cd6dc68711610120578063cd6dc68714610ad5578063cdd5f2d814610ae8578063d008043114610afb578063d1058e5914610b04578063d4f03b9014610b0c578063d6dbf05714610b1f57600080fd5b8063adc9772e14610a94578063bc17d55d14610aa7578063bfe0e02014610aba578063c5ac0ded14610ac3578063c981500514610acc57600080fd5b80638da5cb5b116101f55780639b6057b1116101b95780639b6057b114610a24578063a301ba6f14610a50578063a443c6e414610a5d578063a607232814610a70578063a9c117f714610a78578063ab1a4d9414610a8b57600080fd5b80638da5cb5b146109b457806391cca3db146109c75780639335dcb7146109da578063969215ba146109ed57806399707a7b14610a1157600080fd5b80638013f3a71161023c5780638013f3a7146109425780638091f3bf14610955578063817b1cd21461096957806388832137146109725780638c74945e1461098557600080fd5b80636f9fb98a1461090d578063715018a61461091557806375f0a8741461091d578063790ca413146109305780637c356df81461093957600080fd5b806346eeaa3f116103aa57806358e1eaaf1161031c57806363b996c5116102e057806363b996c5146108ba5780636615d437146108cd578063695464e9146108d55780636998de35146108de5780636b760a94146108e75780636c9af74a146108fa57600080fd5b806358e1eaaf146107ce5780635b8f1e4a146107d75780636083e59a146107ea578063636d98b1146107f35780636386c1c7146107fc57600080fd5b80634ed6575f1161036e5780634ed6575f1461076557806350d67b3c1461076d5780635524107714610776578063562943d11461078957806357e09eeb1461079c57806357eb981a146107bc57600080fd5b806346eeaa3f146106875780634b8feb4f146106aa5780634d77b701146106bd5780634dfcae3e1461073f5780634e486b1c1461075257600080fd5b80632c83163311610443578063379607f511610407578063379607f5146106335780633ab9c84b146106465780633e413bee1461065957806341680f7d1461066c57806341b3d18514610675578063429b2be71461067e57600080fd5b80632c831633146105915780632e1a7d4d1461059a57806331fe3448146105ad578063343dfb7e146105f557806334deb8fd146105fe57600080fd5b80631502906d1161048a5780631502906d1461052a5780631852e8d914610533578063196f9cdd146105465780631b94eaaf146105755780632ab463fb1461058857600080fd5b806301339c21146104c757806304554443146104d157806306575c89146104ed5780630b0bb594146104f657806310db930d14610521575b600080fd5b6104cf610bbd565b005b6104da608b5481565b6040519081526020015b60405180910390f35b6104da60765481565b610509610504366004613184565b610c30565b6040516001600160a01b0390911681526020016104e4565b6104da607f5481565b6104da60885481565b6104da6105413660046131c2565b610c6f565b6104da610554366004613184565b600091825260a1602090815260408084209284526006909201905290205490565b606c54610509906001600160a01b031681565b6104da60815481565b6104da60745481565b6104cf6105a83660046131ec565b610d67565b6105e56105bb3660046131c2565b6001600160a01b03909116600090815260a360209081526040808320938352929052205460ff1690565b60405190151581526020016104e4565b6104da60845481565b6104da61060c3660046131c2565b6001600160a01b03909116600090815260aa60209081526040808320938352929052205490565b6104cf6106413660046131ec565b610ff3565b6104cf61065436600461321b565b6112aa565b606754610509906001600160a01b031681565b6104da60755481565b6104da60865481565b6104da60785481565b6105e56106953660046131ec565b600090815260a6602052604090205460ff1690565b606d54610509906001600160a01b031681565b6107156106cb3660046131c2565b6001600160a01b03909116600090815260a260209081526040808320938352929052208054600182015460028301546003840154600490940154929491939092909160ff90911690565b6040805195865260208601949094529284019190915260608301521515608082015260a0016104e4565b6104cf61074d36600461321b565b611302565b6104cf610760366004613184565b61135a565b6104cf61136d565b6104da60725481565b6104cf6107843660046131ec565b611398565b607a546105e59062010000900460ff1681565b6104da6107aa3660046131ec565b600090815260a4602052604090205490565b607a546105e590610100900460ff1681565b6104da60805481565b606b54610509906001600160a01b031681565b6104da60875481565b6104da60835481565b61086661080a36600461329a565b6001600160a01b03908116600090815260a060205260409020805460048201546001830154600284015460038501546005860154600687015460079097015460ff87169995986101009097049096169693959294919390929091565b604080519915158a5260208a01989098526001600160a01b03909616968801969096526060870193909352608086019190915260a085015260c084015260e0830191909152610100820152610120016104e4565b6104da6108c83660046131ec565b6113a5565b6104da6113bc565b6104da60a75481565b6104da607d5481565b6104cf6108f53660046132b5565b6113e9565b6104cf6109083660046132f8565b611466565b6104da6114cd565b6104cf61153a565b606a54610509906001600160a01b031681565b6104da60775481565b6104da60715481565b603554610509906001600160a01b031681565b607a546105e5906301000000900460ff1681565b6104da606e5481565b6104da6109803660046131ec565b61154f565b6104da610993366004613184565b600091825260a1602090815260408084209284526007909201905290205490565b603354610509906001600160a01b031681565b603454610509906001600160a01b031681565b606954610509906001600160a01b031681565b610a006109fb3660046131ec565b61155f565b6040516104e49594939291906133aa565b6104cf610a1f3660046133eb565b611633565b6105e5610a3236600461329a565b6001600160a01b0316600090815260a5602052604090205460ff1690565b607a546105e59060ff1681565b6104cf610a6b36600461341d565b61164f565b6104cf6116ce565b6104cf610a863660046131c2565b6119c3565b6104da60895481565b6104cf610aa23660046131c2565b611a85565b6104cf610ab5366004613184565b611e0e565b6104da60705481565b6104da607b5481565b6104da60795481565b6104cf610ae33660046131c2565b611e21565b606854610509906001600160a01b031681565b6104da606f5481565b6104cf611f4b565b60a854610509906001600160a01b031681565b6104cf610b2d3660046134dc565b61217f565b6104cf610b403660046134f9565b6121a1565b6104da607e5481565b6104da60735481565b6104da60a95481565b6104cf610b6e3660046134dc565b6121d7565b6104da607c5481565b6104cf610b8a3660046134dc565b61220e565b6104da608a5481565b6104cf610ba636600461329a565b612229565b6104da60825481565b6104da60855481565b610bc5612296565b607a546301000000900460ff1615610c175760405162461bcd60e51b815260206004820152601060248201526f105b1c9958591e481b185d5b98da195960821b60448201526064015b60405180910390fd5b607a805463ff0000001916630100000017905542607755565b600082815260a160205260408120600501805483908110610c5357610c5361352c565b6000918252602090912001546001600160a01b03169392505050565b607a5460009062010000900460ff1615610c8b57506000610d61565b6001600160a01b038316600081815260a260209081526040808320868452825280832093835260a0825280832060030154835260a190915281206001830154909190610cd890429061231a565b905060785483600101541015610d0557607854607954610cf89190613558565b610d029082613558565b90505b608a54811115610d145750608a545b610d5b610d2e60885460855461236390919063ffffffff16565b610d558460040154607b54610d43919061356f565b8654610d4f9086612363565b90612363565b906123e2565b93505050505b92915050565b607a546301000000900460ff16610d905760405162461bcd60e51b8152600401610c0e90613587565b607a54610100900460ff1615610db85760405162461bcd60e51b8152600401610c0e906135b0565b610dc061136d565b33600090815260a06020908152604080832060a2835281842085855290925290912060048201548310610e255760405162461bcd60e51b815260206004820152600d60248201526c092dcecc2d8d2c840d2dcc8caf609b1b6044820152606401610c0e565b600481015460ff16610e6d5760405162461bcd60e51b815260206004820152601160248201527020b63932b0b23c903bb4ba34323930bbb760791b6044820152606401610c0e565b608b548160030154610e7f919061356f565b421015610ec25760405162461bcd60e51b81526020600482015260116024820152705761697420666f7220656e642074696d6560781b6044820152606401610c0e565b606754815460405163a9059cbb60e01b81526001600160a01b039092169163a9059cbb91610ef5913391906004016135df565b6020604051808303816000875af1158015610f14573d6000803e3d6000fd5b505050506040513d601f19601f82011682018060405250810190610f3891906135f8565b5060048101805460ff191690554260018201558054600583018054600090610f61908490613558565b9091555050805460a78054600090610f7a908490613558565b90915550508054600783018054600090610f9590849061356f565b90915550508054606f8054600090610fae90849061356f565b909155505080546040517f4f14ea4e43cc569e4fb4d8fa171366f2f6925bfade37c5cc93334e373a4c984791610fe6913391906135df565b60405180910390a1505050565b607a546301000000900460ff1661101c5760405162461bcd60e51b8152600401610c0e90613587565b607a54610100900460ff16156110445760405162461bcd60e51b8152600401610c0e906135b0565b61104c61136d565b33600090815260a06020908152604080832060a28352818420858552909252909120600482015483106110b15760405162461bcd60e51b815260206004820152600d60248201526c092dcecc2d8d2c840d2dcc8caf609b1b6044820152606401610c0e565b600481015460ff166110f95760405162461bcd60e51b815260206004820152601160248201527020b63932b0b23c903bb4ba34323930bbb760791b6044820152606401610c0e565b608954816001015461110b919061356f565b4210156111505760405162461bcd60e51b81526020600482015260136024820152725761697420666f7220636c61696d2074696d6560681b6044820152606401610c0e565b600061115c3385610c6f565b90506000811161119e5760405162461bcd60e51b815260206004820152600d60248201526c043616e277420636c61696d203609c1b6044820152606401610c0e565b60675460405163a9059cbb60e01b81526001600160a01b039091169063a9059cbb906111d090339085906004016135df565b6020604051808303816000875af11580156111ef573d6000803e3d6000fd5b505050506040513d601f19601f8201168201806040525081019061121391906135f8565b5042826001018190555080826002016000828254611231919061356f565b925050819055508083600701600082825461124c919061356f565b9250508190555080606f6000828254611265919061356f565b90915550506040517fcea16a2d83554574def1edf3ec1fb53f1373f7ebb1fa98fecdaa4268588793cc9061129c90339084906135df565b60405180910390a150505050565b6112b2612296565b8051608c556020810151608d556040810151608e556060810151608f55608081015160905560a081015160915560c081015160925560e08101516093556101008101516094556101200151609555565b61130a612296565b80516096556020810151609755604081015160985560608101516099556080810151609a5560a0810151609b5560c0810151609c5560e0810151609d55610100810151609e556101200151609f55565b611362612296565b607b91909155607c55565b6113756113bc565b6076541461139657611385612424565b61138d6113bc565b60765560006072555b565b6113a0612296565b60a755565b608c81600a81106113b557600080fd5b0154905081565b600060885460076113cd9190613615565b6077546113da9042613558565b6113e49190613634565b905090565b6113f1612296565b6001600160a01b0383166114565760405162461bcd60e51b815260206004820152602660248201527f4f776e61626c653a206e6577206f776e657220697320746865207a65726f206160448201526564647265737360d01b6064820152608401610c0e565b6114618383836124df565b505050565b61146e612296565b606980546001600160a01b03199081166001600160a01b0397881617909155606a8054821695871695909517909455606b8054851693861693909317909255606c8054841691851691909117905560a880549092169216919091179055565b6067546040516370a0823160e01b81523060048201526000916001600160a01b0316906370a0823190602401602060405180830381865afa158015611516573d6000803e3d6000fd5b505050506040513d601f19601f820116820180604052508101906113e49190613656565b611542612296565b61139660008060006124df565b609681600a81106113b557600080fd5b600081815260a16020526040812080546001820180546001600160a01b0390921693606093909283928392916115949061366f565b80601f01602080910402602001604051908101604052809291908181526020018280546115c09061366f565b801561160d5780601f106115e25761010080835404028352916020019161160d565b820191906000526020600020905b8154815290600101906020018083116115f057829003601f168201915b505050505094508060020154935080600301549250806004015491505091939590929450565b61163b612296565b608893909355608991909155608a55608b55565b33600081815260a06020908152604080832060030154835260a19091529020805490916001600160a01b03909116146116b95760405162461bcd60e51b815260206004820152600c60248201526b2737ba1030903632b0b232b960a11b6044820152606401610c0e565b815161146190600183019060208501906130eb565b33600081815260a0602090815260408083206003810154845260a1835281842094845260a39092528220607654919392909161170c90600190613558565b815260208101919091526040016000205460ff161561175f5760405162461bcd60e51b815260206004820152600f60248201526e105b1c9958591e4810db185a5b5959608a1b6044820152606401610c0e565b600081600601600060016076546117769190613558565b815260200190815260200160002054116117c75760405162461bcd60e51b81526020600482015260126024820152714e6f2072657761726420746f20436c61696d60701b6044820152606401610c0e565b33600090815260aa6020526040812060765482906117e790600190613558565b815260200190815260200160002054116118385760405162461bcd60e51b81526020600482015260126024820152714e6f2072657761726420746f20436c61696d60701b6044820152606401610c0e565b6000816007016000600160765461184f9190613558565b81526020019081526020016000205460855460aa6000336001600160a01b03166001600160a01b03168152602001908152602001600020600060016076546118979190613558565b8152602001908152602001600020546118b09190613615565b6118ba9190613634565b9050606760009054906101000a90046001600160a01b03166001600160a01b031663a9059cbb336085548486600601600060016076546118fa9190613558565b8152602001908152602001600020546119139190613615565b61191d9190613634565b6040518363ffffffff1660e01b815260040161193a9291906135df565b6020604051808303816000875af1158015611959573d6000803e3d6000fd5b505050506040513d601f19601f8201168201806040525081019061197d91906135f8565b5033600090815260a3602052604081206076546001929061199f908490613558565b81526020810191909152604001600020805460ff1916911515919091179055505050565b606d546001600160a01b03163314611a0e5760405162461bcd60e51b815260206004820152600e60248201526d4e6f742061206d756c746973696760901b6044820152606401610c0e565b60335460405163a9059cbb60e01b81526001600160a01b038481169263a9059cbb92611a42929091169085906004016135df565b6020604051808303816000875af1158015611a61573d6000803e3d6000fd5b505050506040513d601f19601f8201168201806040525081019061146191906135f8565b607a546301000000900460ff16611aae5760405162461bcd60e51b8152600401610c0e90613587565b607a5460ff1615611af75760405162461bcd60e51b815260206004820152601360248201527241646d696e2068616c74206465706f7369747360681b6044820152606401610c0e565b611aff61136d565b33600090815260a060205260409020608654821015611b605760405162461bcd60e51b815260206004820152601b60248201527f416d6f756e74206c657373207468616e206d696e20616d6f756e7400000000006044820152606401610c0e565b608754828260050154611b73919061356f565b1115611bc15760405162461bcd60e51b815260206004820152601b60248201527f416d6f756e74206d6f7265207468616e206d617820616d6f756e7400000000006044820152606401610c0e565b805460ff16611beb57805460ff1916600117815560718054906000611be5836136aa565b91905055505b81606e6000828254611bfd919061356f565b90915550506067546040516323b872dd60e01b8152336004820152306024820152604481018490526001600160a01b03909116906323b872dd906064016020604051808303816000875af1158015611c59573d6000803e3d6000fd5b505050506040513d601f19601f82011682018060405250810190611c7d91906135f8565b50611c8782612550565b6064611c9483605a613615565b611c9e9190613634565b33600090815260a260209081526040808320600480870180548652919093529083208481554260038201819055600180830191909155928101805460ff19169093179092558054939550909291611cf4836136aa565b919050555082826006016000828254611d0d919061356f565b9250508190555082826005016000828254611d28919061356f565b925050819055508260a76000828254611d41919061356f565b909155505033600090815260aa60209081526040808320607654845290915281208054859290611d7290849061356f565b90915550506001600160a01b038416331415611d8d57600093505b815461010090046001600160a01b0316611db4576003820154611db457611db433856128cb565b815461010090046001600160a01b031615611dd357611dd3338461297d565b611ddd3384612b4c565b7fa4e109bb7f03a3cbe671105ffecfc362319eaa88ecaf35997a4d3a2328d66d6c338460405161129c9291906135df565b611e16612296565b608691909155608755565b600054610100900460ff1615808015611e415750600054600160ff909116105b80611e5b5750303b158015611e5b575060005460ff166001145b611ebe5760405162461bcd60e51b815260206004820152602e60248201527f496e697469616c697a61626c653a20636f6e747261637420697320616c72656160448201526d191e481a5b9a5d1a585b1a5e995960921b6064820152608401610c0e565b6000805460ff191660011790558015611ee1576000805461ff0019166101001790555b611ee9612db3565b60a880546001600160a01b0319166001600160a01b03851617905560a98290558015611461576000805461ff0019169055604051600181527f7f26b83ff96e1f2b6a682f133852f6798a09c465da95921460cefb384740249890602001610fe6565b607a546301000000900460ff16611f745760405162461bcd60e51b8152600401610c0e90613587565b607a54610100900460ff1615611f9c5760405162461bcd60e51b8152600401610c0e906135b0565b611fa461136d565b33600090815260a06020526040812090805b82600401548110156120585733600090815260a2602090815260408083208484529091529020600481015460ff16801561200157506089548160010154611ffd919061356f565b4210155b156120455760006120123384610c6f565b905042826001018190555080826002016000828254612031919061356f565b909155506120419050818561356f565b9350505b5080612050816136aa565b915050611fb6565b50600081116120995760405162461bcd60e51b815260206004820152600d60248201526c043616e277420636c61696d203609c1b6044820152606401610c0e565b60675460405163a9059cbb60e01b81526001600160a01b039091169063a9059cbb906120cb90339085906004016135df565b6020604051808303816000875af11580156120ea573d6000803e3d6000fd5b505050506040513d601f19601f8201168201806040525081019061210e91906135f8565b5080826007016000828254612123919061356f565b9250508190555080606f600082825461213c919061356f565b90915550506040517fcea16a2d83554574def1edf3ec1fb53f1373f7ebb1fa98fecdaa4268588793cc9061217390339084906135df565b60405180910390a15050565b612187612296565b607a80549115156101000261ff0019909216919091179055565b6121a9612296565b606780546001600160a01b039384166001600160a01b03199182161790915560688054929093169116179055565b6121df612296565b607a805482158015620100000262ff00001990921691909117909155612206574260785550565b426079555b50565b612216612296565b607a805460ff1916911515919091179055565b606d546001600160a01b031633146122745760405162461bcd60e51b815260206004820152600e60248201526d4e6f742061206d756c746973696760901b6044820152606401610c0e565b606d80546001600160a01b0319166001600160a01b0392909216919091179055565b6033546001600160a01b03163314806122b957506034546001600160a01b031633145b806122ce57506035546001600160a01b031633145b6113965760405162461bcd60e51b815260206004820181905260248201527f4f776e61626c653a2063616c6c6572206973206e6f7420746865206f776e65726044820152606401610c0e565b600061235c83836040518060400160405280601e81526020017f536166654d6174683a207375627472616374696f6e206f766572666c6f770000815250612de2565b9392505050565b60008261237257506000610d61565b600061237e8385613615565b90508261238b8583613634565b1461235c5760405162461bcd60e51b815260206004820152602160248201527f536166654d6174683a206d756c7469706c69636174696f6e206f766572666c6f6044820152607760f81b6064820152608401610c0e565b600061235c83836040518060400160405280601a81526020017f536166654d6174683a206469766973696f6e206279207a65726f000000000000815250612e1c565b60006085546082546074546124399190613615565b6124439190613634565b60738054600090815260a1602090815260408083206076805485526006909101835281842086905593549354835260a4909152812091909155607480549293508392909190612493908490613558565b909155505060735460725460408051928352602083018490528201527f83531245723b50749ff8a750ca38e2a14e5378b3c1083924cbd29a2ec3fd22e19060600160405180910390a150565b603380546001600160a01b03198082166001600160a01b038781169182179094556034805483168786161790556035805490921685851617909155604051929091169182907f8be0079c531659141344cd1fd0a4f28419497f9722a3daafe3b4186f6b6457e090600090a350505050565b6069546001600160a01b0316156125f857606754606954608554607d546001600160a01b039384169363a9059cbb9316919061258c9086613615565b6125969190613634565b6040518363ffffffff1660e01b81526004016125b39291906135df565b6020604051808303816000875af11580156125d2573d6000803e3d6000fd5b505050506040513d601f19601f820116820180604052508101906125f691906135f8565b505b606a546001600160a01b0316156126a057606754606a54608554607e546001600160a01b039384169363a9059cbb931691906126349086613615565b61263e9190613634565b6040518363ffffffff1660e01b815260040161265b9291906135df565b6020604051808303816000875af115801561267a573d6000803e3d6000fd5b505050506040513d601f19601f8201168201806040525081019061269e91906135f8565b505b606b546001600160a01b03161561274857606754606b54608554607f546001600160a01b039384169363a9059cbb931691906126dc9086613615565b6126e69190613634565b6040518363ffffffff1660e01b81526004016127039291906135df565b6020604051808303816000875af1158015612722573d6000803e3d6000fd5b505050506040513d601f19601f8201168201806040525081019061274691906135f8565b505b606c546001600160a01b0316156127f057606754606c546085546080546001600160a01b039384169363a9059cbb931691906127849086613615565b61278e9190613634565b6040518363ffffffff1660e01b81526004016127ab9291906135df565b6020604051808303816000875af11580156127ca573d6000803e3d6000fd5b505050506040513d601f19601f820116820180604052508101906127ee91906135f8565b505b60a8546001600160a01b0316156128985760675460a85460855460a9546001600160a01b039384169363a9059cbb9316919061282c9086613615565b6128369190613634565b6040518363ffffffff1660e01b81526004016128539291906135df565b6020604051808303816000875af1158015612872573d6000803e3d6000fd5b505050506040513d601f19601f8201168201806040525081019061289691906135f8565b505b6085546081546128a89083613615565b6128b29190613634565b607460008282546128c3919061356f565b909155505050565b6001600160a01b03808316600090815260a0602052604090209082166128f9576128f483612e4a565b612931565b826001600160a01b0316826001600160a01b031614612931578054610100600160a81b0319166101006001600160a01b038416021781555b805461010090046001600160a01b03161561146157805461010090046001600160a01b0316600090815260a060205260408120600101805491612973836136aa565b9190505550505050565b6001600160a01b038216600090815260a0602052604081206085546084549192916129ae9190610d55908690612363565b905060006129cd608554610d556083548761236390919063ffffffff16565b60675460405163a9059cbb60e01b81529192506001600160a01b03169063a9059cbb90612a0090889086906004016135df565b6020604051808303816000875af1158015612a1f573d6000803e3d6000fd5b505050506040513d601f19601f82011682018060405250810190612a4391906135f8565b50606754835460405163a9059cbb60e01b81526001600160a01b039283169263a9059cbb92612a80926101009091049091169085906004016135df565b6020604051808303816000875af1158015612a9f573d6000803e3d6000fd5b505050506040513d601f19601f82011682018060405250810190612ac391906135f8565b5081836002016000828254612ad8919061356f565b9091555050825461010090046001600160a01b0316600090815260a0602052604081206002018054839290612b0e90849061356f565b925050819055508160706000828254612b27919061356f565b925050819055508060706000828254612b40919061356f565b90915550505050505050565b6001600160a01b038216600090815260a0602052604090206003810154612bf757805461010090046001600160a01b0316600090815260a060209081526040808320600390810154908501819055835260a19091528120600201805491612bb2836136aa565b90915550506003810154600090815260a1602090815260408220600501805460018101825590835291200180546001600160a01b0319166001600160a01b0385161790555b600380820154600090815260a1602052604081209182018054859290612c1e90849061356f565b9091555050607654600090815260078201602052604081208054859290612c4690849061356f565b909155505060725460765460009081526007830160205260409020541115612c8857607654600090815260078201602052604090205460725560038201546073555b6067546040805163313ce56760e01b815290516000926001600160a01b03169163313ce5679160048083019260209291908290030181865afa158015612cd2573d6000803e3d6000fd5b505050506040513d601f19601f82011682018060405250810190612cf691906136c5565b612d0190600a6137cc565b609654612d0e9190613615565b8260030154612d1d9190613634565b9050600a811115612d2c5750600a5b608c546002830154600091612d4091613634565b9050600a811115612d4f5750600a5b80821415612d6e57607c54612d649083613615565b6004840155612d96565b80821015612d8357607c54612d649083613615565b607c54612d909082613615565b60048401555b603283600401541115612dab57603260048401555b505050505050565b600054610100900460ff16612dda5760405162461bcd60e51b8152600401610c0e906137db565b611396612f08565b60008184841115612e065760405162461bcd60e51b8152600401610c0e9190613826565b506000612e138486613558565b95945050505050565b60008183612e3d5760405162461bcd60e51b8152600401610c0e9190613826565b506000612e138486613634565b6001600160a01b038116600090815260a0602052604081206075805491929091612e73906136aa565b918290555060038201818155600091825260a1602052604090912080546001600160a01b0319166001600160a01b0385161781559054612eb290612f76565b8051612ec89160018401916020909101906130eb565b506005810180546001810182556000918252602082200180546001600160a01b0319166001600160a01b03861617905560028201805491612973836136aa565b600054610100900460ff16612f2f5760405162461bcd60e51b8152600401610c0e906137db565b611396735886b6b942f8dab2488961f603a4be8c3015a1a9737f35be372873e06c15dd7f9494a426acab99c6de73360625f995748d7328aa1421aed2f0708b6ef2756124df565b60606000612f8383613013565b600101905060008167ffffffffffffffff811115612fa357612fa3613205565b6040519080825280601f01601f191660200182016040528015612fcd576020820181803683370190505b5090508181016020015b600019016f181899199a1a9b1b9c1cb0b131b232b360811b600a86061a8153600a85049450846130065761300b565b612fd7565b509392505050565b60008072184f03e93ff9f4daa797ed6e38ed64bf6a1f0160401b83106130525772184f03e93ff9f4daa797ed6e38ed64bf6a1f0160401b830492506040015b6d04ee2d6d415b85acef8100000000831061307e576d04ee2d6d415b85acef8100000000830492506020015b662386f26fc10000831061309c57662386f26fc10000830492506010015b6305f5e10083106130b4576305f5e100830492506008015b61271083106130c857612710830492506004015b606483106130da576064830492506002015b600a8310610d615760010192915050565b8280546130f79061366f565b90600052602060002090601f016020900481019282613119576000855561315f565b82601f1061313257805160ff191683800117855561315f565b8280016001018555821561315f579182015b8281111561315f578251825591602001919060010190613144565b5061316b92915061316f565b5090565b5b8082111561316b5760008155600101613170565b6000806040838503121561319757600080fd5b50508035926020909101359150565b80356001600160a01b03811681146131bd57600080fd5b919050565b600080604083850312156131d557600080fd5b6131de836131a6565b946020939093013593505050565b6000602082840312156131fe57600080fd5b5035919050565b634e487b7160e01b600052604160045260246000fd5b600061014080838503121561322f57600080fd5b83601f84011261323e57600080fd5b60405181810181811067ffffffffffffffff8211171561326057613260613205565b60405290830190808583111561327557600080fd5b845b8381101561328f578035825260209182019101613277565b509095945050505050565b6000602082840312156132ac57600080fd5b61235c826131a6565b6000806000606084860312156132ca57600080fd5b6132d3846131a6565b92506132e1602085016131a6565b91506132ef604085016131a6565b90509250925092565b600080600080600060a0868803121561331057600080fd5b613319866131a6565b9450613327602087016131a6565b9350613335604087016131a6565b9250613343606087016131a6565b9150613351608087016131a6565b90509295509295909350565b6000815180845260005b8181101561338357602081850181015186830182015201613367565b81811115613395576000602083870101525b50601f01601f19169290920160200192915050565b6001600160a01b038616815260a0602082018190526000906133ce9083018761335d565b604083019590955250606081019290925260809091015292915050565b6000806000806080858703121561340157600080fd5b5050823594602084013594506040840135936060013592509050565b60006020828403121561342f57600080fd5b813567ffffffffffffffff8082111561344757600080fd5b818401915084601f83011261345b57600080fd5b81358181111561346d5761346d613205565b604051601f8201601f19908116603f0116810190838211818310171561349557613495613205565b816040528281528760208487010111156134ae57600080fd5b826020860160208301376000928101602001929092525095945050505050565b801515811461220b57600080fd5b6000602082840312156134ee57600080fd5b813561235c816134ce565b6000806040838503121561350c57600080fd5b613515836131a6565b9150613523602084016131a6565b90509250929050565b634e487b7160e01b600052603260045260246000fd5b634e487b7160e01b600052601160045260246000fd5b60008282101561356a5761356a613542565b500390565b6000821982111561358257613582613542565b500190565b6020808252600f908201526e0aec2d2e840ccdee440d8c2eadcc6d608b1b604082015260600190565b60208082526015908201527441646d696e2068616c742077697468647261776c7360581b604082015260600190565b6001600160a01b03929092168252602082015260400190565b60006020828403121561360a57600080fd5b815161235c816134ce565b600081600019048311821515161561362f5761362f613542565b500290565b60008261365157634e487b7160e01b600052601260045260246000fd5b500490565b60006020828403121561366857600080fd5b5051919050565b600181811c9082168061368357607f821691505b602082108114156136a457634e487b7160e01b600052602260045260246000fd5b50919050565b60006000198214156136be576136be613542565b5060010190565b6000602082840312156136d757600080fd5b815160ff8116811461235c57600080fd5b600181815b8085111561372357816000190482111561370957613709613542565b8085161561371657918102915b93841c93908002906136ed565b509250929050565b60008261373a57506001610d61565b8161374757506000610d61565b816001811461375d576002811461376757613783565b6001915050610d61565b60ff84111561377857613778613542565b50506001821b610d61565b5060208310610133831016604e8410600b84101617156137a6575081810a610d61565b6137b083836136e8565b80600019048211156137c4576137c4613542565b029392505050565b600061235c60ff84168361372b565b6020808252602b908201527f496e697469616c697a61626c653a20636f6e7472616374206973206e6f74206960408201526a6e697469616c697a696e6760a81b606082015260800190565b60208152600061235c602083018461335d56fea2646970667358221220946cbdc31bf23bcbb5dde1cbda9101ec7cba4d9a7d455e662a4d5a0ab31bb2cb64736f6c634300080a0033",
  "immutableReferences": {},
  "source": "/**\r\n               _  __          \r\n__      _____ | |/ _|         \r\n\\ \\ /\\ / / _ \\| | |_          \r\n \\ V  V / (_) | |  _|         \r\n  \\_/\\_/ \\___/|_|_|           \r\n                              \r\n                 _ _        _ \r\n  ___ __ _ _ __ (_) |_ __ _| |\r\n / __/ _` | '_ \\| | __/ _` | |\r\n| (_| (_| | |_) | | || (_| | |\r\n \\___\\__,_| .__/|_|\\__\\__,_|_|\r\n          |_|                 \r\n*/\r\n\r\n// SPDX-License-Identifier: MIT\r\npragma solidity 0.8.10;\r\n\r\nimport \"@openzeppelin/contracts-upgradeable/token/ERC20/extensions/IERC20MetadataUpgradeable.sol\";\r\nimport \"@openzeppelin/contracts-upgradeable/access/OwnableUpgradeable.sol\";\r\nimport \"@openzeppelin/contracts-upgradeable/utils/AddressUpgradeable.sol\";\r\nimport \"@openzeppelin/contracts-upgradeable/proxy/utils/Initializable.sol\";\r\n\r\ninterface IWolf {\r\n    function calculateReward(\r\n        address _user,\r\n        uint256 _index\r\n    ) external view returns (uint256 _reward);\r\n\r\n    function getUserInfo(\r\n        address _user\r\n    )\r\n        external\r\n        view\r\n        returns (\r\n            bool _isExists,\r\n            uint256 _stakeCount,\r\n            address _referrer,\r\n            uint256 _referrals,\r\n            uint256 _referralRewards,\r\n            uint256 _teamId,\r\n            uint256 _currentStaked,\r\n            uint256 _totalStaked,\r\n            uint256 _totalWithdrawan\r\n        );\r\n\r\n    function getUserTokenStakeInfo(\r\n        address _user,\r\n        uint256 _index\r\n    )\r\n        external\r\n        view\r\n        returns (\r\n            uint256 _amount,\r\n            uint256 _checkpoint,\r\n            uint256 _claimedReward,\r\n            uint256 _startTime,\r\n            bool _isActive\r\n        );\r\n\r\n    function getUserLotteryClaimedStatus(\r\n        address _user,\r\n        uint256 _week\r\n    ) external view returns (bool _status);\r\n\r\n    function getTeamInfo(\r\n        uint256 _teamId\r\n    )\r\n        external\r\n        view\r\n        returns (\r\n            address _Lead,\r\n            string memory _teamName,\r\n            uint256 _teamCount,\r\n            uint256 _teamAmount,\r\n            uint256 _currentPercent\r\n        );\r\n\r\n    function getAllTeamMembers(\r\n        uint256 _teamId,\r\n        uint256 _index\r\n    ) external view returns (address _teamMember);\r\n\r\n    function getTeamLotteryAmount(\r\n        uint256 _teamId,\r\n        uint256 _week\r\n    ) external view returns (uint256 _amount);\r\n\r\n    function getTeamWeeklyDepositAmount(\r\n        uint256 _teamId,\r\n        uint256 _week\r\n    ) external view returns (uint256 _amount);\r\n\r\n    function getWinnersHistory(\r\n        uint256 _week\r\n    ) external view returns (uint256 _team);\r\n}\r\n\r\ncontract WolfCapital8 is Initializable, OwnableUpgradeable {\r\n    using SafeMath for uint256;\r\n    IERC20MetadataUpgradeable public usdc;\r\n    IWolf public wolfV1;\r\n    address public ownerWallet;\r\n    address public marketingWallet;\r\n    address public developmentWallet1;\r\n    address public developmentWallet2;\r\n    address public multiSigWallet;\r\n\r\n    uint256 public totalStaked;\r\n    uint256 public totalWithdrawan;\r\n    uint256 public totalRefRewards;\r\n    uint256 public uniqueStakers;\r\n    uint256 public topDepositThisWeek;\r\n    uint256 public topTeamThisWeek;\r\n    uint256 public lotteryPool;\r\n    uint256 public uniqueTeamId;\r\n    uint256 public currentWeek;\r\n    uint256 public launchTime;\r\n    uint256 public haltAccStartTime;\r\n    uint256 public haltAccEndTime;\r\n    bool public haltDeposits;\r\n    bool public haltWithdraws;\r\n    bool public haltAccumulation;\r\n    bool public launched;\r\n\r\n    uint256 public basePercent;\r\n    uint256 public teamPercentMultiplier;\r\n    uint256 public ownerFeePercent;\r\n    uint256 public marketingFeePercent;\r\n    uint256 public dev1FeePercent;\r\n    uint256 public dev2FeePercent;\r\n    uint256 public lotteryFeePercent;\r\n    uint256 public lotteryPercent;\r\n    uint256 public referrerPercent;\r\n    uint256 public referralPercent;\r\n    uint256 public percentDivider;\r\n    uint256 public minDeposit;\r\n    uint256 public maxDeposit;\r\n    uint256 public timeStep;\r\n    uint256 public claimDuration;\r\n    uint256 public accumulationDuration;\r\n    uint256 public lockDuration;\r\n\r\n    function initialize(address newDev, uint256 value) public initializer {\r\n        OwnableUpgradeable.__Ownable_init();\r\n        developmentWallet3 = newDev;\r\n        dev3FeePercent = value;\r\n    }\r\n\r\n    uint256[10] public requiredTeamUsers;\r\n    uint256[10] public requiredTeamAmount;\r\n\r\n    struct StakeData {\r\n        uint256 amount;\r\n        uint256 checkpoint;\r\n        uint256 claimedReward;\r\n        uint256 startTime;\r\n        bool isActive;\r\n    }\r\n\r\n    struct User {\r\n        bool isExists;\r\n        address referrer;\r\n        uint256 referrals;\r\n        uint256 referralRewards;\r\n        uint256 teamId;\r\n        uint256 stakeCount;\r\n        uint256 currentStaked;\r\n        uint256 totalStaked;\r\n        uint256 totalWithdrawan;\r\n    }\r\n\r\n    struct TeamData {\r\n        address Lead;\r\n        string teamName;\r\n        uint256 teamCount;\r\n        uint256 teamAmount;\r\n        uint256 currentPercent;\r\n        address[] teamMembers;\r\n        mapping(uint256 => uint256) lotteryAmount;\r\n        mapping(uint256 => uint256) weeklyDeposits;\r\n    }\r\n\r\n    mapping(address => User) internal users;\r\n    mapping(uint256 => TeamData) internal teams;\r\n    mapping(address => mapping(uint256 => StakeData)) internal userStakes;\r\n    mapping(address => mapping(uint256 => bool)) internal isLotteryClaimed;\r\n    mapping(uint256 => uint256) internal winnersHistory;\r\n    mapping(address => bool) internal isUserMigrated;\r\n    mapping(uint256 => bool) internal isTeamMigrated;\r\n\r\n    event STAKE(address Staker, uint256 amount);\r\n    event CLAIM(address Staker, uint256 amount);\r\n    event WITHDRAW(address Staker, uint256 amount);\r\n    event LOTTERY(\r\n        uint256 topTeamThisWeek,\r\n        uint256 lotteryAmount,\r\n        uint256 lastWeekTopDeposit\r\n    );\r\n\r\n    uint256 public currentStaked;\r\n    address public developmentWallet3;\r\n    uint256 public dev3FeePercent;\r\n    mapping(address => mapping(uint256 => uint256)) weeklyDeposits;\r\n\r\n    function updateWeekly() public {\r\n        if (currentWeek != calculateWeek()) {\r\n            checkForLotteryWinner();\r\n            currentWeek = calculateWeek();\r\n            topDepositThisWeek = 0;\r\n        }\r\n    }\r\n\r\n    function stake(address _referrer, uint256 _amount) public {\r\n        require(launched, \"Wait for launch\");\r\n        require(!haltDeposits, \"Admin halt deposits\");\r\n        updateWeekly();\r\n        User storage user = users[msg.sender];\r\n        require(_amount >= minDeposit, \"Amount less than min amount\");\r\n        require(\r\n            user.currentStaked + _amount <= maxDeposit,\r\n            \"Amount more than max amount\"\r\n        );\r\n        if (!user.isExists) {\r\n            user.isExists = true;\r\n            uniqueStakers++;\r\n        }\r\n\r\n        totalStaked += _amount;\r\n        usdc.transferFrom(msg.sender, address(this), _amount);\r\n        takeFee(_amount);\r\n        _amount = (_amount * 90) / 100;\r\n\r\n        StakeData storage userStake = userStakes[msg.sender][user.stakeCount];\r\n        userStake.amount = _amount;\r\n        userStake.startTime = block.timestamp;\r\n        userStake.checkpoint = block.timestamp;\r\n        userStake.isActive = true;\r\n        user.stakeCount++;\r\n        user.totalStaked += _amount;\r\n        user.currentStaked += _amount;\r\n        currentStaked += _amount;\r\n        weeklyDeposits[msg.sender][currentWeek] += _amount;\r\n\r\n        if (_referrer == msg.sender) {\r\n            _referrer = address(0);\r\n        }\r\n\r\n        if (user.referrer == address(0)) {\r\n            if (user.teamId == 0) {\r\n                setReferrer(msg.sender, _referrer);\r\n            }\r\n        }\r\n\r\n        if (user.referrer != address(0)) {\r\n            distributeRefReward(msg.sender, _amount);\r\n        }\r\n\r\n        updateTeam(msg.sender, _amount);\r\n\r\n        emit STAKE(msg.sender, _amount);\r\n    }\r\n\r\n    function setReferrer(address _user, address _referrer) private {\r\n        User storage user = users[_user];\r\n\r\n        if (_referrer == address(0)) {\r\n            createTeam(_user);\r\n        } else if (_referrer != _user) {\r\n            user.referrer = _referrer;\r\n        }\r\n\r\n        if (user.referrer != address(0)) {\r\n            users[user.referrer].referrals++;\r\n        }\r\n    }\r\n\r\n    function distributeRefReward(address _user, uint256 _amount) private {\r\n        User storage user = users[_user];\r\n\r\n        uint256 userRewards = _amount.mul(referralPercent).div(percentDivider);\r\n        uint256 refRewards = _amount.mul(referrerPercent).div(percentDivider);\r\n\r\n        usdc.transfer(_user, userRewards);\r\n        usdc.transfer(user.referrer, refRewards);\r\n\r\n        user.referralRewards += userRewards;\r\n        users[user.referrer].referralRewards += refRewards;\r\n        totalRefRewards += userRewards;\r\n        totalRefRewards += refRewards;\r\n    }\r\n\r\n    function createTeam(address _user) private {\r\n        User storage user = users[_user];\r\n        user.teamId = ++uniqueTeamId;\r\n        TeamData storage newTeam = teams[user.teamId];\r\n        newTeam.Lead = _user;\r\n        newTeam.teamName = Strings.toString(user.teamId);\r\n        newTeam.teamMembers.push(_user);\r\n        newTeam.teamCount++;\r\n    }\r\n\r\n    function updateTeam(address _user, uint256 _amount) private {\r\n        User storage user = users[_user];\r\n\r\n        if (user.teamId == 0) {\r\n            user.teamId = users[user.referrer].teamId;\r\n            teams[user.teamId].teamCount++;\r\n            teams[user.teamId].teamMembers.push(_user);\r\n        }\r\n\r\n        TeamData storage team = teams[user.teamId];\r\n        team.teamAmount += _amount;\r\n        team.weeklyDeposits[currentWeek] += _amount;\r\n        if (team.weeklyDeposits[currentWeek] > topDepositThisWeek) {\r\n            topDepositThisWeek = team.weeklyDeposits[currentWeek];\r\n            topTeamThisWeek = user.teamId;\r\n        }\r\n\r\n        uint256 amountIndex = team.teamAmount /\r\n            (requiredTeamAmount[0] * 10 ** usdc.decimals());\r\n        if (amountIndex > requiredTeamAmount.length) {\r\n            amountIndex = requiredTeamAmount.length;\r\n        }\r\n        uint256 countIndex = team.teamCount / requiredTeamUsers[0];\r\n        if (countIndex > requiredTeamUsers.length) {\r\n            countIndex = requiredTeamUsers.length;\r\n        }\r\n        if (amountIndex == countIndex) {\r\n            team.currentPercent = amountIndex * teamPercentMultiplier;\r\n        } else if (amountIndex < countIndex) {\r\n            team.currentPercent = amountIndex * teamPercentMultiplier;\r\n        } else {\r\n            team.currentPercent = countIndex * teamPercentMultiplier;\r\n        }\r\n        if (team.currentPercent > 50) {\r\n            team.currentPercent = 50;\r\n        }\r\n    }\r\n\r\n    function takeFee(uint256 _amount) private {\r\n        if (ownerWallet != address(0)) {\r\n            usdc.transfer(\r\n                ownerWallet,\r\n                (_amount * ownerFeePercent) / percentDivider\r\n            );\r\n        }\r\n        if (marketingWallet != address(0)) {\r\n            usdc.transfer(\r\n                marketingWallet,\r\n                (_amount * marketingFeePercent) / percentDivider\r\n            );\r\n        }\r\n        if (developmentWallet1 != address(0)) {\r\n            usdc.transfer(\r\n                developmentWallet1,\r\n                (_amount * dev1FeePercent) / percentDivider\r\n            );\r\n        }\r\n        if (developmentWallet2 != address(0)) {\r\n            usdc.transfer(\r\n                developmentWallet2,\r\n                (_amount * dev2FeePercent) / percentDivider\r\n            );\r\n        }\r\n        if (developmentWallet3 != address(0)) {\r\n            usdc.transfer(\r\n                developmentWallet3,\r\n                (_amount * dev3FeePercent) / percentDivider\r\n            );\r\n        }\r\n        lotteryPool += (_amount * lotteryFeePercent) / percentDivider;\r\n    }\r\n\r\n    function claim(uint256 _index) public {\r\n        require(launched, \"Wait for launch\");\r\n        require(!haltWithdraws, \"Admin halt withdrawls\");\r\n        updateWeekly();\r\n        User storage user = users[msg.sender];\r\n        StakeData storage userStake = userStakes[msg.sender][_index];\r\n        require(_index < user.stakeCount, \"Invalid index\");\r\n        require(userStake.isActive, \"Already withdrawn\");\r\n        require(\r\n            block.timestamp >= userStake.checkpoint + claimDuration,\r\n            \"Wait for claim time\"\r\n        );\r\n        uint256 rewardAmount;\r\n        rewardAmount = calculateReward(msg.sender, _index);\r\n        require(rewardAmount > 0, \"Can't claim 0\");\r\n        usdc.transfer(msg.sender, rewardAmount);\r\n        userStake.checkpoint = block.timestamp;\r\n        userStake.claimedReward += rewardAmount;\r\n        user.totalWithdrawan += rewardAmount;\r\n        totalWithdrawan += rewardAmount;\r\n\r\n        emit CLAIM(msg.sender, rewardAmount);\r\n    }\r\n\r\n    function claimAll() public {\r\n        require(launched, \"Wait for launch\");\r\n        require(!haltWithdraws, \"Admin halt withdrawls\");\r\n        updateWeekly();\r\n\r\n        User storage user = users[msg.sender];\r\n        uint256 claimableReward;\r\n        for (uint i; i < user.stakeCount; i++) {\r\n            StakeData storage userStake = userStakes[msg.sender][i];\r\n            if (\r\n                userStake.isActive &&\r\n                block.timestamp >= userStake.checkpoint + claimDuration\r\n            ) {\r\n                uint256 rewardAmount;\r\n                rewardAmount = calculateReward(msg.sender, i);\r\n                userStake.checkpoint = block.timestamp;\r\n                userStake.claimedReward += rewardAmount;\r\n                claimableReward += rewardAmount;\r\n            }\r\n        }\r\n        require(claimableReward > 0, \"Can't claim 0\");\r\n        usdc.transfer(msg.sender, claimableReward);\r\n\r\n        user.totalWithdrawan += claimableReward;\r\n        totalWithdrawan += claimableReward;\r\n\r\n        emit CLAIM(msg.sender, claimableReward);\r\n    }\r\n\r\n    function withdraw(uint256 _index) public {\r\n        require(launched, \"Wait for launch\");\r\n        require(!haltWithdraws, \"Admin halt withdrawls\");\r\n        updateWeekly();\r\n\r\n        User storage user = users[msg.sender];\r\n        StakeData storage userStake = userStakes[msg.sender][_index];\r\n        require(_index < user.stakeCount, \"Invalid index\");\r\n        require(userStake.isActive, \"Already withdrawn\");\r\n        require(\r\n            block.timestamp >= userStake.startTime + lockDuration,\r\n            \"Wait for end time\"\r\n        );\r\n\r\n        usdc.transfer(msg.sender, userStake.amount);\r\n        userStake.isActive = false;\r\n        userStake.checkpoint = block.timestamp;\r\n        user.currentStaked -= userStake.amount;\r\n        currentStaked -= userStake.amount;\r\n        user.totalWithdrawan += userStake.amount;\r\n        totalWithdrawan += userStake.amount;\r\n\r\n        emit WITHDRAW(msg.sender, userStake.amount);\r\n    }\r\n\r\n    function checkForLotteryWinner() private {\r\n        uint256 lotteryAmount = (lotteryPool * lotteryPercent) / percentDivider;\r\n        teams[topTeamThisWeek].lotteryAmount[currentWeek] = lotteryAmount;\r\n        winnersHistory[currentWeek] = topTeamThisWeek;\r\n        lotteryPool -= lotteryAmount;\r\n\r\n        emit LOTTERY(topTeamThisWeek, lotteryAmount, topDepositThisWeek);\r\n    }\r\n\r\n    function claimLottery() public {\r\n        User storage user = users[msg.sender];\r\n        TeamData storage team = teams[user.teamId];\r\n\r\n        require(\r\n            !isLotteryClaimed[msg.sender][currentWeek - 1],\r\n            \"Already Claimed\"\r\n        );\r\n        require(team.lotteryAmount[currentWeek - 1] > 0, \"No reward to Claim\");\r\n        require(\r\n            weeklyDeposits[msg.sender][currentWeek - 1] > 0,\r\n            \"No reward to Claim\"\r\n        );\r\n\r\n        uint256 userShare = (weeklyDeposits[msg.sender][currentWeek - 1] *\r\n            percentDivider) / team.weeklyDeposits[currentWeek - 1];\r\n        usdc.transfer(\r\n            msg.sender,\r\n            (team.lotteryAmount[currentWeek - 1] * userShare) / percentDivider\r\n        );\r\n        isLotteryClaimed[msg.sender][currentWeek - 1] = true;\r\n    }\r\n\r\n    /**\r\n        Getter functions for Public\r\n     */\r\n\r\n    function calculateWeek() public view returns (uint256) {\r\n        return (block.timestamp - launchTime) / (7 * timeStep);\r\n    }\r\n\r\n    function calculateReward(\r\n        address _user,\r\n        uint256 _index\r\n    ) public view returns (uint256 _reward) {\r\n        if (haltAccumulation) return 0;\r\n        StakeData storage userStake = userStakes[_user][_index];\r\n        TeamData storage team = teams[users[_user].teamId];\r\n        uint256 rewardDuration = block.timestamp.sub(userStake.checkpoint);\r\n        if (userStake.checkpoint < haltAccStartTime) {\r\n            rewardDuration =\r\n                rewardDuration -\r\n                (haltAccEndTime - haltAccStartTime);\r\n        }\r\n        if (rewardDuration > accumulationDuration) {\r\n            rewardDuration = accumulationDuration;\r\n        }\r\n        _reward = userStake\r\n            .amount\r\n            .mul(rewardDuration)\r\n            .mul(basePercent + team.currentPercent)\r\n            .div(percentDivider.mul(timeStep));\r\n    }\r\n\r\n    function getUserInfo(\r\n        address _user\r\n    )\r\n        public\r\n        view\r\n        returns (\r\n            bool _isExists,\r\n            uint256 _stakeCount,\r\n            address _referrer,\r\n            uint256 _referrals,\r\n            uint256 _referralRewards,\r\n            uint256 _teamId,\r\n            uint256 _currentStaked,\r\n            uint256 _totalStaked,\r\n            uint256 _totalWithdrawan\r\n        )\r\n    {\r\n        User storage user = users[_user];\r\n        _isExists = user.isExists;\r\n        _stakeCount = user.stakeCount;\r\n        _referrer = user.referrer;\r\n        _referrals = user.referrals;\r\n        _referralRewards = user.referralRewards;\r\n        _teamId = user.teamId;\r\n        _currentStaked = user.currentStaked;\r\n        _totalStaked = user.totalStaked;\r\n        _totalWithdrawan = user.totalWithdrawan;\r\n    }\r\n\r\n    function getUserTokenStakeInfo(\r\n        address _user,\r\n        uint256 _index\r\n    )\r\n        public\r\n        view\r\n        returns (\r\n            uint256 _amount,\r\n            uint256 _checkpoint,\r\n            uint256 _claimedReward,\r\n            uint256 _startTime,\r\n            bool _isActive\r\n        )\r\n    {\r\n        StakeData storage userStake = userStakes[_user][_index];\r\n        _amount = userStake.amount;\r\n        _checkpoint = userStake.checkpoint;\r\n        _claimedReward = userStake.claimedReward;\r\n        _startTime = userStake.startTime;\r\n        _isActive = userStake.isActive;\r\n    }\r\n\r\n    function getUserWeeklyDepositAmount(\r\n        address _user,\r\n        uint256 _week\r\n    ) public view returns (uint256 _amount) {\r\n        _amount = weeklyDeposits[_user][_week];\r\n    }\r\n\r\n    function getUserLotteryClaimedStatus(\r\n        address _user,\r\n        uint256 _week\r\n    ) public view returns (bool _status) {\r\n        _status = isLotteryClaimed[_user][_week];\r\n    }\r\n\r\n    function getTeamInfo(\r\n        uint256 _teamId\r\n    )\r\n        public\r\n        view\r\n        returns (\r\n            address _Lead,\r\n            string memory _teamName,\r\n            uint256 _teamCount,\r\n            uint256 _teamAmount,\r\n            uint256 _currentPercent\r\n        )\r\n    {\r\n        TeamData storage team = teams[_teamId];\r\n        _Lead = team.Lead;\r\n        _teamName = team.teamName;\r\n        _teamCount = team.teamCount;\r\n        _teamAmount = team.teamAmount;\r\n        _currentPercent = team.currentPercent;\r\n    }\r\n\r\n    function getAllTeamMembers(\r\n        uint256 _teamId,\r\n        uint256 _index\r\n    ) public view returns (address _teamMember) {\r\n        _teamMember = teams[_teamId].teamMembers[_index];\r\n    }\r\n\r\n    function getTeamLotteryAmount(\r\n        uint256 _teamId,\r\n        uint256 _week\r\n    ) public view returns (uint256 _amount) {\r\n        _amount = teams[_teamId].lotteryAmount[_week];\r\n    }\r\n\r\n    function getTeamWeeklyDepositAmount(\r\n        uint256 _teamId,\r\n        uint256 _week\r\n    ) public view returns (uint256 _amount) {\r\n        _amount = teams[_teamId].weeklyDeposits[_week];\r\n    }\r\n\r\n    function getWinnersHistory(\r\n        uint256 _week\r\n    ) public view returns (uint256 _team) {\r\n        _team = winnersHistory[_week];\r\n    }\r\n\r\n    function getUserMigrationStatus(address _user) public view returns (bool) {\r\n        return isUserMigrated[_user];\r\n    }\r\n\r\n    function getTeamMigrationStatus(\r\n        uint256 _teamId\r\n    ) public view returns (bool) {\r\n        return isTeamMigrated[_teamId];\r\n    }\r\n\r\n    function getContractBalance() public view returns (uint256) {\r\n        return usdc.balanceOf(address(this));\r\n    }\r\n\r\n    /*\r\n        Setter functions For sOwner\r\n    */\r\n\r\n    function setValue(uint256 _value) external onlyOwner {\r\n        currentStaked = _value;\r\n    }\r\n\r\n    function launch() external onlyOwner {\r\n        require(!launched, \"Already launched\");\r\n        launched = true;\r\n        launchTime = block.timestamp;\r\n    }\r\n\r\n    function setHaltDeposits(bool _state) external onlyOwner {\r\n        haltDeposits = _state;\r\n    }\r\n\r\n    function setHaltWithdraws(bool _state) external onlyOwner {\r\n        haltWithdraws = _state;\r\n    }\r\n\r\n    function setHaltAccumulation(bool _state) external onlyOwner {\r\n        haltAccumulation = _state;\r\n        if (_state) {\r\n            haltAccStartTime = block.timestamp;\r\n        } else {\r\n            haltAccEndTime = block.timestamp;\r\n        }\r\n    }\r\n\r\n    function migrateFunds(address _token, uint256 _amount) external {\r\n        require(msg.sender == multiSigWallet, \"Not a multisig\");\r\n        IERC20MetadataUpgradeable(_token).transfer(owner, _amount);\r\n    }\r\n\r\n    function SetTeamName(string memory _name) external {\r\n        TeamData storage team = teams[users[msg.sender].teamId];\r\n        require(msg.sender == team.Lead, \"Not a leader\");\r\n        team.teamName = _name;\r\n    }\r\n\r\n    function SetDepositLimits(uint256 _min, uint256 _max) external onlyOwner {\r\n        minDeposit = _min;\r\n        maxDeposit = _max;\r\n    }\r\n\r\n    function setFeeWallets(\r\n        address _ownerWallet,\r\n        address _marketingWallet,\r\n        address _developmentWallet1,\r\n        address _developmentWallet2,\r\n        address _developmentWallet3\r\n    ) external onlyOwner {\r\n        ownerWallet = _ownerWallet;\r\n        marketingWallet = _marketingWallet;\r\n        developmentWallet1 = _developmentWallet1;\r\n        developmentWallet2 = _developmentWallet2;\r\n        developmentWallet3 = _developmentWallet3;\r\n    }\r\n\r\n    function setMultiSigWallet(address _newWallet) external {\r\n        require(msg.sender == multiSigWallet, \"Not a multisig\");\r\n        multiSigWallet = _newWallet;\r\n    }\r\n\r\n    function setContracts(\r\n        address _newToken,\r\n        address _oldWolf\r\n    ) external onlyOwner {\r\n        usdc = IERC20MetadataUpgradeable(_newToken);\r\n        wolfV1 = IWolf(_oldWolf);\r\n    }\r\n\r\n    function setBasePercent(\r\n        uint256 _basePercent,\r\n        uint256 _teamPercent\r\n    ) external onlyOwner {\r\n        basePercent = _basePercent;\r\n        teamPercentMultiplier = _teamPercent;\r\n    }\r\n\r\n    function setDurations(\r\n        uint256 _1,\r\n        uint256 _2,\r\n        uint256 _3,\r\n        uint256 _4\r\n    ) external onlyOwner {\r\n        timeStep = _1;\r\n        claimDuration = _2;\r\n        accumulationDuration = _3;\r\n        lockDuration = _4;\r\n    }\r\n\r\n    function setRequiredTeamAmount(\r\n        uint256[10] memory _values\r\n    ) external onlyOwner {\r\n        requiredTeamAmount[0] = _values[0];\r\n        requiredTeamAmount[1] = _values[1];\r\n        requiredTeamAmount[2] = _values[2];\r\n        requiredTeamAmount[3] = _values[3];\r\n        requiredTeamAmount[4] = _values[4];\r\n        requiredTeamAmount[5] = _values[5];\r\n        requiredTeamAmount[6] = _values[6];\r\n        requiredTeamAmount[7] = _values[7];\r\n        requiredTeamAmount[8] = _values[8];\r\n        requiredTeamAmount[9] = _values[9];\r\n    }\r\n\r\n    function setRequiredTeamUsers(\r\n        uint256[10] memory _values\r\n    ) external onlyOwner {\r\n        requiredTeamUsers[0] = _values[0];\r\n        requiredTeamUsers[1] = _values[1];\r\n        requiredTeamUsers[2] = _values[2];\r\n        requiredTeamUsers[3] = _values[3];\r\n        requiredTeamUsers[4] = _values[4];\r\n        requiredTeamUsers[5] = _values[5];\r\n        requiredTeamUsers[6] = _values[6];\r\n        requiredTeamUsers[7] = _values[7];\r\n        requiredTeamUsers[8] = _values[8];\r\n        requiredTeamUsers[9] = _values[9];\r\n    }\r\n}\r\n\r\nlibrary Strings {\r\n    bytes16 private constant _SYMBOLS = \"0123456789abcdef\";\r\n\r\n    function toString(uint256 value) internal pure returns (string memory) {\r\n        unchecked {\r\n            uint256 length = log10(value) + 1;\r\n            string memory buffer = new string(length);\r\n            uint256 ptr;\r\n            /// @solidity memory-safe-assembly\r\n            assembly {\r\n                ptr := add(buffer, add(32, length))\r\n            }\r\n            while (true) {\r\n                ptr--;\r\n                /// @solidity memory-safe-assembly\r\n                assembly {\r\n                    mstore8(ptr, byte(mod(value, 10), _SYMBOLS))\r\n                }\r\n                value /= 10;\r\n                if (value == 0) break;\r\n            }\r\n            return buffer;\r\n        }\r\n    }\r\n\r\n    function log10(uint256 value) internal pure returns (uint256) {\r\n        uint256 result = 0;\r\n        unchecked {\r\n            if (value >= 10 ** 64) {\r\n                value /= 10 ** 64;\r\n                result += 64;\r\n            }\r\n            if (value >= 10 ** 32) {\r\n                value /= 10 ** 32;\r\n                result += 32;\r\n            }\r\n            if (value >= 10 ** 16) {\r\n                value /= 10 ** 16;\r\n                result += 16;\r\n            }\r\n            if (value >= 10 ** 8) {\r\n                value /= 10 ** 8;\r\n                result += 8;\r\n            }\r\n            if (value >= 10 ** 4) {\r\n                value /= 10 ** 4;\r\n                result += 4;\r\n            }\r\n            if (value >= 10 ** 2) {\r\n                value /= 10 ** 2;\r\n                result += 2;\r\n            }\r\n            if (value >= 10 ** 1) {\r\n                result += 1;\r\n            }\r\n        }\r\n        return result;\r\n    }\r\n}\r\n\r\nlibrary SafeMath {\r\n    function add(uint256 a, uint256 b) internal pure returns (uint256) {\r\n        uint256 c = a + b;\r\n        require(c >= a, \"SafeMath: addition overflow\");\r\n\r\n        return c;\r\n    }\r\n\r\n    function sub(uint256 a, uint256 b) internal pure returns (uint256) {\r\n        return sub(a, b, \"SafeMath: subtraction overflow\");\r\n    }\r\n\r\n    function sub(\r\n        uint256 a,\r\n        uint256 b,\r\n        string memory errorMessage\r\n    ) internal pure returns (uint256) {\r\n        require(b <= a, errorMessage);\r\n        uint256 c = a - b;\r\n\r\n        return c;\r\n    }\r\n\r\n    function mul(uint256 a, uint256 b) internal pure returns (uint256) {\r\n        // Gas optimization: this is cheaper than requiring 'a' not being zero, but the\r\n        // benefit is lost if 'b' is also tested.\r\n        // See: https://github.com/OpenZeppelin/openzeppelin-contracts/pull/522\r\n        if (a == 0) {\r\n            return 0;\r\n        }\r\n\r\n        uint256 c = a * b;\r\n        require(c / a == b, \"SafeMath: multiplication overflow\");\r\n\r\n        return c;\r\n    }\r\n\r\n    function div(uint256 a, uint256 b) internal pure returns (uint256) {\r\n        return div(a, b, \"SafeMath: division by zero\");\r\n    }\r\n\r\n    function div(\r\n        uint256 a,\r\n        uint256 b,\r\n        string memory errorMessage\r\n    ) internal pure returns (uint256) {\r\n        require(b > 0, errorMessage);\r\n        uint256 c = a / b;\r\n        // assert(a == b * c + a % b); // There is no case in which this doesn't hold\r\n\r\n        return c;\r\n    }\r\n\r\n    function mod(uint256 a, uint256 b) internal pure returns (uint256) {\r\n        return mod(a, b, \"SafeMath: modulo by zero\");\r\n    }\r\n\r\n    function mod(\r\n        uint256 a,\r\n        uint256 b,\r\n        string memory errorMessage\r\n    ) internal pure returns (uint256) {\r\n        require(b != 0, errorMessage);\r\n        return a % b;\r\n    }\r\n}\r\n",
  "sourcePath": "C:\\WolfCapital\\contracts\\WC9.sol",
  "compiler": {
    "name": "solc",
    "version": "0.8.10+commit.fc410830.Emscripten.clang"
  },
  "schemaVersion": "3.4.7",
  "updatedAt": "2023-05-23T11:00:08.636Z",
  "devdoc": {
    "kind": "dev",
    "methods": {
      "renounceOwnership()": {
        "details": "Leaves the contract without owner. It will not be possible to call `onlyOwner` functions anymore. Can only be called by the current owner. NOTE: Renouncing ownership will leave the contract without an owner, thereby removing any functionality that is only available to the owner."
      },
      "transferOwnership(address,address,address)": {
        "details": "Transfers ownership of the contract to a new account (`newOwner`). Can only be called by the current owner."
      }
    },
    "version": 1
  },
  "userdoc": {
    "kind": "user",
    "methods": {
      "calculateWeek()": {
        "notice": "Getter functions for Public"
      }
    },
    "version": 1
  }
}