{
  "contractName": "WolfCapital3",
  "abi": [
    {
      "anonymous": false,
      "inputs": [
        {
          "indexed": false,
          "internalType": "address",
          "name": "Staker",
          "type": "address"
        },
        {
          "indexed": false,
          "internalType": "uint256",
          "name": "amount",
          "type": "uint256"
        }
      ],
      "name": "CLAIM",
      "type": "event"
    },
    {
      "anonymous": false,
      "inputs": [
        {
          "indexed": false,
          "internalType": "uint8",
          "name": "version",
          "type": "uint8"
        }
      ],
      "name": "Initialized",
      "type": "event"
    },
    {
      "anonymous": false,
      "inputs": [
        {
          "indexed": false,
          "internalType": "uint256",
          "name": "topTeamThisWeek",
          "type": "uint256"
        },
        {
          "indexed": false,
          "internalType": "uint256",
          "name": "lotteryAmount",
          "type": "uint256"
        },
        {
          "indexed": false,
          "internalType": "uint256",
          "name": "lastWeekTopDeposit",
          "type": "uint256"
        }
      ],
      "name": "LOTTERY",
      "type": "event"
    },
    {
      "anonymous": false,
      "inputs": [
        {
          "indexed": true,
          "internalType": "address",
          "name": "previousOwner",
          "type": "address"
        },
        {
          "indexed": true,
          "internalType": "address",
          "name": "newOwner",
          "type": "address"
        }
      ],
      "name": "OwnershipTransferred",
      "type": "event"
    },
    {
      "anonymous": false,
      "inputs": [
        {
          "indexed": false,
          "internalType": "address",
          "name": "Staker",
          "type": "address"
        },
        {
          "indexed": false,
          "internalType": "uint256",
          "name": "amount",
          "type": "uint256"
        }
      ],
      "name": "STAKE",
      "type": "event"
    },
    {
      "anonymous": false,
      "inputs": [
        {
          "indexed": false,
          "internalType": "address",
          "name": "Staker",
          "type": "address"
        },
        {
          "indexed": false,
          "internalType": "uint256",
          "name": "amount",
          "type": "uint256"
        }
      ],
      "name": "WITHDRAW",
      "type": "event"
    },
    {
      "inputs": [],
      "name": "accumulationDuration",
      "outputs": [
        {
          "internalType": "uint256",
          "name": "",
          "type": "uint256"
        }
      ],
      "stateMutability": "view",
      "type": "function"
    },
    {
      "inputs": [],
      "name": "basePercent",
      "outputs": [
        {
          "internalType": "uint256",
          "name": "",
          "type": "uint256"
        }
      ],
      "stateMutability": "view",
      "type": "function"
    },
    {
      "inputs": [],
      "name": "claimDuration",
      "outputs": [
        {
          "internalType": "uint256",
          "name": "",
          "type": "uint256"
        }
      ],
      "stateMutability": "view",
      "type": "function"
    },
    {
      "inputs": [],
      "name": "currentWeek",
      "outputs": [
        {
          "internalType": "uint256",
          "name": "",
          "type": "uint256"
        }
      ],
      "stateMutability": "view",
      "type": "function"
    },
    {
      "inputs": [],
      "name": "dev",
      "outputs": [
        {
          "internalType": "address",
          "name": "",
          "type": "address"
        }
      ],
      "stateMutability": "view",
      "type": "function"
    },
    {
      "inputs": [],
      "name": "dev1FeePercent",
      "outputs": [
        {
          "internalType": "uint256",
          "name": "",
          "type": "uint256"
        }
      ],
      "stateMutability": "view",
      "type": "function"
    },
    {
      "inputs": [],
      "name": "dev2",
      "outputs": [
        {
          "internalType": "address",
          "name": "",
          "type": "address"
        }
      ],
      "stateMutability": "view",
      "type": "function"
    },
    {
      "inputs": [],
      "name": "dev2FeePercent",
      "outputs": [
        {
          "internalType": "uint256",
          "name": "",
          "type": "uint256"
        }
      ],
      "stateMutability": "view",
      "type": "function"
    },
    {
      "inputs": [],
      "name": "developmentWallet1",
      "outputs": [
        {
          "internalType": "address",
          "name": "",
          "type": "address"
        }
      ],
      "stateMutability": "view",
      "type": "function"
    },
    {
      "inputs": [],
      "name": "developmentWallet2",
      "outputs": [
        {
          "internalType": "address",
          "name": "",
          "type": "address"
        }
      ],
      "stateMutability": "view",
      "type": "function"
    },
    {
      "inputs": [],
      "name": "haltAccEndTime",
      "outputs": [
        {
          "internalType": "uint256",
          "name": "",
          "type": "uint256"
        }
      ],
      "stateMutability": "view",
      "type": "function"
    },
    {
      "inputs": [],
      "name": "haltAccStartTime",
      "outputs": [
        {
          "internalType": "uint256",
          "name": "",
          "type": "uint256"
        }
      ],
      "stateMutability": "view",
      "type": "function"
    },
    {
      "inputs": [],
      "name": "haltAccumulation",
      "outputs": [
        {
          "internalType": "bool",
          "name": "",
          "type": "bool"
        }
      ],
      "stateMutability": "view",
      "type": "function"
    },
    {
      "inputs": [],
      "name": "haltDeposits",
      "outputs": [
        {
          "internalType": "bool",
          "name": "",
          "type": "bool"
        }
      ],
      "stateMutability": "view",
      "type": "function"
    },
    {
      "inputs": [],
      "name": "haltWithdraws",
      "outputs": [
        {
          "internalType": "bool",
          "name": "",
          "type": "bool"
        }
      ],
      "stateMutability": "view",
      "type": "function"
    },
    {
      "inputs": [],
      "name": "launchTime",
      "outputs": [
        {
          "internalType": "uint256",
          "name": "",
          "type": "uint256"
        }
      ],
      "stateMutability": "view",
      "type": "function"
    },
    {
      "inputs": [],
      "name": "launched",
      "outputs": [
        {
          "internalType": "bool",
          "name": "",
          "type": "bool"
        }
      ],
      "stateMutability": "view",
      "type": "function"
    },
    {
      "inputs": [],
      "name": "lockDuration",
      "outputs": [
        {
          "internalType": "uint256",
          "name": "",
          "type": "uint256"
        }
      ],
      "stateMutability": "view",
      "type": "function"
    },
    {
      "inputs": [],
      "name": "lotteryFeePercent",
      "outputs": [
        {
          "internalType": "uint256",
          "name": "",
          "type": "uint256"
        }
      ],
      "stateMutability": "view",
      "type": "function"
    },
    {
      "inputs": [],
      "name": "lotteryPercent",
      "outputs": [
        {
          "internalType": "uint256",
          "name": "",
          "type": "uint256"
        }
      ],
      "stateMutability": "view",
      "type": "function"
    },
    {
      "inputs": [],
      "name": "lotteryPool",
      "outputs": [
        {
          "internalType": "uint256",
          "name": "",
          "type": "uint256"
        }
      ],
      "stateMutability": "view",
      "type": "function"
    },
    {
      "inputs": [],
      "name": "marketingFeePercent",
      "outputs": [
        {
          "internalType": "uint256",
          "name": "",
          "type": "uint256"
        }
      ],
      "stateMutability": "view",
      "type": "function"
    },
    {
      "inputs": [],
      "name": "marketingWallet",
      "outputs": [
        {
          "internalType": "address",
          "name": "",
          "type": "address"
        }
      ],
      "stateMutability": "view",
      "type": "function"
    },
    {
      "inputs": [],
      "name": "maxDeposit",
      "outputs": [
        {
          "internalType": "uint256",
          "name": "",
          "type": "uint256"
        }
      ],
      "stateMutability": "view",
      "type": "function"
    },
    {
      "inputs": [],
      "name": "minDeposit",
      "outputs": [
        {
          "internalType": "uint256",
          "name": "",
          "type": "uint256"
        }
      ],
      "stateMutability": "view",
      "type": "function"
    },
    {
      "inputs": [],
      "name": "multiSigWallet",
      "outputs": [
        {
          "internalType": "address",
          "name": "",
          "type": "address"
        }
      ],
      "stateMutability": "view",
      "type": "function"
    },
    {
      "inputs": [],
      "name": "owner",
      "outputs": [
        {
          "internalType": "address",
          "name": "",
          "type": "address"
        }
      ],
      "stateMutability": "view",
      "type": "function"
    },
    {
      "inputs": [],
      "name": "ownerFeePercent",
      "outputs": [
        {
          "internalType": "uint256",
          "name": "",
          "type": "uint256"
        }
      ],
      "stateMutability": "view",
      "type": "function"
    },
    {
      "inputs": [],
      "name": "ownerWallet",
      "outputs": [
        {
          "internalType": "address",
          "name": "",
          "type": "address"
        }
      ],
      "stateMutability": "view",
      "type": "function"
    },
    {
      "inputs": [],
      "name": "percentDivider",
      "outputs": [
        {
          "internalType": "uint256",
          "name": "",
          "type": "uint256"
        }
      ],
      "stateMutability": "view",
      "type": "function"
    },
    {
      "inputs": [],
      "name": "referralPercent",
      "outputs": [
        {
          "internalType": "uint256",
          "name": "",
          "type": "uint256"
        }
      ],
      "stateMutability": "view",
      "type": "function"
    },
    {
      "inputs": [],
      "name": "referrerPercent",
      "outputs": [
        {
          "internalType": "uint256",
          "name": "",
          "type": "uint256"
        }
      ],
      "stateMutability": "view",
      "type": "function"
    },
    {
      "inputs": [],
      "name": "renounceOwnership",
      "outputs": [],
      "stateMutability": "nonpayable",
      "type": "function"
    },
    {
      "inputs": [
        {
          "internalType": "uint256",
          "name": "",
          "type": "uint256"
        }
      ],
      "name": "requiredTeamAmount",
      "outputs": [
        {
          "internalType": "uint256",
          "name": "",
          "type": "uint256"
        }
      ],
      "stateMutability": "view",
      "type": "function"
    },
    {
      "inputs": [
        {
          "internalType": "uint256",
          "name": "",
          "type": "uint256"
        }
      ],
      "name": "requiredTeamUsers",
      "outputs": [
        {
          "internalType": "uint256",
          "name": "",
          "type": "uint256"
        }
      ],
      "stateMutability": "view",
      "type": "function"
    },
    {
      "inputs": [],
      "name": "teamPercentMultiplier",
      "outputs": [
        {
          "internalType": "uint256",
          "name": "",
          "type": "uint256"
        }
      ],
      "stateMutability": "view",
      "type": "function"
    },
    {
      "inputs": [],
      "name": "timeStep",
      "outputs": [
        {
          "internalType": "uint256",
          "name": "",
          "type": "uint256"
        }
      ],
      "stateMutability": "view",
      "type": "function"
    },
    {
      "inputs": [],
      "name": "topDepositThisWeek",
      "outputs": [
        {
          "internalType": "uint256",
          "name": "",
          "type": "uint256"
        }
      ],
      "stateMutability": "view",
      "type": "function"
    },
    {
      "inputs": [],
      "name": "topTeamThisWeek",
      "outputs": [
        {
          "internalType": "uint256",
          "name": "",
          "type": "uint256"
        }
      ],
      "stateMutability": "view",
      "type": "function"
    },
    {
      "inputs": [],
      "name": "totalRefRewards",
      "outputs": [
        {
          "internalType": "uint256",
          "name": "",
          "type": "uint256"
        }
      ],
      "stateMutability": "view",
      "type": "function"
    },
    {
      "inputs": [],
      "name": "totalStaked",
      "outputs": [
        {
          "internalType": "uint256",
          "name": "",
          "type": "uint256"
        }
      ],
      "stateMutability": "view",
      "type": "function"
    },
    {
      "inputs": [],
      "name": "totalWithdrawan",
      "outputs": [
        {
          "internalType": "uint256",
          "name": "",
          "type": "uint256"
        }
      ],
      "stateMutability": "view",
      "type": "function"
    },
    {
      "inputs": [
        {
          "internalType": "address",
          "name": "newOwner",
          "type": "address"
        },
        {
          "internalType": "address",
          "name": "newDev",
          "type": "address"
        },
        {
          "internalType": "address",
          "name": "newDev2",
          "type": "address"
        }
      ],
      "name": "transferOwnership",
      "outputs": [],
      "stateMutability": "nonpayable",
      "type": "function"
    },
    {
      "inputs": [],
      "name": "uniqueStakers",
      "outputs": [
        {
          "internalType": "uint256",
          "name": "",
          "type": "uint256"
        }
      ],
      "stateMutability": "view",
      "type": "function"
    },
    {
      "inputs": [],
      "name": "uniqueTeamId",
      "outputs": [
        {
          "internalType": "uint256",
          "name": "",
          "type": "uint256"
        }
      ],
      "stateMutability": "view",
      "type": "function"
    },
    {
      "inputs": [],
      "name": "usdc",
      "outputs": [
        {
          "internalType": "contract IERC20MetadataUpgradeable",
          "name": "",
          "type": "address"
        }
      ],
      "stateMutability": "view",
      "type": "function"
    },
    {
      "inputs": [],
      "name": "wolfV1",
      "outputs": [
        {
          "internalType": "contract IWolf",
          "name": "",
          "type": "address"
        }
      ],
      "stateMutability": "view",
      "type": "function"
    },
    {
      "inputs": [],
      "name": "initialize",
      "outputs": [],
      "stateMutability": "nonpayable",
      "type": "function"
    },
    {
      "inputs": [
        {
          "internalType": "address[]",
          "name": "_users",
          "type": "address[]"
        }
      ],
      "name": "migratemultipleUsers",
      "outputs": [],
      "stateMutability": "nonpayable",
      "type": "function"
    },
    {
      "inputs": [
        {
          "internalType": "uint256[]",
          "name": "_teamIds",
          "type": "uint256[]"
        },
        {
          "internalType": "uint256",
          "name": "_week",
          "type": "uint256"
        }
      ],
      "name": "migrateTeamWeeklyDeposits",
      "outputs": [],
      "stateMutability": "nonpayable",
      "type": "function"
    },
    {
      "inputs": [
        {
          "internalType": "uint256[]",
          "name": "_teamIds",
          "type": "uint256[]"
        }
      ],
      "name": "migrateTeamData",
      "outputs": [],
      "stateMutability": "nonpayable",
      "type": "function"
    },
    {
      "inputs": [],
      "name": "updateWeekly",
      "outputs": [],
      "stateMutability": "nonpayable",
      "type": "function"
    },
    {
      "inputs": [
        {
          "internalType": "address",
          "name": "_referrer",
          "type": "address"
        },
        {
          "internalType": "uint256",
          "name": "_amount",
          "type": "uint256"
        }
      ],
      "name": "stake",
      "outputs": [],
      "stateMutability": "nonpayable",
      "type": "function"
    },
    {
      "inputs": [
        {
          "internalType": "uint256",
          "name": "_index",
          "type": "uint256"
        }
      ],
      "name": "claim",
      "outputs": [],
      "stateMutability": "nonpayable",
      "type": "function"
    },
    {
      "inputs": [],
      "name": "claimAll",
      "outputs": [],
      "stateMutability": "nonpayable",
      "type": "function"
    },
    {
      "inputs": [
        {
          "internalType": "uint256",
          "name": "_index",
          "type": "uint256"
        }
      ],
      "name": "withdraw",
      "outputs": [],
      "stateMutability": "nonpayable",
      "type": "function"
    },
    {
      "inputs": [],
      "name": "claimLottery",
      "outputs": [],
      "stateMutability": "nonpayable",
      "type": "function"
    },
    {
      "inputs": [],
      "name": "calculateWeek",
      "outputs": [
        {
          "internalType": "uint256",
          "name": "",
          "type": "uint256"
        }
      ],
      "stateMutability": "view",
      "type": "function"
    },
    {
      "inputs": [
        {
          "internalType": "address",
          "name": "_user",
          "type": "address"
        },
        {
          "internalType": "uint256",
          "name": "_index",
          "type": "uint256"
        }
      ],
      "name": "calculateReward",
      "outputs": [
        {
          "internalType": "uint256",
          "name": "_reward",
          "type": "uint256"
        }
      ],
      "stateMutability": "view",
      "type": "function"
    },
    {
      "inputs": [
        {
          "internalType": "address",
          "name": "_user",
          "type": "address"
        }
      ],
      "name": "getUserInfo",
      "outputs": [
        {
          "internalType": "bool",
          "name": "_isExists",
          "type": "bool"
        },
        {
          "internalType": "uint256",
          "name": "_stakeCount",
          "type": "uint256"
        },
        {
          "internalType": "address",
          "name": "_referrer",
          "type": "address"
        },
        {
          "internalType": "uint256",
          "name": "_referrals",
          "type": "uint256"
        },
        {
          "internalType": "uint256",
          "name": "_referralRewards",
          "type": "uint256"
        },
        {
          "internalType": "uint256",
          "name": "_teamId",
          "type": "uint256"
        },
        {
          "internalType": "uint256",
          "name": "_currentStaked",
          "type": "uint256"
        },
        {
          "internalType": "uint256",
          "name": "_totalStaked",
          "type": "uint256"
        },
        {
          "internalType": "uint256",
          "name": "_totalWithdrawan",
          "type": "uint256"
        }
      ],
      "stateMutability": "view",
      "type": "function"
    },
    {
      "inputs": [
        {
          "internalType": "address",
          "name": "_user",
          "type": "address"
        },
        {
          "internalType": "uint256",
          "name": "_index",
          "type": "uint256"
        }
      ],
      "name": "getUserTokenStakeInfo",
      "outputs": [
        {
          "internalType": "uint256",
          "name": "_amount",
          "type": "uint256"
        },
        {
          "internalType": "uint256",
          "name": "_checkpoint",
          "type": "uint256"
        },
        {
          "internalType": "uint256",
          "name": "_claimedReward",
          "type": "uint256"
        },
        {
          "internalType": "uint256",
          "name": "_startTime",
          "type": "uint256"
        },
        {
          "internalType": "bool",
          "name": "_isActive",
          "type": "bool"
        }
      ],
      "stateMutability": "view",
      "type": "function"
    },
    {
      "inputs": [
        {
          "internalType": "address",
          "name": "_user",
          "type": "address"
        },
        {
          "internalType": "uint256",
          "name": "_week",
          "type": "uint256"
        }
      ],
      "name": "getUserLotteryClaimedStatus",
      "outputs": [
        {
          "internalType": "bool",
          "name": "_status",
          "type": "bool"
        }
      ],
      "stateMutability": "view",
      "type": "function"
    },
    {
      "inputs": [
        {
          "internalType": "uint256",
          "name": "_teamId",
          "type": "uint256"
        }
      ],
      "name": "getTeamInfo",
      "outputs": [
        {
          "internalType": "address",
          "name": "_Lead",
          "type": "address"
        },
        {
          "internalType": "string",
          "name": "_teamName",
          "type": "string"
        },
        {
          "internalType": "uint256",
          "name": "_teamCount",
          "type": "uint256"
        },
        {
          "internalType": "uint256",
          "name": "_teamAmount",
          "type": "uint256"
        },
        {
          "internalType": "uint256",
          "name": "_currentPercent",
          "type": "uint256"
        }
      ],
      "stateMutability": "view",
      "type": "function"
    },
    {
      "inputs": [
        {
          "internalType": "uint256",
          "name": "_teamId",
          "type": "uint256"
        },
        {
          "internalType": "uint256",
          "name": "_index",
          "type": "uint256"
        }
      ],
      "name": "getAllTeamMembers",
      "outputs": [
        {
          "internalType": "address",
          "name": "_teamMember",
          "type": "address"
        }
      ],
      "stateMutability": "view",
      "type": "function"
    },
    {
      "inputs": [
        {
          "internalType": "uint256",
          "name": "_teamId",
          "type": "uint256"
        },
        {
          "internalType": "uint256",
          "name": "_week",
          "type": "uint256"
        }
      ],
      "name": "getTeamLotteryAmount",
      "outputs": [
        {
          "internalType": "uint256",
          "name": "_amount",
          "type": "uint256"
        }
      ],
      "stateMutability": "view",
      "type": "function"
    },
    {
      "inputs": [
        {
          "internalType": "uint256",
          "name": "_teamId",
          "type": "uint256"
        },
        {
          "internalType": "uint256",
          "name": "_week",
          "type": "uint256"
        }
      ],
      "name": "getTeamWeeklyDepositAmount",
      "outputs": [
        {
          "internalType": "uint256",
          "name": "_amount",
          "type": "uint256"
        }
      ],
      "stateMutability": "view",
      "type": "function"
    },
    {
      "inputs": [
        {
          "internalType": "uint256",
          "name": "_week",
          "type": "uint256"
        }
      ],
      "name": "getWinnersHistory",
      "outputs": [
        {
          "internalType": "uint256",
          "name": "_team",
          "type": "uint256"
        }
      ],
      "stateMutability": "view",
      "type": "function"
    },
    {
      "inputs": [
        {
          "internalType": "address",
          "name": "_user",
          "type": "address"
        }
      ],
      "name": "getUserMigrationStatus",
      "outputs": [
        {
          "internalType": "bool",
          "name": "",
          "type": "bool"
        }
      ],
      "stateMutability": "view",
      "type": "function"
    },
    {
      "inputs": [
        {
          "internalType": "uint256",
          "name": "_teamId",
          "type": "uint256"
        }
      ],
      "name": "getTeamMigrationStatus",
      "outputs": [
        {
          "internalType": "bool",
          "name": "",
          "type": "bool"
        }
      ],
      "stateMutability": "view",
      "type": "function"
    },
    {
      "inputs": [],
      "name": "getContractBalance",
      "outputs": [
        {
          "internalType": "uint256",
          "name": "",
          "type": "uint256"
        }
      ],
      "stateMutability": "view",
      "type": "function"
    },
    {
      "inputs": [
        {
          "internalType": "uint256[10]",
          "name": "_values",
          "type": "uint256[10]"
        }
      ],
      "name": "migrateAllStateValues",
      "outputs": [],
      "stateMutability": "nonpayable",
      "type": "function"
    },
    {
      "inputs": [],
      "name": "launch",
      "outputs": [],
      "stateMutability": "nonpayable",
      "type": "function"
    },
    {
      "inputs": [
        {
          "internalType": "bool",
          "name": "_state",
          "type": "bool"
        }
      ],
      "name": "setHaltDeposits",
      "outputs": [],
      "stateMutability": "nonpayable",
      "type": "function"
    },
    {
      "inputs": [
        {
          "internalType": "bool",
          "name": "_state",
          "type": "bool"
        }
      ],
      "name": "setHaltWithdraws",
      "outputs": [],
      "stateMutability": "nonpayable",
      "type": "function"
    },
    {
      "inputs": [
        {
          "internalType": "bool",
          "name": "_state",
          "type": "bool"
        }
      ],
      "name": "setHaltAccumulation",
      "outputs": [],
      "stateMutability": "nonpayable",
      "type": "function"
    },
    {
      "inputs": [
        {
          "internalType": "address",
          "name": "_token",
          "type": "address"
        },
        {
          "internalType": "uint256",
          "name": "_amount",
          "type": "uint256"
        }
      ],
      "name": "migrateFunds",
      "outputs": [],
      "stateMutability": "nonpayable",
      "type": "function"
    },
    {
      "inputs": [
        {
          "internalType": "string",
          "name": "_name",
          "type": "string"
        }
      ],
      "name": "SetTeamName",
      "outputs": [],
      "stateMutability": "nonpayable",
      "type": "function"
    },
    {
      "inputs": [
        {
          "internalType": "uint256",
          "name": "_min",
          "type": "uint256"
        },
        {
          "internalType": "uint256",
          "name": "_max",
          "type": "uint256"
        }
      ],
      "name": "SetDepositLimits",
      "outputs": [],
      "stateMutability": "nonpayable",
      "type": "function"
    },
    {
      "inputs": [
        {
          "internalType": "address",
          "name": "_ownerWallet",
          "type": "address"
        },
        {
          "internalType": "address",
          "name": "_marketingWallet",
          "type": "address"
        },
        {
          "internalType": "address",
          "name": "_developmentWallet1",
          "type": "address"
        },
        {
          "internalType": "address",
          "name": "_developmentWallet2",
          "type": "address"
        }
      ],
      "name": "setFeeWallets",
      "outputs": [],
      "stateMutability": "nonpayable",
      "type": "function"
    },
    {
      "inputs": [
        {
          "internalType": "address",
          "name": "_newWallet",
          "type": "address"
        }
      ],
      "name": "setMultiSigWallet",
      "outputs": [],
      "stateMutability": "nonpayable",
      "type": "function"
    },
    {
      "inputs": [
        {
          "internalType": "address",
          "name": "_newToken",
          "type": "address"
        },
        {
          "internalType": "address",
          "name": "_oldWolf",
          "type": "address"
        }
      ],
      "name": "setContracts",
      "outputs": [],
      "stateMutability": "nonpayable",
      "type": "function"
    },
    {
      "inputs": [
        {
          "internalType": "uint256",
          "name": "_basePercent",
          "type": "uint256"
        },
        {
          "internalType": "uint256",
          "name": "_teamPercent",
          "type": "uint256"
        }
      ],
      "name": "setBasePercent",
      "outputs": [],
      "stateMutability": "nonpayable",
      "type": "function"
    },
    {
      "inputs": [
        {
          "internalType": "uint256",
          "name": "_1",
          "type": "uint256"
        },
        {
          "internalType": "uint256",
          "name": "_2",
          "type": "uint256"
        },
        {
          "internalType": "uint256",
          "name": "_3",
          "type": "uint256"
        },
        {
          "internalType": "uint256",
          "name": "_4",
          "type": "uint256"
        }
      ],
      "name": "setDurations",
      "outputs": [],
      "stateMutability": "nonpayable",
      "type": "function"
    }
  ],
  "bytecode": "0x608060405234801561001057600080fd5b50613f82806100206000396000f3fe608060405234801561001057600080fd5b50600436106104a15760003560e01c806374f51c391161026d578063ab1a4d9411610151578063d6dbf057116100ce578063eb33733b11610092578063eb33733b14610b00578063ec99720d14610b09578063ef646daf14610b1c578063f03b0c0b14610b25578063fdc8b64714610b38578063fe6f1b0514610b4157600080fd5b8063d6dbf05714610ab5578063d8952a4914610ac8578063da6fa55c14610adb578063daceb20514610ae4578063e937b47814610aed57600080fd5b8063c5ac0ded11610115578063c5ac0ded14610a7f578063c981500514610a88578063cdd5f2d814610a91578063d008043114610aa4578063d1058e5914610aad57600080fd5b8063ab1a4d9414610a34578063adc9772e14610a3d578063bc17d55d14610a50578063bfe0e02014610a63578063c5598df914610a6c57600080fd5b80638c74945e116101ea57806399707a7b116101ae57806399707a7b146109ba5780639b6057b1146109cd578063a301ba6f146109f9578063a443c6e414610a06578063a607232814610a19578063a9c117f714610a2157600080fd5b80638c74945e1461092e5780638da5cb5b1461095d57806391cca3db146109705780639335dcb714610983578063969215ba1461099657600080fd5b80638013f3a7116102315780638013f3a7146108e35780638091f3bf146108f65780638129fc1c1461090a578063817b1cd214610912578063888321371461091b57600080fd5b806374f51c391461089857806375f0a874146108ab578063790ca413146108be5780637920e293146108c75780637c356df8146108da57600080fd5b806346eeaa3f116103945780635b8f1e4a1161031157806363b996c5116102d557806363b996c5146108515780636615d437146108645780636998de351461086c5780636b760a94146108755780636f9fb98a14610888578063715018a61461089057600080fd5b80635b8f1e4a1461075b5780635f6ea49b1461076e5780636083e59a14610781578063636d98b11461078a5780636386c1c71461079357600080fd5b806350d67b3c1161035857806350d67b3c14610704578063562943d11461070d57806357e09eeb1461072057806357eb981a1461074057806358e1eaaf1461075257600080fd5b806346eeaa3f146106315780634b8feb4f146106545780634d77b701146106675780634e486b1c146106e95780634ed6575f146106fc57600080fd5b80632ab463fb11610422578063379607f5116103e6578063379607f5146105f05780633e413bee1461060357806341680f7d1461061657806341b3d1851461061f578063429b2be71461062857600080fd5b80632ab463fb1461057a5780632c831633146105835780632e1a7d4d1461058c57806331fe34481461059f578063343dfb7e146105e757600080fd5b806310db930d1161046957806310db930d146105135780631502906d1461051c5780631852e8d914610525578063196f9cdd146105385780631b94eaaf1461056757600080fd5b806301339c21146104a657806304554443146104b05780630604defe146104cc57806306575c89146104df5780630b0bb594146104e8575b600080fd5b6104ae610b4a565b005b6104b9608b5481565b6040519081526020015b60405180910390f35b6104ae6104da366004613668565b610bbd565b6104b960765481565b6104fb6104f63660046136ad565b610cc6565b6040516001600160a01b0390911681526020016104c3565b6104b9607f5481565b6104b960885481565b6104b96105333660046136e4565b610d05565b6104b96105463660046136ad565b600091825260a1602090815260408084209284526006909201905290205490565b606c546104fb906001600160a01b031681565b6104b960815481565b6104b960745481565b6104ae61059a366004613710565b610dfd565b6105d76105ad3660046136e4565b6001600160a01b03909116600090815260a360209081526040808320938352929052205460ff1690565b60405190151581526020016104c3565b6104b960845481565b6104ae6105fe366004613710565b611070565b6067546104fb906001600160a01b031681565b6104b960755481565b6104b960865481565b6104b960785481565b6105d761063f366004613710565b600090815260a6602052604090205460ff1690565b606d546104fb906001600160a01b031681565b6106bf6106753660046136e4565b6001600160a01b03909116600090815260a260209081526040808320938352929052208054600182015460028301546003840154600490940154929491939092909160ff90911690565b6040805195865260208601949094529284019190915260608301521515608082015260a0016104c3565b6104ae6106f73660046136ad565b611327565b6104ae61133a565b6104b960725481565b607a546105d79062010000900460ff1681565b6104b961072e366004613710565b600090815260a4602052604090205490565b607a546105d790610100900460ff1681565b6104b960805481565b606b546104fb906001600160a01b031681565b6104ae61077c366004613729565b611365565b6104b960875481565b6104b960835481565b6107fd6107a1366004613785565b6001600160a01b03908116600090815260a060205260409020805460048201546001830154600284015460038501546005860154600687015460079097015460ff87169995986101009097049096169693959294919390929091565b604080519915158a5260208a01989098526001600160a01b03909616968801969096526060870193909352608086019190915260a085015260c084015260e0830191909152610100820152610120016104c3565b6104b961085f366004613710565b6113bd565b6104b96113d4565b6104b9607d5481565b6104ae6108833660046137a2565b611401565b6104b9611479565b6104ae6114e6565b6104ae6108a63660046137ed565b6114fb565b606a546104fb906001600160a01b031681565b6104b960775481565b6104ae6108d536600461386c565b611566565b6104b960715481565b6035546104fb906001600160a01b031681565b607a546105d7906301000000900460ff1681565b6104ae611640565b6104b9606e5481565b6104b9610929366004613710565b6118b7565b6104b961093c3660046136ad565b600091825260a1602090815260408084209284526007909201905290205490565b6033546104fb906001600160a01b031681565b6034546104fb906001600160a01b031681565b6069546104fb906001600160a01b031681565b6109a96109a4366004613710565b6118c7565b6040516104c3959493929190613962565b6104ae6109c83660046139a3565b61199b565b6105d76109db366004613785565b6001600160a01b0316600090815260a5602052604090205460ff1690565b607a546105d79060ff1681565b6104ae610a143660046139fd565b6119b7565b6104ae611a36565b6104ae610a2f3660046136e4565b611c5b565b6104b960895481565b6104ae610a4b3660046136e4565b611d1d565b6104ae610a5e3660046136ad565b61205c565b6104b960705481565b6104ae610a7a366004613a78565b61206f565b6104b9607b5481565b6104b960795481565b6068546104fb906001600160a01b031681565b6104b9606f5481565b6104ae6120fd565b6104ae610ac3366004613ac3565b612331565b6104ae610ad6366004613ae0565b612353565b6104b9607e5481565b6104b960735481565b6104ae610afb366004613ac3565b612389565b6104b9607c5481565b6104ae610b17366004613ac3565b6123bf565b6104b9608a5481565b6104ae610b33366004613785565b6123da565b6104b960825481565b6104b960855481565b610b52612447565b607a546301000000900460ff1615610ba45760405162461bcd60e51b815260206004820152601060248201526f105b1c9958591e481b185d5b98da195960821b60448201526064015b60405180910390fd5b607a805463ff0000001916630100000017905542607755565b610bc5612447565b60005b8251811015610cc15760685483516001600160a01b0390911690638c74945e90859084908110610bfa57610bfa613b19565b6020026020010151846040518363ffffffff1660e01b8152600401610c29929190918252602082015260400190565b602060405180830381865afa158015610c46573d6000803e3d6000fd5b505050506040513d601f19601f82011682018060405250810190610c6a9190613b2f565b60a16000858481518110610c8057610c80613b19565b602002602001015181526020019081526020016000206007016000848152602001908152602001600020819055508080610cb990613b5e565b915050610bc8565b505050565b600082815260a160205260408120600501805483908110610ce957610ce9613b19565b6000918252602090912001546001600160a01b03169392505050565b607a5460009062010000900460ff1615610d2157506000610df7565b6001600160a01b038316600081815260a260209081526040808320868452825280832093835260a0825280832060030154835260a190915281206001830154909190610d6e9042906124cb565b905060785483600101541015610d9b57607854607954610d8e9190613b79565b610d989082613b79565b90505b608a54811115610daa5750608a545b610df1610dc460885460855461251490919063ffffffff16565b610deb8460040154607b54610dd99190613b90565b8654610de59086612514565b90612514565b90612593565b93505050505b92915050565b607a546301000000900460ff16610e265760405162461bcd60e51b8152600401610b9b90613ba8565b607a54610100900460ff1615610e4e5760405162461bcd60e51b8152600401610b9b90613bd1565b610e5661133a565b33600090815260a06020908152604080832060a2835281842085855290925290912060048201548310610ebb5760405162461bcd60e51b815260206004820152600d60248201526c092dcecc2d8d2c840d2dcc8caf609b1b6044820152606401610b9b565b600481015460ff16610f035760405162461bcd60e51b815260206004820152601160248201527020b63932b0b23c903bb4ba34323930bbb760791b6044820152606401610b9b565b608b548160030154610f159190613b90565b421015610f585760405162461bcd60e51b81526020600482015260116024820152705761697420666f7220656e642074696d6560781b6044820152606401610b9b565b606754815460405163a9059cbb60e01b81526001600160a01b039092169163a9059cbb91610f8b91339190600401613c00565b6020604051808303816000875af1158015610faa573d6000803e3d6000fd5b505050506040513d601f19601f82011682018060405250810190610fce9190613c19565b5060048101805460ff191690554260018201558054600583018054600090610ff7908490613b79565b90915550508054600783018054600090611012908490613b90565b90915550508054606f805460009061102b908490613b90565b909155505080546040517f4f14ea4e43cc569e4fb4d8fa171366f2f6925bfade37c5cc93334e373a4c98479161106391339190613c00565b60405180910390a1505050565b607a546301000000900460ff166110995760405162461bcd60e51b8152600401610b9b90613ba8565b607a54610100900460ff16156110c15760405162461bcd60e51b8152600401610b9b90613bd1565b6110c961133a565b33600090815260a06020908152604080832060a283528184208585529092529091206004820154831061112e5760405162461bcd60e51b815260206004820152600d60248201526c092dcecc2d8d2c840d2dcc8caf609b1b6044820152606401610b9b565b600481015460ff166111765760405162461bcd60e51b815260206004820152601160248201527020b63932b0b23c903bb4ba34323930bbb760791b6044820152606401610b9b565b60895481600101546111889190613b90565b4210156111cd5760405162461bcd60e51b81526020600482015260136024820152725761697420666f7220636c61696d2074696d6560681b6044820152606401610b9b565b60006111d93385610d05565b90506000811161121b5760405162461bcd60e51b815260206004820152600d60248201526c043616e277420636c61696d203609c1b6044820152606401610b9b565b60675460405163a9059cbb60e01b81526001600160a01b039091169063a9059cbb9061124d9033908590600401613c00565b6020604051808303816000875af115801561126c573d6000803e3d6000fd5b505050506040513d601f19601f820116820180604052508101906112909190613c19565b50428260010181905550808260020160008282546112ae9190613b90565b92505081905550808360070160008282546112c99190613b90565b9250508190555080606f60008282546112e29190613b90565b90915550506040517fcea16a2d83554574def1edf3ec1fb53f1373f7ebb1fa98fecdaa4268588793cc906113199033908490613c00565b60405180910390a150505050565b61132f612447565b607b91909155607c55565b6113426113d4565b60765414611363576113526125d5565b61135a6113d4565b60765560006072555b565b61136d612447565b606980546001600160a01b039586166001600160a01b031991821617909155606a805494861694821694909417909355606b805492851692841692909217909155606c8054919093169116179055565b608c81600a81106113cd57600080fd5b0154905081565b600060885460076113e59190613c36565b6077546113f29042613b79565b6113fc9190613c55565b905090565b611409612447565b6001600160a01b03831661146e5760405162461bcd60e51b815260206004820152602660248201527f4f776e61626c653a206e6577206f776e657220697320746865207a65726f206160448201526564647265737360d01b6064820152608401610b9b565b610cc183838361268a565b6067546040516370a0823160e01b81523060048201526000916001600160a01b0316906370a0823190602401602060405180830381865afa1580156114c2573d6000803e3d6000fd5b505050506040513d601f19601f820116820180604052508101906113fc9190613b2f565b6114ee612447565b611363600080600061268a565b611503612447565b8051606e556020810151606f5560408101516070556060810151607155608081015160725560a081015160735560c081015160745560e08101516075556101008101516076556101200151607755607a805463ff00000019166301000000179055565b61156e612447565b60005b815181101561163c5761159c82828151811061158f5761158f613b19565b60200260200101516126fb565b6115be8282815181106115b1576115b1613b19565b60200260200101516127c5565b6115e08282815181106115d3576115d3613b19565b602002602001015161286f565b600160a560008484815181106115f8576115f8613b19565b6020908102919091018101516001600160a01b03168252810191909152604001600020805460ff19169115159190911790558061163481613b5e565b915050611571565b5050565b600054610100900460ff16158080156116605750600054600160ff909116105b8061167a5750303b15801561167a575060005460ff166001145b6116dd5760405162461bcd60e51b815260206004820152602e60248201527f496e697469616c697a61626c653a20636f6e747261637420697320616c72656160448201526d191e481a5b9a5d1a585b1a5e995960921b6064820152608401610b9b565b6000805460ff191660011790558015611700576000805461ff0019166101001790555b606880546001600160a01b0319908116734bba559128f2630459655ad548a5b6e5f31d97f417909155606780548216738ac76a51cc950d9822d68b83fe1ad97b32cd580d179055603380548216735886b6b942f8dab2488961f603a4be8c3015a1a9908117909155603480548316737f35be372873e06c15dd7f9494a426acab99c6de908117909155606980548416909217909155606a805483167357741a3f319d526f9ddba1d181207c8bd06c2914179055606b805483169091179055606c80548216737db1a2f972652020e8664005b6119f21a64c39b8179055606d80549091167305c09f12e03a56fbc03edb8acb2ef7933e1ff45c1790556064607b819055600a607c5561012c607d55610190607e55607f8190556080819055608155610bb8608255609660838190556084556127106085556802b5e3af16b188000060865569152d02c7e14af68000006087556201518060885562093a80608955620d2f00608a55624f1a00608b5580156118b4576000805461ff0019169055604051600181527f7f26b83ff96e1f2b6a682f133852f6798a09c465da95921460cefb3847402498906020015b60405180910390a15b50565b609681600a81106113cd57600080fd5b600081815260a16020526040812080546001820180546001600160a01b0390921693606093909283928392916118fc90613c77565b80601f016020809104026020016040519081016040528092919081815260200182805461192890613c77565b80156119755780601f1061194a57610100808354040283529160200191611975565b820191906000526020600020905b81548152906001019060200180831161195857829003601f168201915b505050505094508060020154935080600301549250806004015491505091939590929450565b6119a3612447565b608893909355608991909155608a55608b55565b33600081815260a06020908152604080832060030154835260a19091529020805490916001600160a01b0390911614611a215760405162461bcd60e51b815260206004820152600c60248201526b2737ba1030903632b0b232b960a11b6044820152606401610b9b565b8151610cc190600183019060208501906134f9565b33600081815260a0602090815260408083206003810154845260a1835281842094845260a390925282206076549193929091611a7490600190613b79565b815260208101919091526040016000205460ff1615611ac75760405162461bcd60e51b815260206004820152600f60248201526e105b1c9958591e4810db185a5b5959608a1b6044820152606401610b9b565b60008160060160006001607654611ade9190613b79565b81526020019081526020016000205411611b2f5760405162461bcd60e51b81526020600482015260126024820152714e6f2072657761726420746f20436c61696d60701b6044820152606401610b9b565b600081600301546085548460050154611b489190613c36565b611b529190613c55565b9050606760009054906101000a90046001600160a01b03166001600160a01b031663a9059cbb33608554848660060160006001607654611b929190613b79565b815260200190815260200160002054611bab9190613c36565b611bb59190613c55565b6040518363ffffffff1660e01b8152600401611bd2929190613c00565b6020604051808303816000875af1158015611bf1573d6000803e3d6000fd5b505050506040513d601f19601f82011682018060405250810190611c159190613c19565b5033600090815260a36020526040812060765460019290611c37908490613b79565b81526020810191909152604001600020805460ff1916911515919091179055505050565b606d546001600160a01b03163314611ca65760405162461bcd60e51b815260206004820152600e60248201526d4e6f742061206d756c746973696760901b6044820152606401610b9b565b60335460405163a9059cbb60e01b81526001600160a01b038481169263a9059cbb92611cda92909116908590600401613c00565b6020604051808303816000875af1158015611cf9573d6000803e3d6000fd5b505050506040513d601f19601f82011682018060405250810190610cc19190613c19565b607a546301000000900460ff16611d465760405162461bcd60e51b8152600401610b9b90613ba8565b607a5460ff1615611d8f5760405162461bcd60e51b815260206004820152601360248201527241646d696e2068616c74206465706f7369747360681b6044820152606401610b9b565b611d9761133a565b33600090815260a060205260409020608654821015611df85760405162461bcd60e51b815260206004820152601b60248201527f416d6f756e74206c657373207468616e206d696e20616d6f756e7400000000006044820152606401610b9b565b608754828260050154611e0b9190613b90565b1115611e595760405162461bcd60e51b815260206004820152601b60248201527f416d6f756e74206d6f7265207468616e206d617820616d6f756e7400000000006044820152606401610b9b565b805460ff16611e8357805460ff1916600117815560718054906000611e7d83613b5e565b91905055505b81606e6000828254611e959190613b90565b90915550506067546040516323b872dd60e01b8152336004820152306024820152604481018490526001600160a01b03909116906323b872dd906064016020604051808303816000875af1158015611ef1573d6000803e3d6000fd5b505050506040513d601f19601f82011682018060405250810190611f159190613c19565b50611f1f8261295a565b6064611f2c83605a613c36565b611f369190613c55565b33600090815260a260209081526040808320600480870180548652919093529083208481554260038201819055600180830191909155928101805460ff19169093179092558054939550909291611f8c83613b5e565b919050555082826006016000828254611fa59190613b90565b9250508190555082826005016000828254611fc09190613b90565b90915550506001600160a01b038416331415611fdb57600093505b815461010090046001600160a01b0316612002576003820154612002576120023385612be5565b815461010090046001600160a01b031615612021576120213384612c97565b61202b3384612e66565b7fa4e109bb7f03a3cbe671105ffecfc362319eaa88ecaf35997a4d3a2328d66d6c3384604051611319929190613c00565b612064612447565b608691909155608755565b612077612447565b60005b815181101561163c576120a582828151811061209857612098613b19565b60200260200101516130b5565b600160a660008484815181106120bd576120bd613b19565b6020026020010151815260200190815260200160002060006101000a81548160ff02191690831515021790555080806120f590613b5e565b91505061207a565b607a546301000000900460ff166121265760405162461bcd60e51b8152600401610b9b90613ba8565b607a54610100900460ff161561214e5760405162461bcd60e51b8152600401610b9b90613bd1565b61215661133a565b33600090815260a06020526040812090805b826004015481101561220a5733600090815260a2602090815260408083208484529091529020600481015460ff1680156121b3575060895481600101546121af9190613b90565b4210155b156121f75760006121c43384610d05565b9050428260010181905550808260020160008282546121e39190613b90565b909155506121f390508185613b90565b9350505b508061220281613b5e565b915050612168565b506000811161224b5760405162461bcd60e51b815260206004820152600d60248201526c043616e277420636c61696d203609c1b6044820152606401610b9b565b60675460405163a9059cbb60e01b81526001600160a01b039091169063a9059cbb9061227d9033908590600401613c00565b6020604051808303816000875af115801561229c573d6000803e3d6000fd5b505050506040513d601f19601f820116820180604052508101906122c09190613c19565b50808260070160008282546122d59190613b90565b9250508190555080606f60008282546122ee9190613b90565b90915550506040517fcea16a2d83554574def1edf3ec1fb53f1373f7ebb1fa98fecdaa4268588793cc906123259033908490613c00565b60405180910390a15050565b612339612447565b607a80549115156101000261ff0019909216919091179055565b61235b612447565b606780546001600160a01b039384166001600160a01b03199182161790915560688054929093169116179055565b612391612447565b607a805482158015620100000262ff000019909216919091179091556123b8574260785550565b4260795550565b6123c7612447565b607a805460ff1916911515919091179055565b606d546001600160a01b031633146124255760405162461bcd60e51b815260206004820152600e60248201526d4e6f742061206d756c746973696760901b6044820152606401610b9b565b606d80546001600160a01b0319166001600160a01b0392909216919091179055565b6033546001600160a01b031633148061246a57506034546001600160a01b031633145b8061247f57506035546001600160a01b031633145b6113635760405162461bcd60e51b815260206004820181905260248201527f4f776e61626c653a2063616c6c6572206973206e6f7420746865206f776e65726044820152606401610b9b565b600061250d83836040518060400160405280601e81526020017f536166654d6174683a207375627472616374696f6e206f766572666c6f7700008152506131a5565b9392505050565b60008261252357506000610df7565b600061252f8385613c36565b90508261253c8583613c55565b1461250d5760405162461bcd60e51b815260206004820152602160248201527f536166654d6174683a206d756c7469706c69636174696f6e206f766572666c6f6044820152607760f81b6064820152608401610b9b565b600061250d83836040518060400160405280601a81526020017f536166654d6174683a206469766973696f6e206279207a65726f0000000000008152506131df565b60006085546082546074546125ea9190613c36565b6125f49190613c55565b60738054600090815260a1602090815260408083206076805485526006909101835281842086905593549354835260a4909152812091909155607480549293508392909190612644908490613b79565b909155505060735460725460408051928352602083018490528201527f83531245723b50749ff8a750ca38e2a14e5378b3c1083924cbd29a2ec3fd22e1906060016118ab565b603380546001600160a01b03198082166001600160a01b038781169182179094556034805483168786161790556035805490921685851617909155604051929091169182907f8be0079c531659141344cd1fd0a4f28419497f9722a3daafe3b4186f6b6457e090600090a350505050565b606854604051636386c1c760e01b81526001600160a01b03838116600483015290911690636386c1c79060240161012060405180830381865afa158015612746573d6000803e3d6000fd5b505050506040513d601f19601f8201168201806040525081019061276a9190613cb2565b5050506001600160a01b03968716600090815260a06020526040902060028101929092555060018101919091558054600482019390935592151560ff199190941661010002166001600160a81b031990911617919091179055565b606854604051636386c1c760e01b81526001600160a01b03838116600483015290911690636386c1c79060240161012060405180830381865afa158015612810573d6000803e3d6000fd5b505050506040513d601f19601f820116820180604052508101906128349190613cb2565b6001600160a01b03909916600090815260a0602052604090206007810199909955600689015560058801556003909601959095555050505050565b60005b6001600160a01b038216600090815260a0602052604090206004015481101561163c57606854604051634d77b70160e01b81526001600160a01b0390911690634d77b701906128c79085908590600401613c00565b60a060405180830381865afa1580156128e4573d6000803e3d6000fd5b505050506040513d601f19601f820116820180604052508101906129089190613d30565b50506001600160a01b038516600090815260a26020908152604080832087845290915290206002810191909155600181019190915555612948828261320d565b8061295281613b5e565b915050612872565b606754606954608554607d546001600160a01b039384169363a9059cbb931691906129859086613c36565b61298f9190613c55565b6040518363ffffffff1660e01b81526004016129ac929190613c00565b6020604051808303816000875af11580156129cb573d6000803e3d6000fd5b505050506040513d601f19601f820116820180604052508101906129ef9190613c19565b50606754606a54608554607e546001600160a01b039384169363a9059cbb93169190612a1b9086613c36565b612a259190613c55565b6040518363ffffffff1660e01b8152600401612a42929190613c00565b6020604051808303816000875af1158015612a61573d6000803e3d6000fd5b505050506040513d601f19601f82011682018060405250810190612a859190613c19565b50606754606b54608554607f546001600160a01b039384169363a9059cbb93169190612ab19086613c36565b612abb9190613c55565b6040518363ffffffff1660e01b8152600401612ad8929190613c00565b6020604051808303816000875af1158015612af7573d6000803e3d6000fd5b505050506040513d601f19601f82011682018060405250810190612b1b9190613c19565b50606754606c546085546080546001600160a01b039384169363a9059cbb93169190612b479086613c36565b612b519190613c55565b6040518363ffffffff1660e01b8152600401612b6e929190613c00565b6020604051808303816000875af1158015612b8d573d6000803e3d6000fd5b505050506040513d601f19601f82011682018060405250810190612bb19190613c19565b50608554608154612bc29083613c36565b612bcc9190613c55565b60746000828254612bdd9190613b90565b909155505050565b6001600160a01b03808316600090815260a060205260409020908216612c1357612c0e836132c6565b612c4b565b826001600160a01b0316826001600160a01b031614612c4b578054610100600160a81b0319166101006001600160a01b038416021781555b805461010090046001600160a01b031615610cc157805461010090046001600160a01b0316600090815260a060205260408120600101805491612c8d83613b5e565b9190505550505050565b6001600160a01b038216600090815260a060205260408120608554608454919291612cc89190610deb908690612514565b90506000612ce7608554610deb6083548761251490919063ffffffff16565b60675460405163a9059cbb60e01b81529192506001600160a01b03169063a9059cbb90612d1a9088908690600401613c00565b6020604051808303816000875af1158015612d39573d6000803e3d6000fd5b505050506040513d601f19601f82011682018060405250810190612d5d9190613c19565b50606754835460405163a9059cbb60e01b81526001600160a01b039283169263a9059cbb92612d9a92610100909104909116908590600401613c00565b6020604051808303816000875af1158015612db9573d6000803e3d6000fd5b505050506040513d601f19601f82011682018060405250810190612ddd9190613c19565b5081836002016000828254612df29190613b90565b9091555050825461010090046001600160a01b0316600090815260a0602052604081206002018054839290612e28908490613b90565b925050819055508160706000828254612e419190613b90565b925050819055508060706000828254612e5a9190613b90565b90915550505050505050565b6001600160a01b038216600090815260a0602052604090206003810154612f1157805461010090046001600160a01b0316600090815260a060209081526040808320600390810154908501819055835260a19091528120600201805491612ecc83613b5e565b90915550506003810154600090815260a1602090815260408220600501805460018101825590835291200180546001600160a01b0319166001600160a01b0385161790555b600380820154600090815260a1602052604081209182018054859290612f38908490613b90565b9091555050607654600090815260078201602052604081208054859290612f60908490613b90565b909155505060725460765460009081526007830160205260409020541115612fa257607654600090815260078201602052604090205460725560038201546073555b6067546040805163313ce56760e01b815290516000926001600160a01b03169163313ce5679160048083019260209291908290030181865afa158015612fec573d6000803e3d6000fd5b505050506040513d601f19601f820116820180604052508101906130109190613d7d565b61301b90600a613e84565b6096546130289190613c36565b82600301546130379190613c55565b90506000608c810154836002015461304f9190613c55565b90508082141561307057607c546130669083613c36565b6004840155613098565b8082101561308557607c546130669083613c36565b607c546130929082613c36565b60048401555b6064836004015411156130ad57606460048401555b505050505050565b606854604051634b490add60e11b8152600481018390526001600160a01b039091169063969215ba90602401600060405180830381865afa1580156130fe573d6000803e3d6000fd5b505050506040513d6000823e601f3d908101601f191682016040526131269190810190613e93565b600086815260a160209081526040822060048101849055600381018590556002810186905586519092916131619160018501918901906134f9565b5081546001600160a01b039788166101009290920a9182029790910219169590951790945550505060009182525060a660205260409020805460ff19166001179055565b600081848411156131c95760405162461bcd60e51b8152600401610b9b9190613f39565b5060006131d68486613b79565b95945050505050565b600081836132005760405162461bcd60e51b8152600401610b9b9190613f39565b5060006131d68486613c55565b606854604051634d77b70160e01b81526001600160a01b0390911690634d77b7019061323f9085908590600401613c00565b60a060405180830381865afa15801561325c573d6000803e3d6000fd5b505050506040513d601f19601f820116820180604052508101906132809190613d30565b6001600160a01b0396909616600090815260a2602090815260408083209783529690529490942060048101805460ff191696151596909617909555505050600390910155565b6001600160a01b038116600090815260a06020526040812060758054919290916132ef90613b5e565b918290555060038201818155600091825260a1602052604090912080546001600160a01b0319166001600160a01b038516178155905461332e90613384565b80516133449160018401916020909101906134f9565b506005810180546001810182556000918252602082200180546001600160a01b0319166001600160a01b03861617905560028201805491612c8d83613b5e565b6060600061339183613421565b600101905060008167ffffffffffffffff8111156133b1576133b1613592565b6040519080825280601f01601f1916602001820160405280156133db576020820181803683370190505b5090508181016020015b600019016f181899199a1a9b1b9c1cb0b131b232b360811b600a86061a8153600a850494508461341457613419565b6133e5565b509392505050565b60008072184f03e93ff9f4daa797ed6e38ed64bf6a1f0160401b83106134605772184f03e93ff9f4daa797ed6e38ed64bf6a1f0160401b830492506040015b6d04ee2d6d415b85acef8100000000831061348c576d04ee2d6d415b85acef8100000000830492506020015b662386f26fc1000083106134aa57662386f26fc10000830492506010015b6305f5e10083106134c2576305f5e100830492506008015b61271083106134d657612710830492506004015b606483106134e8576064830492506002015b600a8310610df75760010192915050565b82805461350590613c77565b90600052602060002090601f016020900481019282613527576000855561356d565b82601f1061354057805160ff191683800117855561356d565b8280016001018555821561356d579182015b8281111561356d578251825591602001919060010190613552565b5061357992915061357d565b5090565b5b80821115613579576000815560010161357e565b634e487b7160e01b600052604160045260246000fd5b604051601f8201601f1916810167ffffffffffffffff811182821017156135d1576135d1613592565b604052919050565b600067ffffffffffffffff8211156135f3576135f3613592565b5060051b60200190565b600082601f83011261360e57600080fd5b8135602061362361361e836135d9565b6135a8565b82815260059290921b8401810191818101908684111561364257600080fd5b8286015b8481101561365d5780358352918301918301613646565b509695505050505050565b6000806040838503121561367b57600080fd5b823567ffffffffffffffff81111561369257600080fd5b61369e858286016135fd565b95602094909401359450505050565b600080604083850312156136c057600080fd5b50508035926020909101359150565b6001600160a01b03811681146118b457600080fd5b600080604083850312156136f757600080fd5b8235613702816136cf565b946020939093013593505050565b60006020828403121561372257600080fd5b5035919050565b6000806000806080858703121561373f57600080fd5b843561374a816136cf565b9350602085013561375a816136cf565b9250604085013561376a816136cf565b9150606085013561377a816136cf565b939692955090935050565b60006020828403121561379757600080fd5b813561250d816136cf565b6000806000606084860312156137b757600080fd5b83356137c2816136cf565b925060208401356137d2816136cf565b915060408401356137e2816136cf565b809150509250925092565b600061014080838503121561380157600080fd5b83601f84011261381057600080fd5b60405181810181811067ffffffffffffffff8211171561383257613832613592565b60405290830190808583111561384757600080fd5b845b83811015613861578035825260209182019101613849565b509095945050505050565b6000602080838503121561387f57600080fd5b823567ffffffffffffffff81111561389657600080fd5b8301601f810185136138a757600080fd5b80356138b561361e826135d9565b81815260059190911b820183019083810190878311156138d457600080fd5b928401925b828410156138fb5783356138ec816136cf565b825292840192908401906138d9565b979650505050505050565b60005b83811015613921578181015183820152602001613909565b83811115613930576000848401525b50505050565b6000815180845261394e816020860160208601613906565b601f01601f19169290920160200192915050565b6001600160a01b038616815260a06020820181905260009061398690830187613936565b604083019590955250606081019290925260809091015292915050565b600080600080608085870312156139b957600080fd5b5050823594602084013594506040840135936060013592509050565b600067ffffffffffffffff8211156139ef576139ef613592565b50601f01601f191660200190565b600060208284031215613a0f57600080fd5b813567ffffffffffffffff811115613a2657600080fd5b8201601f81018413613a3757600080fd5b8035613a4561361e826139d5565b818152856020838501011115613a5a57600080fd5b81602084016020830137600091810160200191909152949350505050565b600060208284031215613a8a57600080fd5b813567ffffffffffffffff811115613aa157600080fd5b613aad848285016135fd565b949350505050565b80151581146118b457600080fd5b600060208284031215613ad557600080fd5b813561250d81613ab5565b60008060408385031215613af357600080fd5b8235613afe816136cf565b91506020830135613b0e816136cf565b809150509250929050565b634e487b7160e01b600052603260045260246000fd5b600060208284031215613b4157600080fd5b5051919050565b634e487b7160e01b600052601160045260246000fd5b6000600019821415613b7257613b72613b48565b5060010190565b600082821015613b8b57613b8b613b48565b500390565b60008219821115613ba357613ba3613b48565b500190565b6020808252600f908201526e0aec2d2e840ccdee440d8c2eadcc6d608b1b604082015260600190565b60208082526015908201527441646d696e2068616c742077697468647261776c7360581b604082015260600190565b6001600160a01b03929092168252602082015260400190565b600060208284031215613c2b57600080fd5b815161250d81613ab5565b6000816000190483118215151615613c5057613c50613b48565b500290565b600082613c7257634e487b7160e01b600052601260045260246000fd5b500490565b600181811c90821680613c8b57607f821691505b60208210811415613cac57634e487b7160e01b600052602260045260246000fd5b50919050565b60008060008060008060008060006101208a8c031215613cd157600080fd5b8951613cdc81613ab5565b60208b015160408c0151919a509850613cf4816136cf565b8097505060608a0151955060808a0151945060a08a0151935060c08a0151925060e08a015191506101008a015190509295985092959850929598565b600080600080600060a08688031215613d4857600080fd5b855194506020860151935060408601519250606086015191506080860151613d6f81613ab5565b809150509295509295909350565b600060208284031215613d8f57600080fd5b815160ff8116811461250d57600080fd5b600181815b80851115613ddb578160001904821115613dc157613dc1613b48565b80851615613dce57918102915b93841c9390800290613da5565b509250929050565b600082613df257506001610df7565b81613dff57506000610df7565b8160018114613e155760028114613e1f57613e3b565b6001915050610df7565b60ff841115613e3057613e30613b48565b50506001821b610df7565b5060208310610133831016604e8410600b8410161715613e5e575081810a610df7565b613e688383613da0565b8060001904821115613e7c57613e7c613b48565b029392505050565b600061250d60ff841683613de3565b600080600080600060a08688031215613eab57600080fd5b8551613eb6816136cf565b602087015190955067ffffffffffffffff811115613ed357600080fd5b8601601f81018813613ee457600080fd5b8051613ef261361e826139d5565b818152896020838501011115613f0757600080fd5b613f18826020830160208601613906565b604089015160608a01516080909a0151989b919a5098979650945050505050565b60208152600061250d602083018461393656fea2646970667358221220d192a38c6915e4ccccd028314e5444a93aced48106cafdcb73b83fe294b1b4a264736f6c634300080a0033",
  "immutableReferences": {},
  "source": "/**\r\n               _  __          \r\n__      _____ | |/ _|         \r\n\\ \\ /\\ / / _ \\| | |_          \r\n \\ V  V / (_) | |  _|         \r\n  \\_/\\_/ \\___/|_|_|           \r\n                              \r\n                 _ _        _ \r\n  ___ __ _ _ __ (_) |_ __ _| |\r\n / __/ _` | '_ \\| | __/ _` | |\r\n| (_| (_| | |_) | | || (_| | |\r\n \\___\\__,_| .__/|_|\\__\\__,_|_|\r\n          |_|                 \r\n*/\r\n\r\n// SPDX-License-Identifier: MIT\r\npragma solidity ^0.8.10;\r\n\r\n\r\nimport \"@openzeppelin/contracts-upgradeable/token/ERC20/extensions/IERC20MetadataUpgradeable.sol\";\r\nimport \"@openzeppelin/contracts-upgradeable/access/OwnableUpgradeable.sol\";\r\nimport \"@openzeppelin/contracts-upgradeable/utils/AddressUpgradeable.sol\";\r\nimport \"@openzeppelin/contracts-upgradeable/proxy/utils/Initializable.sol\";\r\n\r\ninterface IWolf {\r\n    function calculateReward(\r\n        address _user,\r\n        uint256 _index\r\n    ) external view returns (uint256 _reward);\r\n\r\n    function getUserInfo(\r\n        address _user\r\n    )\r\n        external\r\n        view\r\n        returns (\r\n            bool _isExists,\r\n            uint256 _stakeCount,\r\n            address _referrer,\r\n            uint256 _referrals,\r\n            uint256 _referralRewards,\r\n            uint256 _teamId,\r\n            uint256 _currentStaked,\r\n            uint256 _totalStaked,\r\n            uint256 _totalWithdrawan\r\n        );\r\n\r\n    function getUserTokenStakeInfo(\r\n        address _user,\r\n        uint256 _index\r\n    )\r\n        external\r\n        view\r\n        returns (\r\n            uint256 _amount,\r\n            uint256 _checkpoint,\r\n            uint256 _claimedReward,\r\n            uint256 _startTime,\r\n            bool _isActive\r\n        );\r\n\r\n    function getUserLotteryClaimedStatus(\r\n        address _user,\r\n        uint256 _week\r\n    ) external view returns (bool _status);\r\n\r\n    function getTeamInfo(\r\n        uint256 _teamId\r\n    )\r\n        external\r\n        view\r\n        returns (\r\n            address _Lead,\r\n            string memory _teamName,\r\n            uint256 _teamCount,\r\n            uint256 _teamAmount,\r\n            uint256 _currentPercent\r\n        );\r\n\r\n    function getAllTeamMembers(\r\n        uint256 _teamId,\r\n        uint256 _index\r\n    ) external view returns (address _teamMember);\r\n\r\n    function getTeamLotteryAmount(\r\n        uint256 _teamId,\r\n        uint256 _week\r\n    ) external view returns (uint256 _amount);\r\n\r\n    function getTeamWeeklyDepositAmount(\r\n        uint256 _teamId,\r\n        uint256 _week\r\n    ) external view returns (uint256 _amount);\r\n\r\n    function getWinnersHistory(\r\n        uint256 _week\r\n    ) external view returns (uint256 _team);\r\n}\r\n\r\ncontract WolfCapital3 is Initializable, OwnableUpgradeable {\r\n    using SafeMath for uint256;\r\n    IERC20MetadataUpgradeable public usdc;\r\n    IWolf public wolfV1;\r\n    address public ownerWallet;\r\n    address public marketingWallet;\r\n    address public developmentWallet1;\r\n    address public developmentWallet2;\r\n    address public multiSigWallet;\r\n\r\n    uint256 public totalStaked;\r\n    uint256 public totalWithdrawan;\r\n    uint256 public totalRefRewards;\r\n    uint256 public uniqueStakers;\r\n    uint256 public topDepositThisWeek;\r\n    uint256 public topTeamThisWeek;\r\n    uint256 public lotteryPool;\r\n    uint256 public uniqueTeamId;\r\n    uint256 public currentWeek;\r\n    uint256 public launchTime;\r\n    uint256 public haltAccStartTime;\r\n    uint256 public haltAccEndTime;\r\n    bool public haltDeposits;\r\n    bool public haltWithdraws;\r\n    bool public haltAccumulation;\r\n    bool public launched;\r\n\r\n    uint256 public basePercent;\r\n    uint256 public teamPercentMultiplier;\r\n    uint256 public ownerFeePercent;\r\n    uint256 public marketingFeePercent;\r\n    uint256 public dev1FeePercent;\r\n    uint256 public dev2FeePercent;\r\n    uint256 public lotteryFeePercent;\r\n    uint256 public lotteryPercent;\r\n    uint256 public referrerPercent;\r\n    uint256 public referralPercent;\r\n    uint256 public percentDivider;\r\n    uint256 public minDeposit;\r\n    uint256 public maxDeposit;\r\n    uint256 public timeStep;\r\n    uint256 public claimDuration;\r\n    uint256 public accumulationDuration;\r\n    uint256 public lockDuration;\r\n\r\n    uint256[10] public requiredTeamUsers;\r\n    uint256[10] public requiredTeamAmount;\r\n\r\n    struct StakeData {\r\n        uint256 amount;\r\n        uint256 checkpoint;\r\n        uint256 claimedReward;\r\n        uint256 startTime;\r\n        bool isActive;\r\n    }\r\n\r\n    struct User {\r\n        bool isExists;\r\n        address referrer;\r\n        uint256 referrals;\r\n        uint256 referralRewards;\r\n        uint256 teamId;\r\n        uint256 stakeCount;\r\n        uint256 currentStaked;\r\n        uint256 totalStaked;\r\n        uint256 totalWithdrawan;\r\n    }\r\n\r\n    struct TeamData {\r\n        address Lead;\r\n        string teamName;\r\n        uint256 teamCount;\r\n        uint256 teamAmount;\r\n        uint256 currentPercent;\r\n        address[] teamMembers;\r\n        mapping(uint256 => uint256) lotteryAmount;\r\n        mapping(uint256 => uint256) weeklyDeposits;\r\n    }\r\n\r\n    mapping(address => User) internal users;\r\n    mapping(uint256 => TeamData) internal teams;\r\n    mapping(address => mapping(uint256 => StakeData)) internal userStakes;\r\n    mapping(address => mapping(uint256 => bool)) internal isLotteryClaimed;\r\n    mapping(uint256 => uint256) internal winnersHistory;\r\n    mapping(address => bool) internal isUserMigrated;\r\n    mapping(uint256 => bool) internal isTeamMigrated;\r\n\r\n    event STAKE(address Staker, uint256 amount);\r\n    event CLAIM(address Staker, uint256 amount);\r\n    event WITHDRAW(address Staker, uint256 amount);\r\n    event LOTTERY(\r\n        uint256 topTeamThisWeek,\r\n        uint256 lotteryAmount,\r\n        uint256 lastWeekTopDeposit\r\n    );\r\n\r\n    function initialize() public initializer {\r\n        wolfV1 = IWolf(0x4Bba559128f2630459655AD548A5b6e5F31d97f4);\r\n        usdc = IERC20MetadataUpgradeable(\r\n            0x8AC76a51cc950d9822D68b83fE1Ad97B32Cd580d\r\n        );\r\n        owner = 0x5886B6b942f8DaB2488961f603a4be8C3015A1A9;\r\n        dev = 0x7f35be372873e06c15DD7f9494A426ACab99C6De;\r\n        ownerWallet = owner;\r\n        marketingWallet = 0x57741A3F319D526F9DdBa1D181207C8bD06c2914;\r\n        developmentWallet1 = dev;\r\n        developmentWallet2 = 0x7DB1A2f972652020e8664005B6119F21A64C39B8;\r\n        multiSigWallet = 0x05c09F12e03a56FbC03EdB8acB2ef7933E1Ff45C;\r\n        basePercent = 1_00;\r\n        teamPercentMultiplier = 10;\r\n        ownerFeePercent = 3_00;\r\n        marketingFeePercent = 4_00;\r\n        dev1FeePercent = 1_00;\r\n        dev2FeePercent = 1_00;\r\n        lotteryFeePercent = 1_00;\r\n        lotteryPercent = 30_00;\r\n        referrerPercent = 1_50;\r\n        referralPercent = 1_50;\r\n        percentDivider = 100_00;\r\n        minDeposit = 50e18;\r\n        maxDeposit = 100_000e18;\r\n        timeStep = 1 days;\r\n        claimDuration = 7 days;\r\n        accumulationDuration = 10 days;\r\n        lockDuration = 60 days;\r\n    }\r\n\r\n    function migratemultipleUsers(address[] memory _users) external onlyOwner {\r\n        for (uint256 i; i < _users.length; i++) {\r\n            migrateUserData(_users[i]);\r\n            migrateUserDataRemaining(_users[i]);\r\n            migrateUserStakeData(_users[i]);\r\n            isUserMigrated[_users[i]] = true;\r\n        }\r\n    }\r\n\r\n    function migrateUserData(address _user) internal {\r\n        (\r\n            users[_user].isExists,\r\n            users[_user].stakeCount,\r\n            users[_user].referrer,\r\n            users[_user].referrals,\r\n            users[_user].referralRewards,\r\n            ,\r\n            ,\r\n            ,\r\n\r\n        ) = wolfV1.getUserInfo(_user);\r\n    }\r\n\r\n    function migrateTeamWeeklyDeposits(uint256[] memory _teamIds, uint256 _week) external onlyOwner {\r\n        for (uint i; i < _teamIds.length; i++) {\r\n            teams[_teamIds[i]].weeklyDeposits[_week] = wolfV1.getTeamWeeklyDepositAmount(_teamIds[i], _week);\r\n        }\r\n    }\r\n\r\n    function migrateUserDataRemaining(address _user) internal {\r\n        (\r\n            ,\r\n            ,\r\n            ,\r\n            ,\r\n            ,\r\n            users[_user].teamId,\r\n            users[_user].currentStaked,\r\n            users[_user].totalStaked,\r\n            users[_user].totalWithdrawan\r\n        ) = wolfV1.getUserInfo(_user);\r\n    }\r\n\r\n    function migrateUserStakeData(address _user) internal {\r\n        for (uint i; i < users[_user].stakeCount; i++) {\r\n            (\r\n                userStakes[_user][i].amount,\r\n                userStakes[_user][i].checkpoint,\r\n                userStakes[_user][i].claimedReward,\r\n                ,\r\n\r\n            ) = wolfV1.getUserTokenStakeInfo(_user, i);\r\n            migrateUserStakeRemainingData(_user, i);\r\n        }\r\n    }\r\n\r\n    function migrateUserStakeRemainingData(\r\n        address _user,\r\n        uint256 _count\r\n    ) internal {\r\n        (\r\n            ,\r\n            ,\r\n            ,\r\n            userStakes[_user][_count].startTime,\r\n            userStakes[_user][_count].isActive\r\n        ) = wolfV1.getUserTokenStakeInfo(_user, _count);\r\n    }\r\n\r\n    function migrateTeamData(uint256[] memory _teamIds) external onlyOwner {\r\n        for (uint i; i < _teamIds.length; i++) {\r\n            migrateRemainingTeamData(_teamIds[i]);\r\n            isTeamMigrated[_teamIds[i]] = true;\r\n        }\r\n    }\r\n\r\n    function migrateRemainingTeamData(uint256 _teamId) internal {\r\n            (\r\n                teams[_teamId].Lead,\r\n                teams[_teamId].teamName,\r\n                teams[_teamId].teamCount,\r\n                teams[_teamId].teamAmount,\r\n                teams[_teamId].currentPercent\r\n            ) = wolfV1.getTeamInfo(_teamId);\r\n            isTeamMigrated[_teamId] = true;\r\n    }\r\n\r\n    function updateWeekly() public {\r\n        if (currentWeek != calculateWeek()) {\r\n            checkForLotteryWinner();\r\n            currentWeek = calculateWeek();\r\n            topDepositThisWeek = 0;\r\n        }\r\n    }\r\n\r\n    function stake(address _referrer, uint256 _amount) public {\r\n        require(launched, \"Wait for launch\");\r\n        require(!haltDeposits, \"Admin halt deposits\");\r\n        updateWeekly();\r\n        User storage user = users[msg.sender];\r\n        require(_amount >= minDeposit, \"Amount less than min amount\");\r\n        require(\r\n            user.currentStaked + _amount <= maxDeposit,\r\n            \"Amount more than max amount\"\r\n        );\r\n        if (!user.isExists) {\r\n            user.isExists = true;\r\n            uniqueStakers++;\r\n        }\r\n\r\n        totalStaked += _amount;\r\n        usdc.transferFrom(msg.sender, address(this), _amount);\r\n        takeFee(_amount);\r\n        _amount = (_amount * 90) / 100;\r\n\r\n        StakeData storage userStake = userStakes[msg.sender][user.stakeCount];\r\n        userStake.amount = _amount;\r\n        userStake.startTime = block.timestamp;\r\n        userStake.checkpoint = block.timestamp;\r\n        userStake.isActive = true;\r\n        user.stakeCount++;\r\n        user.totalStaked += _amount;\r\n        user.currentStaked += _amount;\r\n\r\n        if (_referrer == msg.sender) {\r\n            _referrer = address(0);\r\n        }\r\n\r\n        if (user.referrer == address(0)) {\r\n            if (user.teamId == 0) {\r\n                setReferrer(msg.sender, _referrer);\r\n            }\r\n        }\r\n\r\n        if (user.referrer != address(0)) {\r\n            distributeRefReward(msg.sender, _amount);\r\n        }\r\n\r\n        updateTeam(msg.sender, _amount);\r\n\r\n        emit STAKE(msg.sender, _amount);\r\n    }\r\n\r\n    function setReferrer(address _user, address _referrer) private {\r\n        User storage user = users[_user];\r\n\r\n        if (_referrer == address(0)) {\r\n            createTeam(_user);\r\n        } else if (_referrer != _user) {\r\n            user.referrer = _referrer;\r\n        }\r\n\r\n        if (user.referrer != address(0)) {\r\n            users[user.referrer].referrals++;\r\n        }\r\n    }\r\n\r\n    function distributeRefReward(address _user, uint256 _amount) private {\r\n        User storage user = users[_user];\r\n\r\n        uint256 userRewards = _amount.mul(referralPercent).div(percentDivider);\r\n        uint256 refRewards = _amount.mul(referrerPercent).div(percentDivider);\r\n\r\n        usdc.transfer(_user, userRewards);\r\n        usdc.transfer(user.referrer, refRewards);\r\n\r\n        user.referralRewards += userRewards;\r\n        users[user.referrer].referralRewards += refRewards;\r\n        totalRefRewards += userRewards;\r\n        totalRefRewards += refRewards;\r\n    }\r\n\r\n    function createTeam(address _user) private {\r\n        User storage user = users[_user];\r\n        user.teamId = ++uniqueTeamId;\r\n        TeamData storage newTeam = teams[user.teamId];\r\n        newTeam.Lead = _user;\r\n        newTeam.teamName = Strings.toString(user.teamId);\r\n        newTeam.teamMembers.push(_user);\r\n        newTeam.teamCount++;\r\n    }\r\n\r\n    function updateTeam(address _user, uint256 _amount) private {\r\n        User storage user = users[_user];\r\n\r\n        if (user.teamId == 0) {\r\n            user.teamId = users[user.referrer].teamId;\r\n            teams[user.teamId].teamCount++;\r\n            teams[user.teamId].teamMembers.push(_user);\r\n        }\r\n\r\n        TeamData storage team = teams[user.teamId];\r\n        team.teamAmount += _amount;\r\n        team.weeklyDeposits[currentWeek] += _amount;\r\n        if (team.weeklyDeposits[currentWeek] > topDepositThisWeek) {\r\n            topDepositThisWeek = team.weeklyDeposits[currentWeek];\r\n            topTeamThisWeek = user.teamId;\r\n        }\r\n\r\n        uint256 amountIndex = team.teamAmount /\r\n            (requiredTeamAmount[0] * 10 ** usdc.decimals());\r\n        uint256 countIndex = team.teamCount / requiredTeamUsers[0];\r\n        if (amountIndex == countIndex) {\r\n            team.currentPercent = amountIndex * teamPercentMultiplier;\r\n        } else if (amountIndex < countIndex) {\r\n            team.currentPercent = amountIndex * teamPercentMultiplier;\r\n        } else {\r\n            team.currentPercent = countIndex * teamPercentMultiplier;\r\n        }\r\n        if (team.currentPercent > 100) {\r\n            team.currentPercent = 100;\r\n        }\r\n    }\r\n\r\n    function takeFee(uint256 _amount) private {\r\n        usdc.transfer(\r\n            ownerWallet,\r\n            (_amount * ownerFeePercent) / percentDivider\r\n        );\r\n        usdc.transfer(\r\n            marketingWallet,\r\n            (_amount * marketingFeePercent) / percentDivider\r\n        );\r\n        usdc.transfer(\r\n            developmentWallet1,\r\n            (_amount * dev1FeePercent) / percentDivider\r\n        );\r\n        usdc.transfer(\r\n            developmentWallet2,\r\n            (_amount * dev2FeePercent) / percentDivider\r\n        );\r\n        lotteryPool += (_amount * lotteryFeePercent) / percentDivider;\r\n    }\r\n\r\n    function claim(uint256 _index) public {\r\n        require(launched, \"Wait for launch\");\r\n        require(!haltWithdraws, \"Admin halt withdrawls\");\r\n        updateWeekly();\r\n        User storage user = users[msg.sender];\r\n        StakeData storage userStake = userStakes[msg.sender][_index];\r\n        require(_index < user.stakeCount, \"Invalid index\");\r\n        require(userStake.isActive, \"Already withdrawn\");\r\n        require(\r\n            block.timestamp >= userStake.checkpoint + claimDuration,\r\n            \"Wait for claim time\"\r\n        );\r\n        uint256 rewardAmount;\r\n        rewardAmount = calculateReward(msg.sender, _index);\r\n        require(rewardAmount > 0, \"Can't claim 0\");\r\n        usdc.transfer(msg.sender, rewardAmount);\r\n        userStake.checkpoint = block.timestamp;\r\n        userStake.claimedReward += rewardAmount;\r\n        user.totalWithdrawan += rewardAmount;\r\n        totalWithdrawan += rewardAmount;\r\n\r\n        emit CLAIM(msg.sender, rewardAmount);\r\n    }\r\n\r\n    function claimAll() public {\r\n        require(launched, \"Wait for launch\");\r\n        require(!haltWithdraws, \"Admin halt withdrawls\");\r\n        updateWeekly();\r\n\r\n        User storage user = users[msg.sender];\r\n        uint256 claimableReward;\r\n        for (uint i; i < user.stakeCount; i++) {\r\n            StakeData storage userStake = userStakes[msg.sender][i];\r\n            if (\r\n                userStake.isActive &&\r\n                block.timestamp >= userStake.checkpoint + claimDuration\r\n            ) {\r\n                uint256 rewardAmount;\r\n                rewardAmount = calculateReward(msg.sender, i);\r\n                userStake.checkpoint = block.timestamp;\r\n                userStake.claimedReward += rewardAmount;\r\n                claimableReward += rewardAmount;\r\n            }\r\n        }\r\n        require(claimableReward > 0, \"Can't claim 0\");\r\n        usdc.transfer(msg.sender, claimableReward);\r\n\r\n        user.totalWithdrawan += claimableReward;\r\n        totalWithdrawan += claimableReward;\r\n\r\n        emit CLAIM(msg.sender, claimableReward);\r\n    }\r\n\r\n    function withdraw(uint256 _index) public {\r\n        require(launched, \"Wait for launch\");\r\n        require(!haltWithdraws, \"Admin halt withdrawls\");\r\n        updateWeekly();\r\n\r\n        User storage user = users[msg.sender];\r\n        StakeData storage userStake = userStakes[msg.sender][_index];\r\n        require(_index < user.stakeCount, \"Invalid index\");\r\n        require(userStake.isActive, \"Already withdrawn\");\r\n        require(\r\n            block.timestamp >= userStake.startTime + lockDuration,\r\n            \"Wait for end time\"\r\n        );\r\n\r\n        usdc.transfer(msg.sender, userStake.amount);\r\n        userStake.isActive = false;\r\n        userStake.checkpoint = block.timestamp;\r\n        user.currentStaked -= userStake.amount;\r\n        user.totalWithdrawan += userStake.amount;\r\n        totalWithdrawan += userStake.amount;\r\n\r\n        emit WITHDRAW(msg.sender, userStake.amount);\r\n    }\r\n\r\n    function checkForLotteryWinner() private {\r\n        uint256 lotteryAmount = (lotteryPool * lotteryPercent) / percentDivider;\r\n        teams[topTeamThisWeek].lotteryAmount[currentWeek] = lotteryAmount;\r\n        winnersHistory[currentWeek] = topTeamThisWeek;\r\n        lotteryPool -= lotteryAmount;\r\n\r\n        emit LOTTERY(topTeamThisWeek, lotteryAmount, topDepositThisWeek);\r\n    }\r\n\r\n    function claimLottery() public {\r\n        User storage user = users[msg.sender];\r\n        TeamData storage team = teams[user.teamId];\r\n\r\n        require(\r\n            !isLotteryClaimed[msg.sender][currentWeek - 1],\r\n            \"Already Claimed\"\r\n        );\r\n        require(team.lotteryAmount[currentWeek - 1] > 0, \"No reward to Claim\");\r\n\r\n        uint256 userShare = (user.currentStaked * percentDivider) /\r\n            team.teamAmount;\r\n        usdc.transfer(\r\n            msg.sender,\r\n            (team.lotteryAmount[currentWeek - 1] * userShare) / percentDivider\r\n        );\r\n        isLotteryClaimed[msg.sender][currentWeek - 1] = true;\r\n    }\r\n\r\n    /**\r\n        Getter functions for Public\r\n     */\r\n\r\n    function calculateWeek() public view returns (uint256) {\r\n        return (block.timestamp - launchTime) / (7 * timeStep);\r\n    }\r\n\r\n    function calculateReward(\r\n        address _user,\r\n        uint256 _index\r\n    ) public view returns (uint256 _reward) {\r\n        if (haltAccumulation) return 0;\r\n        StakeData storage userStake = userStakes[_user][_index];\r\n        TeamData storage team = teams[users[_user].teamId];\r\n        uint256 rewardDuration = block.timestamp.sub(userStake.checkpoint);\r\n        if (userStake.checkpoint < haltAccStartTime) {\r\n            rewardDuration =\r\n                rewardDuration -\r\n                (haltAccEndTime - haltAccStartTime);\r\n        }\r\n        if (rewardDuration > accumulationDuration) {\r\n            rewardDuration = accumulationDuration;\r\n        }\r\n        _reward = userStake\r\n            .amount\r\n            .mul(rewardDuration)\r\n            .mul(basePercent + team.currentPercent)\r\n            .div(percentDivider.mul(timeStep));\r\n    }\r\n\r\n    function getUserInfo(\r\n        address _user\r\n    )\r\n        public\r\n        view\r\n        returns (\r\n            bool _isExists,\r\n            uint256 _stakeCount,\r\n            address _referrer,\r\n            uint256 _referrals,\r\n            uint256 _referralRewards,\r\n            uint256 _teamId,\r\n            uint256 _currentStaked,\r\n            uint256 _totalStaked,\r\n            uint256 _totalWithdrawan\r\n        )\r\n    {\r\n        User storage user = users[_user];\r\n        _isExists = user.isExists;\r\n        _stakeCount = user.stakeCount;\r\n        _referrer = user.referrer;\r\n        _referrals = user.referrals;\r\n        _referralRewards = user.referralRewards;\r\n        _teamId = user.teamId;\r\n        _currentStaked = user.currentStaked;\r\n        _totalStaked = user.totalStaked;\r\n        _totalWithdrawan = user.totalWithdrawan;\r\n    }\r\n\r\n    function getUserTokenStakeInfo(\r\n        address _user,\r\n        uint256 _index\r\n    )\r\n        public\r\n        view\r\n        returns (\r\n            uint256 _amount,\r\n            uint256 _checkpoint,\r\n            uint256 _claimedReward,\r\n            uint256 _startTime,\r\n            bool _isActive\r\n        )\r\n    {\r\n        StakeData storage userStake = userStakes[_user][_index];\r\n        _amount = userStake.amount;\r\n        _checkpoint = userStake.checkpoint;\r\n        _claimedReward = userStake.claimedReward;\r\n        _startTime = userStake.startTime;\r\n        _isActive = userStake.isActive;\r\n    }\r\n\r\n    function getUserLotteryClaimedStatus(\r\n        address _user,\r\n        uint256 _week\r\n    ) public view returns (bool _status) {\r\n        _status = isLotteryClaimed[_user][_week];\r\n    }\r\n\r\n    function getTeamInfo(\r\n        uint256 _teamId\r\n    )\r\n        public\r\n        view\r\n        returns (\r\n            address _Lead,\r\n            string memory _teamName,\r\n            uint256 _teamCount,\r\n            uint256 _teamAmount,\r\n            uint256 _currentPercent\r\n        )\r\n    {\r\n        TeamData storage team = teams[_teamId];\r\n        _Lead = team.Lead;\r\n        _teamName = team.teamName;\r\n        _teamCount = team.teamCount;\r\n        _teamAmount = team.teamAmount;\r\n        _currentPercent = team.currentPercent;\r\n    }\r\n\r\n    function getAllTeamMembers(\r\n        uint256 _teamId,\r\n        uint256 _index\r\n    ) public view returns (address _teamMember) {\r\n        _teamMember = teams[_teamId].teamMembers[_index];\r\n    }\r\n\r\n    function getTeamLotteryAmount(\r\n        uint256 _teamId,\r\n        uint256 _week\r\n    ) public view returns (uint256 _amount) {\r\n        _amount = teams[_teamId].lotteryAmount[_week];\r\n    }\r\n\r\n    function getTeamWeeklyDepositAmount(\r\n        uint256 _teamId,\r\n        uint256 _week\r\n    ) public view returns (uint256 _amount) {\r\n        _amount = teams[_teamId].weeklyDeposits[_week];\r\n    }\r\n\r\n    function getWinnersHistory(\r\n        uint256 _week\r\n    ) public view returns (uint256 _team) {\r\n        _team = winnersHistory[_week];\r\n    }\r\n\r\n    function getUserMigrationStatus(address _user) public view returns (bool) {\r\n        return isUserMigrated[_user];\r\n    }\r\n\r\n    function getTeamMigrationStatus(\r\n        uint256 _teamId\r\n    ) public view returns (bool) {\r\n        return isTeamMigrated[_teamId];\r\n    }\r\n\r\n    function getContractBalance() public view returns (uint256) {\r\n        return usdc.balanceOf(address(this));\r\n    }\r\n\r\n    /*\r\n        Setter functions For Owner\r\n    */\r\n\r\n    function migrateAllStateValues(\r\n        uint256[10] memory _values\r\n    ) external onlyOwner {\r\n        totalStaked = _values[0];\r\n        totalWithdrawan = _values[1];\r\n        totalRefRewards = _values[2];\r\n        uniqueStakers = _values[3];\r\n        topDepositThisWeek = _values[4];\r\n        topTeamThisWeek = _values[5];\r\n        lotteryPool = _values[6];\r\n        uniqueTeamId = _values[7];\r\n        currentWeek = _values[8];\r\n        launchTime = _values[9];\r\n        launched = true;\r\n    }\r\n\r\n    function launch() external onlyOwner {\r\n        require(!launched, \"Already launched\");\r\n        launched = true;\r\n        launchTime = block.timestamp;\r\n    }\r\n\r\n    function setHaltDeposits(bool _state) external onlyOwner {\r\n        haltDeposits = _state;\r\n    }\r\n\r\n    function setHaltWithdraws(bool _state) external onlyOwner {\r\n        haltWithdraws = _state;\r\n    }\r\n\r\n    function setHaltAccumulation(bool _state) external onlyOwner {\r\n        haltAccumulation = _state;\r\n        if (_state) {\r\n            haltAccStartTime = block.timestamp;\r\n        } else {\r\n            haltAccEndTime = block.timestamp;\r\n        }\r\n    }\r\n\r\n    function migrateFunds(address _token, uint256 _amount) external {\r\n        require(msg.sender == multiSigWallet, \"Not a multisig\");\r\n        IERC20MetadataUpgradeable(_token).transfer(owner, _amount);\r\n    }\r\n\r\n    function SetTeamName(string memory _name) external {\r\n        TeamData storage team = teams[users[msg.sender].teamId];\r\n        require(msg.sender == team.Lead, \"Not a leader\");\r\n        team.teamName = _name;\r\n    }\r\n\r\n    function SetDepositLimits(uint256 _min, uint256 _max) external onlyOwner {\r\n        minDeposit = _min;\r\n        maxDeposit = _max;\r\n    }\r\n\r\n    function setFeeWallets(\r\n        address _ownerWallet,\r\n        address _marketingWallet,\r\n        address _developmentWallet1,\r\n        address _developmentWallet2\r\n    ) external onlyOwner {\r\n        ownerWallet = _ownerWallet;\r\n        marketingWallet = _marketingWallet;\r\n        developmentWallet1 = _developmentWallet1;\r\n        developmentWallet2 = _developmentWallet2;\r\n    }\r\n\r\n    function setMultiSigWallet(address _newWallet) external {\r\n        require(msg.sender == multiSigWallet, \"Not a multisig\");\r\n        multiSigWallet = _newWallet;\r\n    }\r\n\r\n    function setContracts(\r\n        address _newToken,\r\n        address _oldWolf\r\n    ) external onlyOwner {\r\n        usdc = IERC20MetadataUpgradeable(_newToken);\r\n        wolfV1 = IWolf(_oldWolf);\r\n    }\r\n\r\n    function setBasePercent(\r\n        uint256 _basePercent,\r\n        uint256 _teamPercent\r\n    ) external onlyOwner {\r\n        basePercent = _basePercent;\r\n        teamPercentMultiplier = _teamPercent;\r\n    }\r\n\r\n    function setDurations(uint256 _1, uint256 _2, uint256 _3, uint256 _4) external onlyOwner {\r\n        timeStep = _1;\r\n        claimDuration = _2;\r\n        accumulationDuration = _3;\r\n        lockDuration = _4;\r\n    }\r\n    \r\n}\r\n\r\nlibrary Strings {\r\n    bytes16 private constant _SYMBOLS = \"0123456789abcdef\";\r\n\r\n    function toString(uint256 value) internal pure returns (string memory) {\r\n        unchecked {\r\n            uint256 length = log10(value) + 1;\r\n            string memory buffer = new string(length);\r\n            uint256 ptr;\r\n            /// @solidity memory-safe-assembly\r\n            assembly {\r\n                ptr := add(buffer, add(32, length))\r\n            }\r\n            while (true) {\r\n                ptr--;\r\n                /// @solidity memory-safe-assembly\r\n                assembly {\r\n                    mstore8(ptr, byte(mod(value, 10), _SYMBOLS))\r\n                }\r\n                value /= 10;\r\n                if (value == 0) break;\r\n            }\r\n            return buffer;\r\n        }\r\n    }\r\n\r\n    function log10(uint256 value) internal pure returns (uint256) {\r\n        uint256 result = 0;\r\n        unchecked {\r\n            if (value >= 10 ** 64) {\r\n                value /= 10 ** 64;\r\n                result += 64;\r\n            }\r\n            if (value >= 10 ** 32) {\r\n                value /= 10 ** 32;\r\n                result += 32;\r\n            }\r\n            if (value >= 10 ** 16) {\r\n                value /= 10 ** 16;\r\n                result += 16;\r\n            }\r\n            if (value >= 10 ** 8) {\r\n                value /= 10 ** 8;\r\n                result += 8;\r\n            }\r\n            if (value >= 10 ** 4) {\r\n                value /= 10 ** 4;\r\n                result += 4;\r\n            }\r\n            if (value >= 10 ** 2) {\r\n                value /= 10 ** 2;\r\n                result += 2;\r\n            }\r\n            if (value >= 10 ** 1) {\r\n                result += 1;\r\n            }\r\n        }\r\n        return result;\r\n    }\r\n}\r\n\r\nlibrary SafeMath {\r\n    function add(uint256 a, uint256 b) internal pure returns (uint256) {\r\n        uint256 c = a + b;\r\n        require(c >= a, \"SafeMath: addition overflow\");\r\n\r\n        return c;\r\n    }\r\n\r\n    function sub(uint256 a, uint256 b) internal pure returns (uint256) {\r\n        return sub(a, b, \"SafeMath: subtraction overflow\");\r\n    }\r\n\r\n    function sub(\r\n        uint256 a,\r\n        uint256 b,\r\n        string memory errorMessage\r\n    ) internal pure returns (uint256) {\r\n        require(b <= a, errorMessage);\r\n        uint256 c = a - b;\r\n\r\n        return c;\r\n    }\r\n\r\n    function mul(uint256 a, uint256 b) internal pure returns (uint256) {\r\n        // Gas optimization: this is cheaper than requiring 'a' not being zero, but the\r\n        // benefit is lost if 'b' is also tested.\r\n        // See: https://github.com/OpenZeppelin/openzeppelin-contracts/pull/522\r\n        if (a == 0) {\r\n            return 0;\r\n        }\r\n\r\n        uint256 c = a * b;\r\n        require(c / a == b, \"SafeMath: multiplication overflow\");\r\n\r\n        return c;\r\n    }\r\n\r\n    function div(uint256 a, uint256 b) internal pure returns (uint256) {\r\n        return div(a, b, \"SafeMath: division by zero\");\r\n    }\r\n\r\n    function div(\r\n        uint256 a,\r\n        uint256 b,\r\n        string memory errorMessage\r\n    ) internal pure returns (uint256) {\r\n        require(b > 0, errorMessage);\r\n        uint256 c = a / b;\r\n        // assert(a == b * c + a % b); // There is no case in which this doesn't hold\r\n\r\n        return c;\r\n    }\r\n\r\n    function mod(uint256 a, uint256 b) internal pure returns (uint256) {\r\n        return mod(a, b, \"SafeMath: modulo by zero\");\r\n    }\r\n\r\n    function mod(\r\n        uint256 a,\r\n        uint256 b,\r\n        string memory errorMessage\r\n    ) internal pure returns (uint256) {\r\n        require(b != 0, errorMessage);\r\n        return a % b;\r\n    }\r\n}",
  "sourcePath": "C:\\WolfCapital\\contracts\\WC4.sol",
  "compiler": {
    "name": "solc",
    "version": "0.8.10+commit.fc410830.Emscripten.clang"
  },
  "schemaVersion": "3.4.7",
  "updatedAt": "2023-05-23T11:00:08.470Z",
  "devdoc": {
    "kind": "dev",
    "methods": {
      "renounceOwnership()": {
        "details": "Leaves the contract without owner. It will not be possible to call `onlyOwner` functions anymore. Can only be called by the current owner. NOTE: Renouncing ownership will leave the contract without an owner, thereby removing any functionality that is only available to the owner."
      },
      "transferOwnership(address,address,address)": {
        "details": "Transfers ownership of the contract to a new account (`newOwner`). Can only be called by the current owner."
      }
    },
    "version": 1
  },
  "userdoc": {
    "kind": "user",
    "methods": {
      "calculateWeek()": {
        "notice": "Getter functions for Public"
      }
    },
    "version": 1
  }
}