{
  "contractName": "WolfCapital7",
  "abi": [
    {
      "anonymous": false,
      "inputs": [
        {
          "indexed": false,
          "internalType": "address",
          "name": "Staker",
          "type": "address"
        },
        {
          "indexed": false,
          "internalType": "uint256",
          "name": "amount",
          "type": "uint256"
        }
      ],
      "name": "CLAIM",
      "type": "event"
    },
    {
      "anonymous": false,
      "inputs": [
        {
          "indexed": false,
          "internalType": "uint8",
          "name": "version",
          "type": "uint8"
        }
      ],
      "name": "Initialized",
      "type": "event"
    },
    {
      "anonymous": false,
      "inputs": [
        {
          "indexed": false,
          "internalType": "uint256",
          "name": "topTeamThisWeek",
          "type": "uint256"
        },
        {
          "indexed": false,
          "internalType": "uint256",
          "name": "lotteryAmount",
          "type": "uint256"
        },
        {
          "indexed": false,
          "internalType": "uint256",
          "name": "lastWeekTopDeposit",
          "type": "uint256"
        }
      ],
      "name": "LOTTERY",
      "type": "event"
    },
    {
      "anonymous": false,
      "inputs": [
        {
          "indexed": true,
          "internalType": "address",
          "name": "previousOwner",
          "type": "address"
        },
        {
          "indexed": true,
          "internalType": "address",
          "name": "newOwner",
          "type": "address"
        }
      ],
      "name": "OwnershipTransferred",
      "type": "event"
    },
    {
      "anonymous": false,
      "inputs": [
        {
          "indexed": false,
          "internalType": "address",
          "name": "Staker",
          "type": "address"
        },
        {
          "indexed": false,
          "internalType": "uint256",
          "name": "amount",
          "type": "uint256"
        }
      ],
      "name": "STAKE",
      "type": "event"
    },
    {
      "anonymous": false,
      "inputs": [
        {
          "indexed": false,
          "internalType": "address",
          "name": "Staker",
          "type": "address"
        },
        {
          "indexed": false,
          "internalType": "uint256",
          "name": "amount",
          "type": "uint256"
        }
      ],
      "name": "WITHDRAW",
      "type": "event"
    },
    {
      "inputs": [],
      "name": "accumulationDuration",
      "outputs": [
        {
          "internalType": "uint256",
          "name": "",
          "type": "uint256"
        }
      ],
      "stateMutability": "view",
      "type": "function"
    },
    {
      "inputs": [],
      "name": "basePercent",
      "outputs": [
        {
          "internalType": "uint256",
          "name": "",
          "type": "uint256"
        }
      ],
      "stateMutability": "view",
      "type": "function"
    },
    {
      "inputs": [],
      "name": "claimDuration",
      "outputs": [
        {
          "internalType": "uint256",
          "name": "",
          "type": "uint256"
        }
      ],
      "stateMutability": "view",
      "type": "function"
    },
    {
      "inputs": [],
      "name": "currentStaked",
      "outputs": [
        {
          "internalType": "uint256",
          "name": "",
          "type": "uint256"
        }
      ],
      "stateMutability": "view",
      "type": "function"
    },
    {
      "inputs": [],
      "name": "currentWeek",
      "outputs": [
        {
          "internalType": "uint256",
          "name": "",
          "type": "uint256"
        }
      ],
      "stateMutability": "view",
      "type": "function"
    },
    {
      "inputs": [],
      "name": "dev",
      "outputs": [
        {
          "internalType": "address",
          "name": "",
          "type": "address"
        }
      ],
      "stateMutability": "view",
      "type": "function"
    },
    {
      "inputs": [],
      "name": "dev1FeePercent",
      "outputs": [
        {
          "internalType": "uint256",
          "name": "",
          "type": "uint256"
        }
      ],
      "stateMutability": "view",
      "type": "function"
    },
    {
      "inputs": [],
      "name": "dev2",
      "outputs": [
        {
          "internalType": "address",
          "name": "",
          "type": "address"
        }
      ],
      "stateMutability": "view",
      "type": "function"
    },
    {
      "inputs": [],
      "name": "dev2FeePercent",
      "outputs": [
        {
          "internalType": "uint256",
          "name": "",
          "type": "uint256"
        }
      ],
      "stateMutability": "view",
      "type": "function"
    },
    {
      "inputs": [],
      "name": "dev3FeePercent",
      "outputs": [
        {
          "internalType": "uint256",
          "name": "",
          "type": "uint256"
        }
      ],
      "stateMutability": "view",
      "type": "function"
    },
    {
      "inputs": [],
      "name": "developmentWallet1",
      "outputs": [
        {
          "internalType": "address",
          "name": "",
          "type": "address"
        }
      ],
      "stateMutability": "view",
      "type": "function"
    },
    {
      "inputs": [],
      "name": "developmentWallet2",
      "outputs": [
        {
          "internalType": "address",
          "name": "",
          "type": "address"
        }
      ],
      "stateMutability": "view",
      "type": "function"
    },
    {
      "inputs": [],
      "name": "developmentWallet3",
      "outputs": [
        {
          "internalType": "address",
          "name": "",
          "type": "address"
        }
      ],
      "stateMutability": "view",
      "type": "function"
    },
    {
      "inputs": [],
      "name": "haltAccEndTime",
      "outputs": [
        {
          "internalType": "uint256",
          "name": "",
          "type": "uint256"
        }
      ],
      "stateMutability": "view",
      "type": "function"
    },
    {
      "inputs": [],
      "name": "haltAccStartTime",
      "outputs": [
        {
          "internalType": "uint256",
          "name": "",
          "type": "uint256"
        }
      ],
      "stateMutability": "view",
      "type": "function"
    },
    {
      "inputs": [],
      "name": "haltAccumulation",
      "outputs": [
        {
          "internalType": "bool",
          "name": "",
          "type": "bool"
        }
      ],
      "stateMutability": "view",
      "type": "function"
    },
    {
      "inputs": [],
      "name": "haltDeposits",
      "outputs": [
        {
          "internalType": "bool",
          "name": "",
          "type": "bool"
        }
      ],
      "stateMutability": "view",
      "type": "function"
    },
    {
      "inputs": [],
      "name": "haltWithdraws",
      "outputs": [
        {
          "internalType": "bool",
          "name": "",
          "type": "bool"
        }
      ],
      "stateMutability": "view",
      "type": "function"
    },
    {
      "inputs": [],
      "name": "launchTime",
      "outputs": [
        {
          "internalType": "uint256",
          "name": "",
          "type": "uint256"
        }
      ],
      "stateMutability": "view",
      "type": "function"
    },
    {
      "inputs": [],
      "name": "launched",
      "outputs": [
        {
          "internalType": "bool",
          "name": "",
          "type": "bool"
        }
      ],
      "stateMutability": "view",
      "type": "function"
    },
    {
      "inputs": [],
      "name": "lockDuration",
      "outputs": [
        {
          "internalType": "uint256",
          "name": "",
          "type": "uint256"
        }
      ],
      "stateMutability": "view",
      "type": "function"
    },
    {
      "inputs": [],
      "name": "lotteryFeePercent",
      "outputs": [
        {
          "internalType": "uint256",
          "name": "",
          "type": "uint256"
        }
      ],
      "stateMutability": "view",
      "type": "function"
    },
    {
      "inputs": [],
      "name": "lotteryPercent",
      "outputs": [
        {
          "internalType": "uint256",
          "name": "",
          "type": "uint256"
        }
      ],
      "stateMutability": "view",
      "type": "function"
    },
    {
      "inputs": [],
      "name": "lotteryPool",
      "outputs": [
        {
          "internalType": "uint256",
          "name": "",
          "type": "uint256"
        }
      ],
      "stateMutability": "view",
      "type": "function"
    },
    {
      "inputs": [],
      "name": "marketingFeePercent",
      "outputs": [
        {
          "internalType": "uint256",
          "name": "",
          "type": "uint256"
        }
      ],
      "stateMutability": "view",
      "type": "function"
    },
    {
      "inputs": [],
      "name": "marketingWallet",
      "outputs": [
        {
          "internalType": "address",
          "name": "",
          "type": "address"
        }
      ],
      "stateMutability": "view",
      "type": "function"
    },
    {
      "inputs": [],
      "name": "maxDeposit",
      "outputs": [
        {
          "internalType": "uint256",
          "name": "",
          "type": "uint256"
        }
      ],
      "stateMutability": "view",
      "type": "function"
    },
    {
      "inputs": [],
      "name": "minDeposit",
      "outputs": [
        {
          "internalType": "uint256",
          "name": "",
          "type": "uint256"
        }
      ],
      "stateMutability": "view",
      "type": "function"
    },
    {
      "inputs": [],
      "name": "multiSigWallet",
      "outputs": [
        {
          "internalType": "address",
          "name": "",
          "type": "address"
        }
      ],
      "stateMutability": "view",
      "type": "function"
    },
    {
      "inputs": [],
      "name": "owner",
      "outputs": [
        {
          "internalType": "address",
          "name": "",
          "type": "address"
        }
      ],
      "stateMutability": "view",
      "type": "function"
    },
    {
      "inputs": [],
      "name": "ownerFeePercent",
      "outputs": [
        {
          "internalType": "uint256",
          "name": "",
          "type": "uint256"
        }
      ],
      "stateMutability": "view",
      "type": "function"
    },
    {
      "inputs": [],
      "name": "ownerWallet",
      "outputs": [
        {
          "internalType": "address",
          "name": "",
          "type": "address"
        }
      ],
      "stateMutability": "view",
      "type": "function"
    },
    {
      "inputs": [],
      "name": "percentDivider",
      "outputs": [
        {
          "internalType": "uint256",
          "name": "",
          "type": "uint256"
        }
      ],
      "stateMutability": "view",
      "type": "function"
    },
    {
      "inputs": [],
      "name": "referralPercent",
      "outputs": [
        {
          "internalType": "uint256",
          "name": "",
          "type": "uint256"
        }
      ],
      "stateMutability": "view",
      "type": "function"
    },
    {
      "inputs": [],
      "name": "referrerPercent",
      "outputs": [
        {
          "internalType": "uint256",
          "name": "",
          "type": "uint256"
        }
      ],
      "stateMutability": "view",
      "type": "function"
    },
    {
      "inputs": [],
      "name": "renounceOwnership",
      "outputs": [],
      "stateMutability": "nonpayable",
      "type": "function"
    },
    {
      "inputs": [
        {
          "internalType": "uint256",
          "name": "",
          "type": "uint256"
        }
      ],
      "name": "requiredTeamAmount",
      "outputs": [
        {
          "internalType": "uint256",
          "name": "",
          "type": "uint256"
        }
      ],
      "stateMutability": "view",
      "type": "function"
    },
    {
      "inputs": [
        {
          "internalType": "uint256",
          "name": "",
          "type": "uint256"
        }
      ],
      "name": "requiredTeamUsers",
      "outputs": [
        {
          "internalType": "uint256",
          "name": "",
          "type": "uint256"
        }
      ],
      "stateMutability": "view",
      "type": "function"
    },
    {
      "inputs": [],
      "name": "teamPercentMultiplier",
      "outputs": [
        {
          "internalType": "uint256",
          "name": "",
          "type": "uint256"
        }
      ],
      "stateMutability": "view",
      "type": "function"
    },
    {
      "inputs": [],
      "name": "timeStep",
      "outputs": [
        {
          "internalType": "uint256",
          "name": "",
          "type": "uint256"
        }
      ],
      "stateMutability": "view",
      "type": "function"
    },
    {
      "inputs": [],
      "name": "topDepositThisWeek",
      "outputs": [
        {
          "internalType": "uint256",
          "name": "",
          "type": "uint256"
        }
      ],
      "stateMutability": "view",
      "type": "function"
    },
    {
      "inputs": [],
      "name": "topTeamThisWeek",
      "outputs": [
        {
          "internalType": "uint256",
          "name": "",
          "type": "uint256"
        }
      ],
      "stateMutability": "view",
      "type": "function"
    },
    {
      "inputs": [],
      "name": "totalRefRewards",
      "outputs": [
        {
          "internalType": "uint256",
          "name": "",
          "type": "uint256"
        }
      ],
      "stateMutability": "view",
      "type": "function"
    },
    {
      "inputs": [],
      "name": "totalStaked",
      "outputs": [
        {
          "internalType": "uint256",
          "name": "",
          "type": "uint256"
        }
      ],
      "stateMutability": "view",
      "type": "function"
    },
    {
      "inputs": [],
      "name": "totalWithdrawan",
      "outputs": [
        {
          "internalType": "uint256",
          "name": "",
          "type": "uint256"
        }
      ],
      "stateMutability": "view",
      "type": "function"
    },
    {
      "inputs": [
        {
          "internalType": "address",
          "name": "newOwner",
          "type": "address"
        },
        {
          "internalType": "address",
          "name": "newDev",
          "type": "address"
        },
        {
          "internalType": "address",
          "name": "newDev2",
          "type": "address"
        }
      ],
      "name": "transferOwnership",
      "outputs": [],
      "stateMutability": "nonpayable",
      "type": "function"
    },
    {
      "inputs": [],
      "name": "uniqueStakers",
      "outputs": [
        {
          "internalType": "uint256",
          "name": "",
          "type": "uint256"
        }
      ],
      "stateMutability": "view",
      "type": "function"
    },
    {
      "inputs": [],
      "name": "uniqueTeamId",
      "outputs": [
        {
          "internalType": "uint256",
          "name": "",
          "type": "uint256"
        }
      ],
      "stateMutability": "view",
      "type": "function"
    },
    {
      "inputs": [],
      "name": "usdc",
      "outputs": [
        {
          "internalType": "contract IERC20MetadataUpgradeable",
          "name": "",
          "type": "address"
        }
      ],
      "stateMutability": "view",
      "type": "function"
    },
    {
      "inputs": [],
      "name": "wolfV1",
      "outputs": [
        {
          "internalType": "contract IWolf",
          "name": "",
          "type": "address"
        }
      ],
      "stateMutability": "view",
      "type": "function"
    },
    {
      "inputs": [],
      "name": "initialize",
      "outputs": [],
      "stateMutability": "nonpayable",
      "type": "function"
    },
    {
      "inputs": [],
      "name": "updateWeekly",
      "outputs": [],
      "stateMutability": "nonpayable",
      "type": "function"
    },
    {
      "inputs": [
        {
          "internalType": "address",
          "name": "_referrer",
          "type": "address"
        },
        {
          "internalType": "uint256",
          "name": "_amount",
          "type": "uint256"
        }
      ],
      "name": "stake",
      "outputs": [],
      "stateMutability": "nonpayable",
      "type": "function"
    },
    {
      "inputs": [
        {
          "internalType": "uint256",
          "name": "_index",
          "type": "uint256"
        }
      ],
      "name": "claim",
      "outputs": [],
      "stateMutability": "nonpayable",
      "type": "function"
    },
    {
      "inputs": [],
      "name": "claimAll",
      "outputs": [],
      "stateMutability": "nonpayable",
      "type": "function"
    },
    {
      "inputs": [
        {
          "internalType": "uint256",
          "name": "_index",
          "type": "uint256"
        }
      ],
      "name": "withdraw",
      "outputs": [],
      "stateMutability": "nonpayable",
      "type": "function"
    },
    {
      "inputs": [],
      "name": "claimLottery",
      "outputs": [],
      "stateMutability": "nonpayable",
      "type": "function"
    },
    {
      "inputs": [],
      "name": "calculateWeek",
      "outputs": [
        {
          "internalType": "uint256",
          "name": "",
          "type": "uint256"
        }
      ],
      "stateMutability": "view",
      "type": "function"
    },
    {
      "inputs": [
        {
          "internalType": "address",
          "name": "_user",
          "type": "address"
        },
        {
          "internalType": "uint256",
          "name": "_index",
          "type": "uint256"
        }
      ],
      "name": "calculateReward",
      "outputs": [
        {
          "internalType": "uint256",
          "name": "_reward",
          "type": "uint256"
        }
      ],
      "stateMutability": "view",
      "type": "function"
    },
    {
      "inputs": [
        {
          "internalType": "address",
          "name": "_user",
          "type": "address"
        }
      ],
      "name": "getUserInfo",
      "outputs": [
        {
          "internalType": "bool",
          "name": "_isExists",
          "type": "bool"
        },
        {
          "internalType": "uint256",
          "name": "_stakeCount",
          "type": "uint256"
        },
        {
          "internalType": "address",
          "name": "_referrer",
          "type": "address"
        },
        {
          "internalType": "uint256",
          "name": "_referrals",
          "type": "uint256"
        },
        {
          "internalType": "uint256",
          "name": "_referralRewards",
          "type": "uint256"
        },
        {
          "internalType": "uint256",
          "name": "_teamId",
          "type": "uint256"
        },
        {
          "internalType": "uint256",
          "name": "_currentStaked",
          "type": "uint256"
        },
        {
          "internalType": "uint256",
          "name": "_totalStaked",
          "type": "uint256"
        },
        {
          "internalType": "uint256",
          "name": "_totalWithdrawan",
          "type": "uint256"
        }
      ],
      "stateMutability": "view",
      "type": "function"
    },
    {
      "inputs": [
        {
          "internalType": "address",
          "name": "_user",
          "type": "address"
        },
        {
          "internalType": "uint256",
          "name": "_index",
          "type": "uint256"
        }
      ],
      "name": "getUserTokenStakeInfo",
      "outputs": [
        {
          "internalType": "uint256",
          "name": "_amount",
          "type": "uint256"
        },
        {
          "internalType": "uint256",
          "name": "_checkpoint",
          "type": "uint256"
        },
        {
          "internalType": "uint256",
          "name": "_claimedReward",
          "type": "uint256"
        },
        {
          "internalType": "uint256",
          "name": "_startTime",
          "type": "uint256"
        },
        {
          "internalType": "bool",
          "name": "_isActive",
          "type": "bool"
        }
      ],
      "stateMutability": "view",
      "type": "function"
    },
    {
      "inputs": [
        {
          "internalType": "address",
          "name": "_user",
          "type": "address"
        },
        {
          "internalType": "uint256",
          "name": "_week",
          "type": "uint256"
        }
      ],
      "name": "getUserWeeklyDepositAmount",
      "outputs": [
        {
          "internalType": "uint256",
          "name": "_amount",
          "type": "uint256"
        }
      ],
      "stateMutability": "view",
      "type": "function"
    },
    {
      "inputs": [
        {
          "internalType": "address",
          "name": "_user",
          "type": "address"
        },
        {
          "internalType": "uint256",
          "name": "_week",
          "type": "uint256"
        }
      ],
      "name": "getUserLotteryClaimedStatus",
      "outputs": [
        {
          "internalType": "bool",
          "name": "_status",
          "type": "bool"
        }
      ],
      "stateMutability": "view",
      "type": "function"
    },
    {
      "inputs": [
        {
          "internalType": "uint256",
          "name": "_teamId",
          "type": "uint256"
        }
      ],
      "name": "getTeamInfo",
      "outputs": [
        {
          "internalType": "address",
          "name": "_Lead",
          "type": "address"
        },
        {
          "internalType": "string",
          "name": "_teamName",
          "type": "string"
        },
        {
          "internalType": "uint256",
          "name": "_teamCount",
          "type": "uint256"
        },
        {
          "internalType": "uint256",
          "name": "_teamAmount",
          "type": "uint256"
        },
        {
          "internalType": "uint256",
          "name": "_currentPercent",
          "type": "uint256"
        }
      ],
      "stateMutability": "view",
      "type": "function"
    },
    {
      "inputs": [
        {
          "internalType": "uint256",
          "name": "_teamId",
          "type": "uint256"
        },
        {
          "internalType": "uint256",
          "name": "_index",
          "type": "uint256"
        }
      ],
      "name": "getAllTeamMembers",
      "outputs": [
        {
          "internalType": "address",
          "name": "_teamMember",
          "type": "address"
        }
      ],
      "stateMutability": "view",
      "type": "function"
    },
    {
      "inputs": [
        {
          "internalType": "uint256",
          "name": "_teamId",
          "type": "uint256"
        },
        {
          "internalType": "uint256",
          "name": "_week",
          "type": "uint256"
        }
      ],
      "name": "getTeamLotteryAmount",
      "outputs": [
        {
          "internalType": "uint256",
          "name": "_amount",
          "type": "uint256"
        }
      ],
      "stateMutability": "view",
      "type": "function"
    },
    {
      "inputs": [
        {
          "internalType": "uint256",
          "name": "_teamId",
          "type": "uint256"
        },
        {
          "internalType": "uint256",
          "name": "_week",
          "type": "uint256"
        }
      ],
      "name": "getTeamWeeklyDepositAmount",
      "outputs": [
        {
          "internalType": "uint256",
          "name": "_amount",
          "type": "uint256"
        }
      ],
      "stateMutability": "view",
      "type": "function"
    },
    {
      "inputs": [
        {
          "internalType": "uint256",
          "name": "_week",
          "type": "uint256"
        }
      ],
      "name": "getWinnersHistory",
      "outputs": [
        {
          "internalType": "uint256",
          "name": "_team",
          "type": "uint256"
        }
      ],
      "stateMutability": "view",
      "type": "function"
    },
    {
      "inputs": [
        {
          "internalType": "address",
          "name": "_user",
          "type": "address"
        }
      ],
      "name": "getUserMigrationStatus",
      "outputs": [
        {
          "internalType": "bool",
          "name": "",
          "type": "bool"
        }
      ],
      "stateMutability": "view",
      "type": "function"
    },
    {
      "inputs": [
        {
          "internalType": "uint256",
          "name": "_teamId",
          "type": "uint256"
        }
      ],
      "name": "getTeamMigrationStatus",
      "outputs": [
        {
          "internalType": "bool",
          "name": "",
          "type": "bool"
        }
      ],
      "stateMutability": "view",
      "type": "function"
    },
    {
      "inputs": [],
      "name": "getContractBalance",
      "outputs": [
        {
          "internalType": "uint256",
          "name": "",
          "type": "uint256"
        }
      ],
      "stateMutability": "view",
      "type": "function"
    },
    {
      "inputs": [
        {
          "internalType": "uint256",
          "name": "_value",
          "type": "uint256"
        }
      ],
      "name": "setValue",
      "outputs": [],
      "stateMutability": "nonpayable",
      "type": "function"
    },
    {
      "inputs": [],
      "name": "launch",
      "outputs": [],
      "stateMutability": "nonpayable",
      "type": "function"
    },
    {
      "inputs": [
        {
          "internalType": "bool",
          "name": "_state",
          "type": "bool"
        }
      ],
      "name": "setHaltDeposits",
      "outputs": [],
      "stateMutability": "nonpayable",
      "type": "function"
    },
    {
      "inputs": [
        {
          "internalType": "bool",
          "name": "_state",
          "type": "bool"
        }
      ],
      "name": "setHaltWithdraws",
      "outputs": [],
      "stateMutability": "nonpayable",
      "type": "function"
    },
    {
      "inputs": [
        {
          "internalType": "bool",
          "name": "_state",
          "type": "bool"
        }
      ],
      "name": "setHaltAccumulation",
      "outputs": [],
      "stateMutability": "nonpayable",
      "type": "function"
    },
    {
      "inputs": [
        {
          "internalType": "address",
          "name": "_token",
          "type": "address"
        },
        {
          "internalType": "uint256",
          "name": "_amount",
          "type": "uint256"
        }
      ],
      "name": "migrateFunds",
      "outputs": [],
      "stateMutability": "nonpayable",
      "type": "function"
    },
    {
      "inputs": [
        {
          "internalType": "string",
          "name": "_name",
          "type": "string"
        }
      ],
      "name": "SetTeamName",
      "outputs": [],
      "stateMutability": "nonpayable",
      "type": "function"
    },
    {
      "inputs": [
        {
          "internalType": "uint256",
          "name": "_min",
          "type": "uint256"
        },
        {
          "internalType": "uint256",
          "name": "_max",
          "type": "uint256"
        }
      ],
      "name": "SetDepositLimits",
      "outputs": [],
      "stateMutability": "nonpayable",
      "type": "function"
    },
    {
      "inputs": [
        {
          "internalType": "address",
          "name": "_ownerWallet",
          "type": "address"
        },
        {
          "internalType": "address",
          "name": "_marketingWallet",
          "type": "address"
        },
        {
          "internalType": "address",
          "name": "_developmentWallet1",
          "type": "address"
        },
        {
          "internalType": "address",
          "name": "_developmentWallet2",
          "type": "address"
        },
        {
          "internalType": "address",
          "name": "_developmentWallet3",
          "type": "address"
        }
      ],
      "name": "setFeeWallets",
      "outputs": [],
      "stateMutability": "nonpayable",
      "type": "function"
    },
    {
      "inputs": [
        {
          "internalType": "address",
          "name": "_newWallet",
          "type": "address"
        }
      ],
      "name": "setMultiSigWallet",
      "outputs": [],
      "stateMutability": "nonpayable",
      "type": "function"
    },
    {
      "inputs": [
        {
          "internalType": "address",
          "name": "_newToken",
          "type": "address"
        },
        {
          "internalType": "address",
          "name": "_oldWolf",
          "type": "address"
        }
      ],
      "name": "setContracts",
      "outputs": [],
      "stateMutability": "nonpayable",
      "type": "function"
    },
    {
      "inputs": [
        {
          "internalType": "uint256",
          "name": "_basePercent",
          "type": "uint256"
        },
        {
          "internalType": "uint256",
          "name": "_teamPercent",
          "type": "uint256"
        }
      ],
      "name": "setBasePercent",
      "outputs": [],
      "stateMutability": "nonpayable",
      "type": "function"
    },
    {
      "inputs": [
        {
          "internalType": "uint256",
          "name": "_1",
          "type": "uint256"
        },
        {
          "internalType": "uint256",
          "name": "_2",
          "type": "uint256"
        },
        {
          "internalType": "uint256",
          "name": "_3",
          "type": "uint256"
        },
        {
          "internalType": "uint256",
          "name": "_4",
          "type": "uint256"
        }
      ],
      "name": "setDurations",
      "outputs": [],
      "stateMutability": "nonpayable",
      "type": "function"
    },
    {
      "inputs": [
        {
          "internalType": "uint256[10]",
          "name": "_values",
          "type": "uint256[10]"
        }
      ],
      "name": "setRequiredTeamAmount",
      "outputs": [],
      "stateMutability": "nonpayable",
      "type": "function"
    },
    {
      "inputs": [
        {
          "internalType": "uint256[10]",
          "name": "_values",
          "type": "uint256[10]"
        }
      ],
      "name": "setRequiredTeamUsers",
      "outputs": [],
      "stateMutability": "nonpayable",
      "type": "function"
    }
  ],
  "bytecode": "0x608060405234801561001057600080fd5b5061388b806100206000396000f3fe608060405234801561001057600080fd5b50600436106104c25760003560e01c80636f9fb98a11610278578063ab1a4d941161015c578063d8952a49116100ce578063eb33733b11610092578063eb33733b14610b68578063ec99720d14610b71578063ef646daf14610b84578063f03b0c0b14610b8d578063fdc8b64714610ba0578063fe6f1b0514610ba957600080fd5b8063d8952a4914610b27578063da6fa55c14610b3a578063daceb20514610b43578063e41cb93f14610b4c578063e937b47814610b5557600080fd5b8063c981500511610120578063c981500514610ad4578063cdd5f2d814610add578063d008043114610af0578063d1058e5914610af9578063d4f03b9014610b01578063d6dbf05714610b1457600080fd5b8063ab1a4d9414610a93578063adc9772e14610a9c578063bc17d55d14610aaf578063bfe0e02014610ac2578063c5ac0ded14610acb57600080fd5b80638c74945e116101f557806399707a7b116101b957806399707a7b14610a195780639b6057b114610a2c578063a301ba6f14610a58578063a443c6e414610a65578063a607232814610a78578063a9c117f714610a8057600080fd5b80638c74945e1461098d5780638da5cb5b146109bc57806391cca3db146109cf5780639335dcb7146109e2578063969215ba146109f557600080fd5b80638013f3a71161023c5780638013f3a7146109425780638091f3bf146109555780638129fc1c14610969578063817b1cd214610971578063888321371461097a57600080fd5b80636f9fb98a1461090d578063715018a61461091557806375f0a8741461091d578063790ca413146109305780637c356df81461093957600080fd5b806346eeaa3f116103aa57806358e1eaaf1161031c57806363b996c5116102e057806363b996c5146108ba5780636615d437146108cd578063695464e9146108d55780636998de35146108de5780636b760a94146108e75780636c9af74a146108fa57600080fd5b806358e1eaaf146107ce5780635b8f1e4a146107d75780636083e59a146107ea578063636d98b1146107f35780636386c1c7146107fc57600080fd5b80634ed6575f1161036e5780634ed6575f1461076557806350d67b3c1461076d5780635524107714610776578063562943d11461078957806357e09eeb1461079c57806357eb981a146107bc57600080fd5b806346eeaa3f146106875780634b8feb4f146106aa5780634d77b701146106bd5780634dfcae3e1461073f5780634e486b1c1461075257600080fd5b80632c83163311610443578063379607f511610407578063379607f5146106335780633ab9c84b146106465780633e413bee1461065957806341680f7d1461066c57806341b3d18514610675578063429b2be71461067e57600080fd5b80632c831633146105915780632e1a7d4d1461059a57806331fe3448146105ad578063343dfb7e146105f557806334deb8fd146105fe57600080fd5b80631502906d1161048a5780631502906d1461052a5780631852e8d914610533578063196f9cdd146105465780631b94eaaf146105755780632ab463fb1461058857600080fd5b806301339c21146104c757806304554443146104d157806306575c89146104ed5780630b0bb594146104f657806310db930d14610521575b600080fd5b6104cf610bb2565b005b6104da608b5481565b6040519081526020015b60405180910390f35b6104da60765481565b6105096105043660046131eb565b610c25565b6040516001600160a01b0390911681526020016104e4565b6104da607f5481565b6104da60885481565b6104da610541366004613229565b610c64565b6104da6105543660046131eb565b600091825260a1602090815260408084209284526006909201905290205490565b606c54610509906001600160a01b031681565b6104da60815481565b6104da60745481565b6104cf6105a8366004613253565b610d5c565b6105e56105bb366004613229565b6001600160a01b03909116600090815260a360209081526040808320938352929052205460ff1690565b60405190151581526020016104e4565b6104da60845481565b6104da61060c366004613229565b6001600160a01b03909116600090815260aa60209081526040808320938352929052205490565b6104cf610641366004613253565b610fe8565b6104cf610654366004613282565b61129f565b606754610509906001600160a01b031681565b6104da60755481565b6104da60865481565b6104da60785481565b6105e5610695366004613253565b600090815260a6602052604090205460ff1690565b606d54610509906001600160a01b031681565b6107156106cb366004613229565b6001600160a01b03909116600090815260a260209081526040808320938352929052208054600182015460028301546003840154600490940154929491939092909160ff90911690565b6040805195865260208601949094529284019190915260608301521515608082015260a0016104e4565b6104cf61074d366004613282565b6112f7565b6104cf6107603660046131eb565b61134f565b6104cf611362565b6104da60725481565b6104cf610784366004613253565b61138d565b607a546105e59062010000900460ff1681565b6104da6107aa366004613253565b600090815260a4602052604090205490565b607a546105e590610100900460ff1681565b6104da60805481565b606b54610509906001600160a01b031681565b6104da60875481565b6104da60835481565b61086661080a366004613301565b6001600160a01b03908116600090815260a060205260409020805460048201546001830154600284015460038501546005860154600687015460079097015460ff87169995986101009097049096169693959294919390929091565b604080519915158a5260208a01989098526001600160a01b03909616968801969096526060870193909352608086019190915260a085015260c084015260e0830191909152610100820152610120016104e4565b6104da6108c8366004613253565b61139a565b6104da6113b1565b6104da60a75481565b6104da607d5481565b6104cf6108f536600461331c565b6113de565b6104cf61090836600461335f565b61145b565b6104da6114c2565b6104cf61152f565b606a54610509906001600160a01b031681565b6104da60775481565b6104da60715481565b603554610509906001600160a01b031681565b607a546105e5906301000000900460ff1681565b6104cf611544565b6104da606e5481565b6104da610988366004613253565b6117de565b6104da61099b3660046131eb565b600091825260a1602090815260408084209284526007909201905290205490565b603354610509906001600160a01b031681565b603454610509906001600160a01b031681565b606954610509906001600160a01b031681565b610a08610a03366004613253565b6117ee565b6040516104e4959493929190613411565b6104cf610a27366004613452565b6118c2565b6105e5610a3a366004613301565b6001600160a01b0316600090815260a5602052604090205460ff1690565b607a546105e59060ff1681565b6104cf610a73366004613484565b6118de565b6104cf61195d565b6104cf610a8e366004613229565b611c52565b6104da60895481565b6104cf610aaa366004613229565b611d14565b6104cf610abd3660046131eb565b61209d565b6104da60705481565b6104da607b5481565b6104da60795481565b606854610509906001600160a01b031681565b6104da606f5481565b6104cf6120b0565b60a854610509906001600160a01b031681565b6104cf610b22366004613543565b6122e4565b6104cf610b35366004613560565b612306565b6104da607e5481565b6104da60735481565b6104da60a95481565b6104cf610b63366004613543565b61233c565b6104da607c5481565b6104cf610b7f366004613543565b612372565b6104da608a5481565b6104cf610b9b366004613301565b61238d565b6104da60825481565b6104da60855481565b610bba6123fa565b607a546301000000900460ff1615610c0c5760405162461bcd60e51b815260206004820152601060248201526f105b1c9958591e481b185d5b98da195960821b60448201526064015b60405180910390fd5b607a805463ff0000001916630100000017905542607755565b600082815260a160205260408120600501805483908110610c4857610c48613593565b6000918252602090912001546001600160a01b03169392505050565b607a5460009062010000900460ff1615610c8057506000610d56565b6001600160a01b038316600081815260a260209081526040808320868452825280832093835260a0825280832060030154835260a190915281206001830154909190610ccd90429061247e565b905060785483600101541015610cfa57607854607954610ced91906135bf565b610cf790826135bf565b90505b608a54811115610d095750608a545b610d50610d236088546085546124c790919063ffffffff16565b610d4a8460040154607b54610d3891906135d6565b8654610d4490866124c7565b906124c7565b90612546565b93505050505b92915050565b607a546301000000900460ff16610d855760405162461bcd60e51b8152600401610c03906135ee565b607a54610100900460ff1615610dad5760405162461bcd60e51b8152600401610c0390613617565b610db5611362565b33600090815260a06020908152604080832060a2835281842085855290925290912060048201548310610e1a5760405162461bcd60e51b815260206004820152600d60248201526c092dcecc2d8d2c840d2dcc8caf609b1b6044820152606401610c03565b600481015460ff16610e625760405162461bcd60e51b815260206004820152601160248201527020b63932b0b23c903bb4ba34323930bbb760791b6044820152606401610c03565b608b548160030154610e7491906135d6565b421015610eb75760405162461bcd60e51b81526020600482015260116024820152705761697420666f7220656e642074696d6560781b6044820152606401610c03565b606754815460405163a9059cbb60e01b81526001600160a01b039092169163a9059cbb91610eea91339190600401613646565b6020604051808303816000875af1158015610f09573d6000803e3d6000fd5b505050506040513d601f19601f82011682018060405250810190610f2d919061365f565b5060048101805460ff191690554260018201558054600583018054600090610f569084906135bf565b9091555050805460a78054600090610f6f9084906135bf565b90915550508054600783018054600090610f8a9084906135d6565b90915550508054606f8054600090610fa39084906135d6565b909155505080546040517f4f14ea4e43cc569e4fb4d8fa171366f2f6925bfade37c5cc93334e373a4c984791610fdb91339190613646565b60405180910390a1505050565b607a546301000000900460ff166110115760405162461bcd60e51b8152600401610c03906135ee565b607a54610100900460ff16156110395760405162461bcd60e51b8152600401610c0390613617565b611041611362565b33600090815260a06020908152604080832060a28352818420858552909252909120600482015483106110a65760405162461bcd60e51b815260206004820152600d60248201526c092dcecc2d8d2c840d2dcc8caf609b1b6044820152606401610c03565b600481015460ff166110ee5760405162461bcd60e51b815260206004820152601160248201527020b63932b0b23c903bb4ba34323930bbb760791b6044820152606401610c03565b608954816001015461110091906135d6565b4210156111455760405162461bcd60e51b81526020600482015260136024820152725761697420666f7220636c61696d2074696d6560681b6044820152606401610c03565b60006111513385610c64565b9050600081116111935760405162461bcd60e51b815260206004820152600d60248201526c043616e277420636c61696d203609c1b6044820152606401610c03565b60675460405163a9059cbb60e01b81526001600160a01b039091169063a9059cbb906111c59033908590600401613646565b6020604051808303816000875af11580156111e4573d6000803e3d6000fd5b505050506040513d601f19601f82011682018060405250810190611208919061365f565b504282600101819055508082600201600082825461122691906135d6565b925050819055508083600701600082825461124191906135d6565b9250508190555080606f600082825461125a91906135d6565b90915550506040517fcea16a2d83554574def1edf3ec1fb53f1373f7ebb1fa98fecdaa4268588793cc906112919033908490613646565b60405180910390a150505050565b6112a76123fa565b8051608c556020810151608d556040810151608e556060810151608f55608081015160905560a081015160915560c081015160925560e08101516093556101008101516094556101200151609555565b6112ff6123fa565b80516096556020810151609755604081015160985560608101516099556080810151609a5560a0810151609b5560c0810151609c5560e0810151609d55610100810151609e556101200151609f55565b6113576123fa565b607b91909155607c55565b61136a6113b1565b6076541461138b5761137a612588565b6113826113b1565b60765560006072555b565b6113956123fa565b60a755565b608c81600a81106113aa57600080fd5b0154905081565b600060885460076113c2919061367c565b6077546113cf90426135bf565b6113d9919061369b565b905090565b6113e66123fa565b6001600160a01b03831661144b5760405162461bcd60e51b815260206004820152602660248201527f4f776e61626c653a206e6577206f776e657220697320746865207a65726f206160448201526564647265737360d01b6064820152608401610c03565b61145683838361263d565b505050565b6114636123fa565b606980546001600160a01b03199081166001600160a01b0397881617909155606a8054821695871695909517909455606b8054851693861693909317909255606c8054841691851691909117905560a880549092169216919091179055565b6067546040516370a0823160e01b81523060048201526000916001600160a01b0316906370a0823190602401602060405180830381865afa15801561150b573d6000803e3d6000fd5b505050506040513d601f19601f820116820180604052508101906113d991906136bd565b6115376123fa565b61138b600080600061263d565b600054610100900460ff16158080156115645750600054600160ff909116105b8061157e5750303b15801561157e575060005460ff166001145b6115e15760405162461bcd60e51b815260206004820152602e60248201527f496e697469616c697a61626c653a20636f6e747261637420697320616c72656160448201526d191e481a5b9a5d1a585b1a5e995960921b6064820152608401610c03565b6000805460ff191660011790558015611604576000805461ff0019166101001790555b606880546001600160a01b0319908116734bba559128f2630459655ad548a5b6e5f31d97f417909155606780548216738ac76a51cc950d9822d68b83fe1ad97b32cd580d179055603380548216735886b6b942f8dab2488961f603a4be8c3015a1a9908117909155603480548316737f35be372873e06c15dd7f9494a426acab99c6de908117909155606980548416909217909155606a805483167357741a3f319d526f9ddba1d181207c8bd06c2914179055606b805483169091179055606c80548216737db1a2f972652020e8664005b6119f21a64c39b817905560a880548216735fac8717fdfbbf36f7c7217a424c7c82661297a6179055606d80549091167305c09f12e03a56fbc03edb8acb2ef7933e1ff45c1790556064607b819055600a607c819055610122607d55610190607e55607f829055608082905560a955608155610bb8608255609660838190556084556127106085556802b5e3af16b188000060865569152d02c7e14af68000006087556201518060885562093a80608955620d2f00608a55624f1a00608b5580156117db576000805461ff0019169055604051600181527f7f26b83ff96e1f2b6a682f133852f6798a09c465da95921460cefb3847402498906020015b60405180910390a15b50565b609681600a81106113aa57600080fd5b600081815260a16020526040812080546001820180546001600160a01b039092169360609390928392839291611823906136d6565b80601f016020809104026020016040519081016040528092919081815260200182805461184f906136d6565b801561189c5780601f106118715761010080835404028352916020019161189c565b820191906000526020600020905b81548152906001019060200180831161187f57829003601f168201915b505050505094508060020154935080600301549250806004015491505091939590929450565b6118ca6123fa565b608893909355608991909155608a55608b55565b33600081815260a06020908152604080832060030154835260a19091529020805490916001600160a01b03909116146119485760405162461bcd60e51b815260206004820152600c60248201526b2737ba1030903632b0b232b960a11b6044820152606401610c03565b81516114569060018301906020850190613152565b33600081815260a0602090815260408083206003810154845260a1835281842094845260a39092528220607654919392909161199b906001906135bf565b815260208101919091526040016000205460ff16156119ee5760405162461bcd60e51b815260206004820152600f60248201526e105b1c9958591e4810db185a5b5959608a1b6044820152606401610c03565b60008160060160006001607654611a0591906135bf565b81526020019081526020016000205411611a565760405162461bcd60e51b81526020600482015260126024820152714e6f2072657761726420746f20436c61696d60701b6044820152606401610c03565b33600090815260aa602052604081206076548290611a76906001906135bf565b81526020019081526020016000205411611ac75760405162461bcd60e51b81526020600482015260126024820152714e6f2072657761726420746f20436c61696d60701b6044820152606401610c03565b60008160070160006001607654611ade91906135bf565b81526020019081526020016000205460855460aa6000336001600160a01b03166001600160a01b0316815260200190815260200160002060006001607654611b2691906135bf565b815260200190815260200160002054611b3f919061367c565b611b49919061369b565b9050606760009054906101000a90046001600160a01b03166001600160a01b031663a9059cbb33608554848660060160006001607654611b8991906135bf565b815260200190815260200160002054611ba2919061367c565b611bac919061369b565b6040518363ffffffff1660e01b8152600401611bc9929190613646565b6020604051808303816000875af1158015611be8573d6000803e3d6000fd5b505050506040513d601f19601f82011682018060405250810190611c0c919061365f565b5033600090815260a36020526040812060765460019290611c2e9084906135bf565b81526020810191909152604001600020805460ff1916911515919091179055505050565b606d546001600160a01b03163314611c9d5760405162461bcd60e51b815260206004820152600e60248201526d4e6f742061206d756c746973696760901b6044820152606401610c03565b60335460405163a9059cbb60e01b81526001600160a01b038481169263a9059cbb92611cd192909116908590600401613646565b6020604051808303816000875af1158015611cf0573d6000803e3d6000fd5b505050506040513d601f19601f82011682018060405250810190611456919061365f565b607a546301000000900460ff16611d3d5760405162461bcd60e51b8152600401610c03906135ee565b607a5460ff1615611d865760405162461bcd60e51b815260206004820152601360248201527241646d696e2068616c74206465706f7369747360681b6044820152606401610c03565b611d8e611362565b33600090815260a060205260409020608654821015611def5760405162461bcd60e51b815260206004820152601b60248201527f416d6f756e74206c657373207468616e206d696e20616d6f756e7400000000006044820152606401610c03565b608754828260050154611e0291906135d6565b1115611e505760405162461bcd60e51b815260206004820152601b60248201527f416d6f756e74206d6f7265207468616e206d617820616d6f756e7400000000006044820152606401610c03565b805460ff16611e7a57805460ff1916600117815560718054906000611e7483613711565b91905055505b81606e6000828254611e8c91906135d6565b90915550506067546040516323b872dd60e01b8152336004820152306024820152604481018490526001600160a01b03909116906323b872dd906064016020604051808303816000875af1158015611ee8573d6000803e3d6000fd5b505050506040513d601f19601f82011682018060405250810190611f0c919061365f565b50611f16826126ae565b6064611f2383605a61367c565b611f2d919061369b565b33600090815260a260209081526040808320600480870180548652919093529083208481554260038201819055600180830191909155928101805460ff19169093179092558054939550909291611f8383613711565b919050555082826006016000828254611f9c91906135d6565b9250508190555082826005016000828254611fb791906135d6565b925050819055508260a76000828254611fd091906135d6565b909155505033600090815260aa602090815260408083206076548452909152812080548592906120019084906135d6565b90915550506001600160a01b03841633141561201c57600093505b815461010090046001600160a01b03166120435760038201546120435761204333856129cf565b815461010090046001600160a01b031615612062576120623384612a81565b61206c3384612c50565b7fa4e109bb7f03a3cbe671105ffecfc362319eaa88ecaf35997a4d3a2328d66d6c3384604051611291929190613646565b6120a56123fa565b608691909155608755565b607a546301000000900460ff166120d95760405162461bcd60e51b8152600401610c03906135ee565b607a54610100900460ff16156121015760405162461bcd60e51b8152600401610c0390613617565b612109611362565b33600090815260a06020526040812090805b82600401548110156121bd5733600090815260a2602090815260408083208484529091529020600481015460ff1680156121665750608954816001015461216291906135d6565b4210155b156121aa5760006121773384610c64565b90504282600101819055508082600201600082825461219691906135d6565b909155506121a6905081856135d6565b9350505b50806121b581613711565b91505061211b565b50600081116121fe5760405162461bcd60e51b815260206004820152600d60248201526c043616e277420636c61696d203609c1b6044820152606401610c03565b60675460405163a9059cbb60e01b81526001600160a01b039091169063a9059cbb906122309033908590600401613646565b6020604051808303816000875af115801561224f573d6000803e3d6000fd5b505050506040513d601f19601f82011682018060405250810190612273919061365f565b508082600701600082825461228891906135d6565b9250508190555080606f60008282546122a191906135d6565b90915550506040517fcea16a2d83554574def1edf3ec1fb53f1373f7ebb1fa98fecdaa4268588793cc906122d89033908490613646565b60405180910390a15050565b6122ec6123fa565b607a80549115156101000261ff0019909216919091179055565b61230e6123fa565b606780546001600160a01b039384166001600160a01b03199182161790915560688054929093169116179055565b6123446123fa565b607a805482158015620100000262ff0000199092169190911790915561236b574260785550565b4260795550565b61237a6123fa565b607a805460ff1916911515919091179055565b606d546001600160a01b031633146123d85760405162461bcd60e51b815260206004820152600e60248201526d4e6f742061206d756c746973696760901b6044820152606401610c03565b606d80546001600160a01b0319166001600160a01b0392909216919091179055565b6033546001600160a01b031633148061241d57506034546001600160a01b031633145b8061243257506035546001600160a01b031633145b61138b5760405162461bcd60e51b815260206004820181905260248201527f4f776e61626c653a2063616c6c6572206973206e6f7420746865206f776e65726044820152606401610c03565b60006124c083836040518060400160405280601e81526020017f536166654d6174683a207375627472616374696f6e206f766572666c6f770000815250612eb7565b9392505050565b6000826124d657506000610d56565b60006124e2838561367c565b9050826124ef858361369b565b146124c05760405162461bcd60e51b815260206004820152602160248201527f536166654d6174683a206d756c7469706c69636174696f6e206f766572666c6f6044820152607760f81b6064820152608401610c03565b60006124c083836040518060400160405280601a81526020017f536166654d6174683a206469766973696f6e206279207a65726f000000000000815250612ef1565b600060855460825460745461259d919061367c565b6125a7919061369b565b60738054600090815260a1602090815260408083206076805485526006909101835281842086905593549354835260a49091528120919091556074805492935083929091906125f79084906135bf565b909155505060735460725460408051928352602083018490528201527f83531245723b50749ff8a750ca38e2a14e5378b3c1083924cbd29a2ec3fd22e1906060016117d2565b603380546001600160a01b03198082166001600160a01b038781169182179094556034805483168786161790556035805490921685851617909155604051929091169182907f8be0079c531659141344cd1fd0a4f28419497f9722a3daafe3b4186f6b6457e090600090a350505050565b606754606954608554607d546001600160a01b039384169363a9059cbb931691906126d9908661367c565b6126e3919061369b565b6040518363ffffffff1660e01b8152600401612700929190613646565b6020604051808303816000875af115801561271f573d6000803e3d6000fd5b505050506040513d601f19601f82011682018060405250810190612743919061365f565b50606754606a54608554607e546001600160a01b039384169363a9059cbb9316919061276f908661367c565b612779919061369b565b6040518363ffffffff1660e01b8152600401612796929190613646565b6020604051808303816000875af11580156127b5573d6000803e3d6000fd5b505050506040513d601f19601f820116820180604052508101906127d9919061365f565b50606754606b54608554607f546001600160a01b039384169363a9059cbb93169190612805908661367c565b61280f919061369b565b6040518363ffffffff1660e01b815260040161282c929190613646565b6020604051808303816000875af115801561284b573d6000803e3d6000fd5b505050506040513d601f19601f8201168201806040525081019061286f919061365f565b50606754606c546085546080546001600160a01b039384169363a9059cbb9316919061289b908661367c565b6128a5919061369b565b6040518363ffffffff1660e01b81526004016128c2929190613646565b6020604051808303816000875af11580156128e1573d6000803e3d6000fd5b505050506040513d601f19601f82011682018060405250810190612905919061365f565b5060675460a85460855460a9546001600160a01b039384169363a9059cbb93169190612931908661367c565b61293b919061369b565b6040518363ffffffff1660e01b8152600401612958929190613646565b6020604051808303816000875af1158015612977573d6000803e3d6000fd5b505050506040513d601f19601f8201168201806040525081019061299b919061365f565b506085546081546129ac908361367c565b6129b6919061369b565b607460008282546129c791906135d6565b909155505050565b6001600160a01b03808316600090815260a0602052604090209082166129fd576129f883612f1f565b612a35565b826001600160a01b0316826001600160a01b031614612a35578054610100600160a81b0319166101006001600160a01b038416021781555b805461010090046001600160a01b03161561145657805461010090046001600160a01b0316600090815260a060205260408120600101805491612a7783613711565b9190505550505050565b6001600160a01b038216600090815260a060205260408120608554608454919291612ab29190610d4a9086906124c7565b90506000612ad1608554610d4a608354876124c790919063ffffffff16565b60675460405163a9059cbb60e01b81529192506001600160a01b03169063a9059cbb90612b049088908690600401613646565b6020604051808303816000875af1158015612b23573d6000803e3d6000fd5b505050506040513d601f19601f82011682018060405250810190612b47919061365f565b50606754835460405163a9059cbb60e01b81526001600160a01b039283169263a9059cbb92612b8492610100909104909116908590600401613646565b6020604051808303816000875af1158015612ba3573d6000803e3d6000fd5b505050506040513d601f19601f82011682018060405250810190612bc7919061365f565b5081836002016000828254612bdc91906135d6565b9091555050825461010090046001600160a01b0316600090815260a0602052604081206002018054839290612c129084906135d6565b925050819055508160706000828254612c2b91906135d6565b925050819055508060706000828254612c4491906135d6565b90915550505050505050565b6001600160a01b038216600090815260a0602052604090206003810154612cfb57805461010090046001600160a01b0316600090815260a060209081526040808320600390810154908501819055835260a19091528120600201805491612cb683613711565b90915550506003810154600090815260a1602090815260408220600501805460018101825590835291200180546001600160a01b0319166001600160a01b0385161790555b600380820154600090815260a1602052604081209182018054859290612d229084906135d6565b9091555050607654600090815260078201602052604081208054859290612d4a9084906135d6565b909155505060725460765460009081526007830160205260409020541115612d8c57607654600090815260078201602052604090205460725560038201546073555b6067546040805163313ce56760e01b815290516000926001600160a01b03169163313ce5679160048083019260209291908290030181865afa158015612dd6573d6000803e3d6000fd5b505050506040513d601f19601f82011682018060405250810190612dfa919061372c565b612e0590600a613833565b609654612e12919061367c565b8260030154612e21919061369b565b9050600a811115612e305750600a5b608c546002830154600091612e449161369b565b9050600a811115612e535750600a5b80821415612e7257607c54612e68908361367c565b6004840155612e9a565b80821015612e8757607c54612e68908361367c565b607c54612e94908261367c565b60048401555b603283600401541115612eaf57603260048401555b505050505050565b60008184841115612edb5760405162461bcd60e51b8152600401610c039190613842565b506000612ee884866135bf565b95945050505050565b60008183612f125760405162461bcd60e51b8152600401610c039190613842565b506000612ee8848661369b565b6001600160a01b038116600090815260a0602052604081206075805491929091612f4890613711565b918290555060038201818155600091825260a1602052604090912080546001600160a01b0319166001600160a01b0385161781559054612f8790612fdd565b8051612f9d916001840191602090910190613152565b506005810180546001810182556000918252602082200180546001600160a01b0319166001600160a01b03861617905560028201805491612a7783613711565b60606000612fea8361307a565b600101905060008167ffffffffffffffff81111561300a5761300a61326c565b6040519080825280601f01601f191660200182016040528015613034576020820181803683370190505b5090508181016020015b600019016f181899199a1a9b1b9c1cb0b131b232b360811b600a86061a8153600a850494508461306d57613072565b61303e565b509392505050565b60008072184f03e93ff9f4daa797ed6e38ed64bf6a1f0160401b83106130b95772184f03e93ff9f4daa797ed6e38ed64bf6a1f0160401b830492506040015b6d04ee2d6d415b85acef810000000083106130e5576d04ee2d6d415b85acef8100000000830492506020015b662386f26fc10000831061310357662386f26fc10000830492506010015b6305f5e100831061311b576305f5e100830492506008015b612710831061312f57612710830492506004015b60648310613141576064830492506002015b600a8310610d565760010192915050565b82805461315e906136d6565b90600052602060002090601f01602090048101928261318057600085556131c6565b82601f1061319957805160ff19168380011785556131c6565b828001600101855582156131c6579182015b828111156131c65782518255916020019190600101906131ab565b506131d29291506131d6565b5090565b5b808211156131d257600081556001016131d7565b600080604083850312156131fe57600080fd5b50508035926020909101359150565b80356001600160a01b038116811461322457600080fd5b919050565b6000806040838503121561323c57600080fd5b6132458361320d565b946020939093013593505050565b60006020828403121561326557600080fd5b5035919050565b634e487b7160e01b600052604160045260246000fd5b600061014080838503121561329657600080fd5b83601f8401126132a557600080fd5b60405181810181811067ffffffffffffffff821117156132c7576132c761326c565b6040529083019080858311156132dc57600080fd5b845b838110156132f65780358252602091820191016132de565b509095945050505050565b60006020828403121561331357600080fd5b6124c08261320d565b60008060006060848603121561333157600080fd5b61333a8461320d565b92506133486020850161320d565b91506133566040850161320d565b90509250925092565b600080600080600060a0868803121561337757600080fd5b6133808661320d565b945061338e6020870161320d565b935061339c6040870161320d565b92506133aa6060870161320d565b91506133b86080870161320d565b90509295509295909350565b6000815180845260005b818110156133ea576020818501810151868301820152016133ce565b818111156133fc576000602083870101525b50601f01601f19169290920160200192915050565b6001600160a01b038616815260a060208201819052600090613435908301876133c4565b604083019590955250606081019290925260809091015292915050565b6000806000806080858703121561346857600080fd5b5050823594602084013594506040840135936060013592509050565b60006020828403121561349657600080fd5b813567ffffffffffffffff808211156134ae57600080fd5b818401915084601f8301126134c257600080fd5b8135818111156134d4576134d461326c565b604051601f8201601f19908116603f011681019083821181831017156134fc576134fc61326c565b8160405282815287602084870101111561351557600080fd5b826020860160208301376000928101602001929092525095945050505050565b80151581146117db57600080fd5b60006020828403121561355557600080fd5b81356124c081613535565b6000806040838503121561357357600080fd5b61357c8361320d565b915061358a6020840161320d565b90509250929050565b634e487b7160e01b600052603260045260246000fd5b634e487b7160e01b600052601160045260246000fd5b6000828210156135d1576135d16135a9565b500390565b600082198211156135e9576135e96135a9565b500190565b6020808252600f908201526e0aec2d2e840ccdee440d8c2eadcc6d608b1b604082015260600190565b60208082526015908201527441646d696e2068616c742077697468647261776c7360581b604082015260600190565b6001600160a01b03929092168252602082015260400190565b60006020828403121561367157600080fd5b81516124c081613535565b6000816000190483118215151615613696576136966135a9565b500290565b6000826136b857634e487b7160e01b600052601260045260246000fd5b500490565b6000602082840312156136cf57600080fd5b5051919050565b600181811c908216806136ea57607f821691505b6020821081141561370b57634e487b7160e01b600052602260045260246000fd5b50919050565b6000600019821415613725576137256135a9565b5060010190565b60006020828403121561373e57600080fd5b815160ff811681146124c057600080fd5b600181815b8085111561378a578160001904821115613770576137706135a9565b8085161561377d57918102915b93841c9390800290613754565b509250929050565b6000826137a157506001610d56565b816137ae57506000610d56565b81600181146137c457600281146137ce576137ea565b6001915050610d56565b60ff8411156137df576137df6135a9565b50506001821b610d56565b5060208310610133831016604e8410600b841016171561380d575081810a610d56565b613817838361374f565b806000190482111561382b5761382b6135a9565b029392505050565b60006124c060ff841683613792565b6020815260006124c060208301846133c456fea2646970667358221220b2099655399e120717ee4fb3567af30d82b100ff77d29a73c168a09387b076f564736f6c634300080a0033",
  "immutableReferences": {},
  "source": "/**\r\n               _  __          \r\n__      _____ | |/ _|         \r\n\\ \\ /\\ / / _ \\| | |_          \r\n \\ V  V / (_) | |  _|         \r\n  \\_/\\_/ \\___/|_|_|           \r\n                              \r\n                 _ _        _ \r\n  ___ __ _ _ __ (_) |_ __ _| |\r\n / __/ _` | '_ \\| | __/ _` | |\r\n| (_| (_| | |_) | | || (_| | |\r\n \\___\\__,_| .__/|_|\\__\\__,_|_|\r\n          |_|                 \r\n*/\r\n\r\n// SPDX-License-Identifier: MIT\r\npragma solidity 0.8.10;\r\n\r\n\r\nimport \"@openzeppelin/contracts-upgradeable/token/ERC20/extensions/IERC20MetadataUpgradeable.sol\";\r\nimport \"@openzeppelin/contracts-upgradeable/access/OwnableUpgradeable.sol\";\r\nimport \"@openzeppelin/contracts-upgradeable/utils/AddressUpgradeable.sol\";\r\nimport \"@openzeppelin/contracts-upgradeable/proxy/utils/Initializable.sol\";\r\n\r\ninterface IWolf {\r\n    function calculateReward(\r\n        address _user,\r\n        uint256 _index\r\n    ) external view returns (uint256 _reward);\r\n\r\n    function getUserInfo(\r\n        address _user\r\n    )\r\n        external\r\n        view\r\n        returns (\r\n            bool _isExists,\r\n            uint256 _stakeCount,\r\n            address _referrer,\r\n            uint256 _referrals,\r\n            uint256 _referralRewards,\r\n            uint256 _teamId,\r\n            uint256 _currentStaked,\r\n            uint256 _totalStaked,\r\n            uint256 _totalWithdrawan\r\n        );\r\n\r\n    function getUserTokenStakeInfo(\r\n        address _user,\r\n        uint256 _index\r\n    )\r\n        external\r\n        view\r\n        returns (\r\n            uint256 _amount,\r\n            uint256 _checkpoint,\r\n            uint256 _claimedReward,\r\n            uint256 _startTime,\r\n            bool _isActive\r\n        );\r\n\r\n    function getUserLotteryClaimedStatus(\r\n        address _user,\r\n        uint256 _week\r\n    ) external view returns (bool _status);\r\n\r\n    function getTeamInfo(\r\n        uint256 _teamId\r\n    )\r\n        external\r\n        view\r\n        returns (\r\n            address _Lead,\r\n            string memory _teamName,\r\n            uint256 _teamCount,\r\n            uint256 _teamAmount,\r\n            uint256 _currentPercent\r\n        );\r\n\r\n    function getAllTeamMembers(\r\n        uint256 _teamId,\r\n        uint256 _index\r\n    ) external view returns (address _teamMember);\r\n\r\n    function getTeamLotteryAmount(\r\n        uint256 _teamId,\r\n        uint256 _week\r\n    ) external view returns (uint256 _amount);\r\n\r\n    function getTeamWeeklyDepositAmount(\r\n        uint256 _teamId,\r\n        uint256 _week\r\n    ) external view returns (uint256 _amount);\r\n\r\n    function getWinnersHistory(\r\n        uint256 _week\r\n    ) external view returns (uint256 _team);\r\n}\r\n\r\ncontract WolfCapital7 is Initializable, OwnableUpgradeable {\r\n    using SafeMath for uint256;\r\n    IERC20MetadataUpgradeable public usdc;\r\n    IWolf public wolfV1;\r\n    address public ownerWallet;\r\n    address public marketingWallet;\r\n    address public developmentWallet1;\r\n    address public developmentWallet2;\r\n    address public multiSigWallet;\r\n\r\n    uint256 public totalStaked;\r\n    uint256 public totalWithdrawan;\r\n    uint256 public totalRefRewards;\r\n    uint256 public uniqueStakers;\r\n    uint256 public topDepositThisWeek;\r\n    uint256 public topTeamThisWeek;\r\n    uint256 public lotteryPool;\r\n    uint256 public uniqueTeamId;\r\n    uint256 public currentWeek;\r\n    uint256 public launchTime;\r\n    uint256 public haltAccStartTime;\r\n    uint256 public haltAccEndTime;\r\n    bool public haltDeposits;\r\n    bool public haltWithdraws;\r\n    bool public haltAccumulation;\r\n    bool public launched;\r\n\r\n    uint256 public basePercent;\r\n    uint256 public teamPercentMultiplier;\r\n    uint256 public ownerFeePercent;\r\n    uint256 public marketingFeePercent;\r\n    uint256 public dev1FeePercent;\r\n    uint256 public dev2FeePercent;\r\n    uint256 public lotteryFeePercent;\r\n    uint256 public lotteryPercent;\r\n    uint256 public referrerPercent;\r\n    uint256 public referralPercent;\r\n    uint256 public percentDivider;\r\n    uint256 public minDeposit;\r\n    uint256 public maxDeposit;\r\n    uint256 public timeStep;\r\n    uint256 public claimDuration;\r\n    uint256 public accumulationDuration;\r\n    uint256 public lockDuration;\r\n\r\nfunction initialize() public initializer {\r\n        wolfV1 = IWolf(0x4Bba559128f2630459655AD548A5b6e5F31d97f4);\r\n        usdc = IERC20MetadataUpgradeable(\r\n            0x8AC76a51cc950d9822D68b83fE1Ad97B32Cd580d\r\n        );\r\n        owner = 0x5886B6b942f8DaB2488961f603a4be8C3015A1A9;\r\n        dev = 0x7f35be372873e06c15DD7f9494A426ACab99C6De;\r\n        ownerWallet = owner;\r\n        marketingWallet = 0x57741A3F319D526F9DdBa1D181207C8bD06c2914;\r\n        developmentWallet1 = dev;\r\n        developmentWallet2 = 0x7DB1A2f972652020e8664005B6119F21A64C39B8;\r\n        developmentWallet3 = 0x5FAc8717fdFBbf36f7c7217A424C7c82661297A6;\r\n        multiSigWallet = 0x05c09F12e03a56FbC03EdB8acB2ef7933E1Ff45C;\r\n        basePercent = 1_00;\r\n        teamPercentMultiplier = 10;\r\n        ownerFeePercent = 2_90;\r\n        marketingFeePercent = 4_00;\r\n        dev1FeePercent = 1_00;\r\n        dev2FeePercent = 1_00;\r\n        dev3FeePercent = 10;\r\n        lotteryFeePercent = 1_00;\r\n        lotteryPercent = 30_00;\r\n        referrerPercent = 1_50;\r\n        referralPercent = 1_50;\r\n        percentDivider = 100_00;\r\n        minDeposit = 50e18;\r\n        maxDeposit = 100_000e18;\r\n        timeStep = 1 days;\r\n        claimDuration = 7 days;\r\n        accumulationDuration = 10 days;\r\n        lockDuration = 60 days;\r\n    }\r\n\r\n    \r\n    uint256[10] public requiredTeamUsers;\r\n    uint256[10] public requiredTeamAmount;\r\n\r\n    struct StakeData {\r\n        uint256 amount;\r\n        uint256 checkpoint;\r\n        uint256 claimedReward;\r\n        uint256 startTime;\r\n        bool isActive;\r\n    }\r\n\r\n    struct User {\r\n        bool isExists;\r\n        address referrer;\r\n        uint256 referrals;\r\n        uint256 referralRewards;\r\n        uint256 teamId;\r\n        uint256 stakeCount;\r\n        uint256 currentStaked;\r\n        uint256 totalStaked;\r\n        uint256 totalWithdrawan;\r\n    }\r\n\r\n    struct TeamData {\r\n        address Lead;\r\n        string teamName;\r\n        uint256 teamCount;\r\n        uint256 teamAmount;\r\n        uint256 currentPercent;\r\n        address[] teamMembers;\r\n        mapping(uint256 => uint256) lotteryAmount;\r\n        mapping(uint256 => uint256) weeklyDeposits;\r\n    }\r\n\r\n    mapping(address => User) internal users;\r\n    mapping(uint256 => TeamData) internal teams;\r\n    mapping(address => mapping(uint256 => StakeData)) internal userStakes;\r\n    mapping(address => mapping(uint256 => bool)) internal isLotteryClaimed;\r\n    mapping(uint256 => uint256) internal winnersHistory;\r\n    mapping(address => bool) internal isUserMigrated;\r\n    mapping(uint256 => bool) internal isTeamMigrated;\r\n\r\n    event STAKE(address Staker, uint256 amount);\r\n    event CLAIM(address Staker, uint256 amount);\r\n    event WITHDRAW(address Staker, uint256 amount);\r\n    event LOTTERY(\r\n        uint256 topTeamThisWeek,\r\n        uint256 lotteryAmount,\r\n        uint256 lastWeekTopDeposit\r\n    );\r\n\r\n    uint256 public currentStaked;\r\n    address public developmentWallet3;\r\n    uint256 public dev3FeePercent;\r\n    mapping(address => mapping(uint256 => uint256)) weeklyDeposits;\r\n\r\n    function updateWeekly() public {\r\n        if (currentWeek != calculateWeek()) {\r\n            checkForLotteryWinner();\r\n            currentWeek = calculateWeek();\r\n            topDepositThisWeek = 0;\r\n        }\r\n    }\r\n\r\n    function stake(address _referrer, uint256 _amount) public {\r\n        require(launched, \"Wait for launch\");\r\n        require(!haltDeposits, \"Admin halt deposits\");\r\n        updateWeekly();\r\n        User storage user = users[msg.sender];\r\n        require(_amount >= minDeposit, \"Amount less than min amount\");\r\n        require(\r\n            user.currentStaked + _amount <= maxDeposit,\r\n            \"Amount more than max amount\"\r\n        );\r\n        if (!user.isExists) {\r\n            user.isExists = true;\r\n            uniqueStakers++;\r\n        }\r\n\r\n        totalStaked += _amount;\r\n        usdc.transferFrom(msg.sender, address(this), _amount);\r\n        takeFee(_amount);\r\n        _amount = (_amount * 90) / 100;\r\n\r\n        StakeData storage userStake = userStakes[msg.sender][user.stakeCount];\r\n        userStake.amount = _amount;\r\n        userStake.startTime = block.timestamp;\r\n        userStake.checkpoint = block.timestamp;\r\n        userStake.isActive = true;\r\n        user.stakeCount++;\r\n        user.totalStaked += _amount;\r\n        user.currentStaked += _amount;\r\n        currentStaked += _amount;\r\n        weeklyDeposits[msg.sender][currentWeek] += _amount;\r\n\r\n        if (_referrer == msg.sender) {\r\n            _referrer = address(0);\r\n        }\r\n\r\n        if (user.referrer == address(0)) {\r\n            if (user.teamId == 0) {\r\n                setReferrer(msg.sender, _referrer);\r\n            }\r\n        }\r\n\r\n        if (user.referrer != address(0)) {\r\n            distributeRefReward(msg.sender, _amount);\r\n        }\r\n\r\n        updateTeam(msg.sender, _amount);\r\n\r\n        emit STAKE(msg.sender, _amount);\r\n    }\r\n\r\n    function setReferrer(address _user, address _referrer) private {\r\n        User storage user = users[_user];\r\n\r\n        if (_referrer == address(0)) {\r\n            createTeam(_user);\r\n        } else if (_referrer != _user) {\r\n            user.referrer = _referrer;\r\n        }\r\n\r\n        if (user.referrer != address(0)) {\r\n            users[user.referrer].referrals++;\r\n        }\r\n    }\r\n\r\n    function distributeRefReward(address _user, uint256 _amount) private {\r\n        User storage user = users[_user];\r\n\r\n        uint256 userRewards = _amount.mul(referralPercent).div(percentDivider);\r\n        uint256 refRewards = _amount.mul(referrerPercent).div(percentDivider);\r\n\r\n        usdc.transfer(_user, userRewards);\r\n        usdc.transfer(user.referrer, refRewards);\r\n\r\n        user.referralRewards += userRewards;\r\n        users[user.referrer].referralRewards += refRewards;\r\n        totalRefRewards += userRewards;\r\n        totalRefRewards += refRewards;\r\n    }\r\n\r\n    function createTeam(address _user) private {\r\n        User storage user = users[_user];\r\n        user.teamId = ++uniqueTeamId;\r\n        TeamData storage newTeam = teams[user.teamId];\r\n        newTeam.Lead = _user;\r\n        newTeam.teamName = Strings.toString(user.teamId);\r\n        newTeam.teamMembers.push(_user);\r\n        newTeam.teamCount++;\r\n    }\r\n\r\nfunction updateTeam(address _user, uint256 _amount) private {\r\n        User storage user = users[_user];\r\n\r\n        if (user.teamId == 0) {\r\n            user.teamId = users[user.referrer].teamId;\r\n            teams[user.teamId].teamCount++;\r\n            teams[user.teamId].teamMembers.push(_user);\r\n        }\r\n\r\n        TeamData storage team = teams[user.teamId];\r\n        team.teamAmount += _amount;\r\n        team.weeklyDeposits[currentWeek] += _amount;\r\n        if (team.weeklyDeposits[currentWeek] > topDepositThisWeek) {\r\n            topDepositThisWeek = team.weeklyDeposits[currentWeek];\r\n            topTeamThisWeek = user.teamId;\r\n        }\r\n\r\n        uint256 amountIndex = team.teamAmount /\r\n            (requiredTeamAmount[0] * 10 ** usdc.decimals());\r\n        if(amountIndex > requiredTeamAmount.length){\r\n            amountIndex = requiredTeamAmount.length;\r\n        }\r\n        uint256 countIndex = team.teamCount / requiredTeamUsers[0];\r\n        if(countIndex > requiredTeamUsers.length){\r\n            countIndex = requiredTeamUsers.length;\r\n        }\r\n        if (amountIndex == countIndex) {\r\n            team.currentPercent = amountIndex * teamPercentMultiplier;\r\n        } else if (amountIndex < countIndex) {\r\n            team.currentPercent = amountIndex * teamPercentMultiplier;\r\n        } else {\r\n            team.currentPercent = countIndex * teamPercentMultiplier;\r\n        }\r\n        if (team.currentPercent > 50) {\r\n            team.currentPercent = 50;\r\n        }\r\n    }\r\n\r\n    function takeFee(uint256 _amount) private {\r\n        usdc.transfer(\r\n            ownerWallet,\r\n            (_amount * ownerFeePercent) / percentDivider\r\n        );\r\n        usdc.transfer(\r\n            marketingWallet,\r\n            (_amount * marketingFeePercent) / percentDivider\r\n        );\r\n        usdc.transfer(\r\n            developmentWallet1,\r\n            (_amount * dev1FeePercent) / percentDivider\r\n        );\r\n        usdc.transfer(\r\n            developmentWallet2,\r\n            (_amount * dev2FeePercent) / percentDivider\r\n        );\r\n        usdc.transfer(\r\n            developmentWallet3,\r\n            (_amount * dev3FeePercent) / percentDivider\r\n        );\r\n        lotteryPool += (_amount * lotteryFeePercent) / percentDivider;\r\n    }\r\n\r\n    function claim(uint256 _index) public {\r\n        require(launched, \"Wait for launch\");\r\n        require(!haltWithdraws, \"Admin halt withdrawls\");\r\n        updateWeekly();\r\n        User storage user = users[msg.sender];\r\n        StakeData storage userStake = userStakes[msg.sender][_index];\r\n        require(_index < user.stakeCount, \"Invalid index\");\r\n        require(userStake.isActive, \"Already withdrawn\");\r\n        require(\r\n            block.timestamp >= userStake.checkpoint + claimDuration,\r\n            \"Wait for claim time\"\r\n        );\r\n        uint256 rewardAmount;\r\n        rewardAmount = calculateReward(msg.sender, _index);\r\n        require(rewardAmount > 0, \"Can't claim 0\");\r\n        usdc.transfer(msg.sender, rewardAmount);\r\n        userStake.checkpoint = block.timestamp;\r\n        userStake.claimedReward += rewardAmount;\r\n        user.totalWithdrawan += rewardAmount;\r\n        totalWithdrawan += rewardAmount;\r\n\r\n        emit CLAIM(msg.sender, rewardAmount);\r\n    }\r\n\r\n    function claimAll() public {\r\n        require(launched, \"Wait for launch\");\r\n        require(!haltWithdraws, \"Admin halt withdrawls\");\r\n        updateWeekly();\r\n\r\n        User storage user = users[msg.sender];\r\n        uint256 claimableReward;\r\n        for (uint i; i < user.stakeCount; i++) {\r\n            StakeData storage userStake = userStakes[msg.sender][i];\r\n            if (\r\n                userStake.isActive &&\r\n                block.timestamp >= userStake.checkpoint + claimDuration\r\n            ) {\r\n                uint256 rewardAmount;\r\n                rewardAmount = calculateReward(msg.sender, i);\r\n                userStake.checkpoint = block.timestamp;\r\n                userStake.claimedReward += rewardAmount;\r\n                claimableReward += rewardAmount;\r\n            }\r\n        }\r\n        require(claimableReward > 0, \"Can't claim 0\");\r\n        usdc.transfer(msg.sender, claimableReward);\r\n\r\n        user.totalWithdrawan += claimableReward;\r\n        totalWithdrawan += claimableReward;\r\n\r\n        emit CLAIM(msg.sender, claimableReward);\r\n    }\r\n\r\n    function withdraw(uint256 _index) public {\r\n        require(launched, \"Wait for launch\");\r\n        require(!haltWithdraws, \"Admin halt withdrawls\");\r\n        updateWeekly();\r\n\r\n        User storage user = users[msg.sender];\r\n        StakeData storage userStake = userStakes[msg.sender][_index];\r\n        require(_index < user.stakeCount, \"Invalid index\");\r\n        require(userStake.isActive, \"Already withdrawn\");\r\n        require(\r\n            block.timestamp >= userStake.startTime + lockDuration,\r\n            \"Wait for end time\"\r\n        );\r\n\r\n        usdc.transfer(msg.sender, userStake.amount);\r\n        userStake.isActive = false;\r\n        userStake.checkpoint = block.timestamp;\r\n        user.currentStaked -= userStake.amount;\r\n        currentStaked -= userStake.amount;\r\n        user.totalWithdrawan += userStake.amount;\r\n        totalWithdrawan += userStake.amount;\r\n\r\n        emit WITHDRAW(msg.sender, userStake.amount);\r\n    }\r\n\r\n    function checkForLotteryWinner() private {\r\n        uint256 lotteryAmount = (lotteryPool * lotteryPercent) / percentDivider;\r\n        teams[topTeamThisWeek].lotteryAmount[currentWeek] = lotteryAmount;\r\n        winnersHistory[currentWeek] = topTeamThisWeek;\r\n        lotteryPool -= lotteryAmount;\r\n\r\n        emit LOTTERY(topTeamThisWeek, lotteryAmount, topDepositThisWeek);\r\n    }\r\n\r\n    function claimLottery() public {\r\n        User storage user = users[msg.sender];\r\n        TeamData storage team = teams[user.teamId];\r\n\r\n        require(\r\n            !isLotteryClaimed[msg.sender][currentWeek - 1],\r\n            \"Already Claimed\"\r\n        );\r\n        require(team.lotteryAmount[currentWeek - 1] > 0, \"No reward to Claim\");\r\n        require(weeklyDeposits[msg.sender][currentWeek - 1] > 0,\"No reward to Claim\");\r\n\r\n        uint256 userShare = (weeklyDeposits[msg.sender][currentWeek - 1] * percentDivider) /\r\n            team.weeklyDeposits[currentWeek - 1];\r\n        usdc.transfer(\r\n            msg.sender,\r\n            (team.lotteryAmount[currentWeek - 1] * userShare) / percentDivider\r\n        );\r\n        isLotteryClaimed[msg.sender][currentWeek - 1] = true;\r\n    }\r\n\r\n    /**\r\n        Getter functions for Public\r\n     */\r\n\r\n    function calculateWeek() public view returns (uint256) {\r\n        return (block.timestamp - launchTime) / (7 * timeStep);\r\n    }\r\n\r\n    function calculateReward(\r\n        address _user,\r\n        uint256 _index\r\n    ) public view returns (uint256 _reward) {\r\n        if (haltAccumulation) return 0;\r\n        StakeData storage userStake = userStakes[_user][_index];\r\n        TeamData storage team = teams[users[_user].teamId];\r\n        uint256 rewardDuration = block.timestamp.sub(userStake.checkpoint);\r\n        if (userStake.checkpoint < haltAccStartTime) {\r\n            rewardDuration =\r\n                rewardDuration -\r\n                (haltAccEndTime - haltAccStartTime);\r\n        }\r\n        if (rewardDuration > accumulationDuration) {\r\n            rewardDuration = accumulationDuration;\r\n        }\r\n        _reward = userStake\r\n            .amount\r\n            .mul(rewardDuration)\r\n            .mul(basePercent + team.currentPercent)\r\n            .div(percentDivider.mul(timeStep));\r\n    }\r\n\r\n    function getUserInfo(\r\n        address _user\r\n    )\r\n        public\r\n        view\r\n        returns (\r\n            bool _isExists,\r\n            uint256 _stakeCount,\r\n            address _referrer,\r\n            uint256 _referrals,\r\n            uint256 _referralRewards,\r\n            uint256 _teamId,\r\n            uint256 _currentStaked,\r\n            uint256 _totalStaked,\r\n            uint256 _totalWithdrawan\r\n        )\r\n    {\r\n        User storage user = users[_user];\r\n        _isExists = user.isExists;\r\n        _stakeCount = user.stakeCount;\r\n        _referrer = user.referrer;\r\n        _referrals = user.referrals;\r\n        _referralRewards = user.referralRewards;\r\n        _teamId = user.teamId;\r\n        _currentStaked = user.currentStaked;\r\n        _totalStaked = user.totalStaked;\r\n        _totalWithdrawan = user.totalWithdrawan;\r\n    }\r\n\r\n    function getUserTokenStakeInfo(\r\n        address _user,\r\n        uint256 _index\r\n    )\r\n        public\r\n        view\r\n        returns (\r\n            uint256 _amount,\r\n            uint256 _checkpoint,\r\n            uint256 _claimedReward,\r\n            uint256 _startTime,\r\n            bool _isActive\r\n        )\r\n    {\r\n        StakeData storage userStake = userStakes[_user][_index];\r\n        _amount = userStake.amount;\r\n        _checkpoint = userStake.checkpoint;\r\n        _claimedReward = userStake.claimedReward;\r\n        _startTime = userStake.startTime;\r\n        _isActive = userStake.isActive;\r\n    }\r\n\r\n    function getUserWeeklyDepositAmount(\r\n        address _user,\r\n        uint256 _week\r\n    ) public view returns (uint256 _amount) {\r\n        _amount = weeklyDeposits[_user][_week];\r\n    }\r\n\r\n    function getUserLotteryClaimedStatus(\r\n        address _user,\r\n        uint256 _week\r\n    ) public view returns (bool _status) {\r\n        _status = isLotteryClaimed[_user][_week];\r\n    }\r\n\r\n    function getTeamInfo(\r\n        uint256 _teamId\r\n    )\r\n        public\r\n        view\r\n        returns (\r\n            address _Lead,\r\n            string memory _teamName,\r\n            uint256 _teamCount,\r\n            uint256 _teamAmount,\r\n            uint256 _currentPercent\r\n        )\r\n    {\r\n        TeamData storage team = teams[_teamId];\r\n        _Lead = team.Lead;\r\n        _teamName = team.teamName;\r\n        _teamCount = team.teamCount;\r\n        _teamAmount = team.teamAmount;\r\n        _currentPercent = team.currentPercent;\r\n    }\r\n\r\n    function getAllTeamMembers(\r\n        uint256 _teamId,\r\n        uint256 _index\r\n    ) public view returns (address _teamMember) {\r\n        _teamMember = teams[_teamId].teamMembers[_index];\r\n    }\r\n\r\n    function getTeamLotteryAmount(\r\n        uint256 _teamId,\r\n        uint256 _week\r\n    ) public view returns (uint256 _amount) {\r\n        _amount = teams[_teamId].lotteryAmount[_week];\r\n    }\r\n\r\n    function getTeamWeeklyDepositAmount(\r\n        uint256 _teamId,\r\n        uint256 _week\r\n    ) public view returns (uint256 _amount) {\r\n        _amount = teams[_teamId].weeklyDeposits[_week];\r\n    }\r\n\r\n    function getWinnersHistory(\r\n        uint256 _week\r\n    ) public view returns (uint256 _team) {\r\n        _team = winnersHistory[_week];\r\n    }\r\n\r\n    function getUserMigrationStatus(address _user) public view returns (bool) {\r\n        return isUserMigrated[_user];\r\n    }\r\n\r\n    function getTeamMigrationStatus(\r\n        uint256 _teamId\r\n    ) public view returns (bool) {\r\n        return isTeamMigrated[_teamId];\r\n    }\r\n\r\n    function getContractBalance() public view returns (uint256) {\r\n        return usdc.balanceOf(address(this));\r\n    }\r\n\r\n    /*\r\n        Setter functions For sOwner\r\n    */\r\n\r\n    function setValue(\r\n        uint256 _value\r\n    ) external onlyOwner {\r\n        currentStaked = _value;\r\n    }\r\n\r\n    function launch() external onlyOwner {\r\n        require(!launched, \"Already launched\");\r\n        launched = true;\r\n        launchTime = block.timestamp;\r\n    }\r\n\r\n    function setHaltDeposits(bool _state) external onlyOwner {\r\n        haltDeposits = _state;\r\n    }\r\n\r\n    function setHaltWithdraws(bool _state) external onlyOwner {\r\n        haltWithdraws = _state;\r\n    }\r\n\r\n    function setHaltAccumulation(bool _state) external onlyOwner {\r\n        haltAccumulation = _state;\r\n        if (_state) {\r\n            haltAccStartTime = block.timestamp;\r\n        } else {\r\n            haltAccEndTime = block.timestamp;\r\n        }\r\n    }\r\n\r\n    function migrateFunds(address _token, uint256 _amount) external {\r\n        require(msg.sender == multiSigWallet, \"Not a multisig\");\r\n        IERC20MetadataUpgradeable(_token).transfer(owner, _amount);\r\n    }\r\n\r\n    function SetTeamName(string memory _name) external {\r\n        TeamData storage team = teams[users[msg.sender].teamId];\r\n        require(msg.sender == team.Lead, \"Not a leader\");\r\n        team.teamName = _name;\r\n    }\r\n\r\n    function SetDepositLimits(uint256 _min, uint256 _max) external onlyOwner {\r\n        minDeposit = _min;\r\n        maxDeposit = _max;\r\n    }\r\n\r\n    function setFeeWallets(\r\n        address _ownerWallet,\r\n        address _marketingWallet,\r\n        address _developmentWallet1,\r\n        address _developmentWallet2,\r\n        address _developmentWallet3\r\n    ) external onlyOwner {\r\n        ownerWallet = _ownerWallet;\r\n        marketingWallet = _marketingWallet;\r\n        developmentWallet1 = _developmentWallet1;\r\n        developmentWallet2 = _developmentWallet2;\r\n        developmentWallet3 = _developmentWallet3;\r\n    }\r\n\r\n    function setMultiSigWallet(address _newWallet) external {\r\n        require(msg.sender == multiSigWallet, \"Not a multisig\");\r\n        multiSigWallet = _newWallet;\r\n    }\r\n\r\n    function setContracts(\r\n        address _newToken,\r\n        address _oldWolf\r\n    ) external onlyOwner {\r\n        usdc = IERC20MetadataUpgradeable(_newToken);\r\n        wolfV1 = IWolf(_oldWolf);\r\n    }\r\n\r\n    function setBasePercent(\r\n        uint256 _basePercent,\r\n        uint256 _teamPercent\r\n    ) external onlyOwner {\r\n        basePercent = _basePercent;\r\n        teamPercentMultiplier = _teamPercent;\r\n    }\r\n\r\n    function setDurations(uint256 _1, uint256 _2, uint256 _3, uint256 _4) external onlyOwner {\r\n        timeStep = _1;\r\n        claimDuration = _2;\r\n        accumulationDuration = _3;\r\n        lockDuration = _4;\r\n    }\r\n\r\n    function setRequiredTeamAmount(uint256[10] memory _values) external onlyOwner {\r\n        requiredTeamAmount[0] = _values[0];\r\n        requiredTeamAmount[1] = _values[1];\r\n        requiredTeamAmount[2] = _values[2];\r\n        requiredTeamAmount[3] = _values[3];\r\n        requiredTeamAmount[4] = _values[4];\r\n        requiredTeamAmount[5] = _values[5];\r\n        requiredTeamAmount[6] = _values[6];\r\n        requiredTeamAmount[7] = _values[7];\r\n        requiredTeamAmount[8] = _values[8];\r\n        requiredTeamAmount[9] = _values[9];\r\n    }\r\n\r\n    function setRequiredTeamUsers(uint256[10] memory _values) external onlyOwner {\r\n        requiredTeamUsers[0] = _values[0];\r\n        requiredTeamUsers[1] = _values[1];\r\n        requiredTeamUsers[2] = _values[2];\r\n        requiredTeamUsers[3] = _values[3];\r\n        requiredTeamUsers[4] = _values[4];\r\n        requiredTeamUsers[5] = _values[5];\r\n        requiredTeamUsers[6] = _values[6];\r\n        requiredTeamUsers[7] = _values[7];\r\n        requiredTeamUsers[8] = _values[8];\r\n        requiredTeamUsers[9] = _values[9];\r\n    }\r\n    \r\n}\r\n\r\nlibrary Strings {\r\n    bytes16 private constant _SYMBOLS = \"0123456789abcdef\";\r\n\r\n    function toString(uint256 value) internal pure returns (string memory) {\r\n        unchecked {\r\n            uint256 length = log10(value) + 1;\r\n            string memory buffer = new string(length);\r\n            uint256 ptr;\r\n            /// @solidity memory-safe-assembly\r\n            assembly {\r\n                ptr := add(buffer, add(32, length))\r\n            }\r\n            while (true) {\r\n                ptr--;\r\n                /// @solidity memory-safe-assembly\r\n                assembly {\r\n                    mstore8(ptr, byte(mod(value, 10), _SYMBOLS))\r\n                }\r\n                value /= 10;\r\n                if (value == 0) break;\r\n            }\r\n            return buffer;\r\n        }\r\n    }\r\n\r\n    function log10(uint256 value) internal pure returns (uint256) {\r\n        uint256 result = 0;\r\n        unchecked {\r\n            if (value >= 10 ** 64) {\r\n                value /= 10 ** 64;\r\n                result += 64;\r\n            }\r\n            if (value >= 10 ** 32) {\r\n                value /= 10 ** 32;\r\n                result += 32;\r\n            }\r\n            if (value >= 10 ** 16) {\r\n                value /= 10 ** 16;\r\n                result += 16;\r\n            }\r\n            if (value >= 10 ** 8) {\r\n                value /= 10 ** 8;\r\n                result += 8;\r\n            }\r\n            if (value >= 10 ** 4) {\r\n                value /= 10 ** 4;\r\n                result += 4;\r\n            }\r\n            if (value >= 10 ** 2) {\r\n                value /= 10 ** 2;\r\n                result += 2;\r\n            }\r\n            if (value >= 10 ** 1) {\r\n                result += 1;\r\n            }\r\n        }\r\n        return result;\r\n    }\r\n}\r\n\r\nlibrary SafeMath {\r\n    function add(uint256 a, uint256 b) internal pure returns (uint256) {\r\n        uint256 c = a + b;\r\n        require(c >= a, \"SafeMath: addition overflow\");\r\n\r\n        return c;\r\n    }\r\n\r\n    function sub(uint256 a, uint256 b) internal pure returns (uint256) {\r\n        return sub(a, b, \"SafeMath: subtraction overflow\");\r\n    }\r\n\r\n    function sub(\r\n        uint256 a,\r\n        uint256 b,\r\n        string memory errorMessage\r\n    ) internal pure returns (uint256) {\r\n        require(b <= a, errorMessage);\r\n        uint256 c = a - b;\r\n\r\n        return c;\r\n    }\r\n\r\n    function mul(uint256 a, uint256 b) internal pure returns (uint256) {\r\n        // Gas optimization: this is cheaper than requiring 'a' not being zero, but the\r\n        // benefit is lost if 'b' is also tested.\r\n        // See: https://github.com/OpenZeppelin/openzeppelin-contracts/pull/522\r\n        if (a == 0) {\r\n            return 0;\r\n        }\r\n\r\n        uint256 c = a * b;\r\n        require(c / a == b, \"SafeMath: multiplication overflow\");\r\n\r\n        return c;\r\n    }\r\n\r\n    function div(uint256 a, uint256 b) internal pure returns (uint256) {\r\n        return div(a, b, \"SafeMath: division by zero\");\r\n    }\r\n\r\n    function div(\r\n        uint256 a,\r\n        uint256 b,\r\n        string memory errorMessage\r\n    ) internal pure returns (uint256) {\r\n        require(b > 0, errorMessage);\r\n        uint256 c = a / b;\r\n        // assert(a == b * c + a % b); // There is no case in which this doesn't hold\r\n\r\n        return c;\r\n    }\r\n\r\n    function mod(uint256 a, uint256 b) internal pure returns (uint256) {\r\n        return mod(a, b, \"SafeMath: modulo by zero\");\r\n    }\r\n\r\n    function mod(\r\n        uint256 a,\r\n        uint256 b,\r\n        string memory errorMessage\r\n    ) internal pure returns (uint256) {\r\n        require(b != 0, errorMessage);\r\n        return a % b;\r\n    }\r\n}",
  "sourcePath": "C:\\WolfCapital\\contracts\\WC8.sol",
  "compiler": {
    "name": "solc",
    "version": "0.8.10+commit.fc410830.Emscripten.clang"
  },
  "schemaVersion": "3.4.7",
  "updatedAt": "2023-05-23T11:00:08.614Z",
  "devdoc": {
    "kind": "dev",
    "methods": {
      "renounceOwnership()": {
        "details": "Leaves the contract without owner. It will not be possible to call `onlyOwner` functions anymore. Can only be called by the current owner. NOTE: Renouncing ownership will leave the contract without an owner, thereby removing any functionality that is only available to the owner."
      },
      "transferOwnership(address,address,address)": {
        "details": "Transfers ownership of the contract to a new account (`newOwner`). Can only be called by the current owner."
      }
    },
    "version": 1
  },
  "userdoc": {
    "kind": "user",
    "methods": {
      "calculateWeek()": {
        "notice": "Getter functions for Public"
      }
    },
    "version": 1
  }
}